:020000040800F2
:1000000040040020450100085F0300085703000872
:100010005B030008510300083904000800000000D9
:100020000000000000000000000000006303000862
:100030005503000800000000610300085D0100088E
:100040005F0100085F0100085F0100085F01000810
:100050005F0100085F0100085F0100085F01000800
:100060005F0100085F0100085F0100085F010008F0
:100070005F0100085F0100085F0100085F010008E0
:100080005F0100085F0100085F0100085F010008D0
:100090005F0100085F0100085F0100085F010008C0
:1000A0005F0100085F0100085F0100085F010008B0
:1000B0005F0100085F0100085F0100085F010008A0
:1000C0005F0100085F0100085F0100085F01000890
:1000D0005F0100085F0100085F0100085F01000880
:1000E0005F0100085F0100085F0100085F01000870
:1000F0005F0100085F0100085F0100085F01000860
:100100005F0100085F0100085F0100085F0100084F
:100110005F0100085F0100085F0100085F0100083F
:100120005F0100085F0100085F0100085F0100082F
:10013000DFF80CD000F0FAF8004800476D0900081D
:10014000400400200648804706480047FEE7FEE7D7
:10015000FEE7FEE7FEE7FEE7FEE7FEE7FEE7FEE777
:100160006503000831010008F0B480EA0102D40FF1
:100170004200B2EB410F02D20246084611464A0045
:1001800042D0C30DDDB2C1F3C752AD1A202D35DA0E
:10019000C1F3160141F4000204B15242C5F1200638
:1001A00002FA06F12A411044B3EBD05F23D0C4B168
:1001B000012DA0EBC35009DCF0BC4FF0004202EA75
:1001C000C352DBB200F5000000F081B8400000F13E
:1001D000807000EBC350A0F1807040EAD1704900FC
:1001E00009E0490841EAC071A0EBC35000F50000E6
:1001F000400800EBC350F0BC00F060B8614201223F
:1002000002EB4101001BF6E7F0BC704781F00041B2
:10021000AAE780F00040A7E780EA010210B502F0EB
:100220000043400022D04A001FD0010E01EB1261B2
:10023000C0F35600C2F3560240F4000042F400023C
:10024000A0FB022000047F39140400D0401C50EAB7
:10025000124001D44000491EC2B20C0604EBD0107B
:10026000401C4008802A02D003E0002010BD20F08E
:100270000100002900DA0020184310BD002801DB2E
:10028000C0F10040002901DBC1F10041814270470B
:1002900030B50B46014600202022012409E021FA56
:1002A00002F59D4205D303FA02F5491B04FA02F553
:1002B0002844151EA2F10102F1DC30BD0029A8BFBF
:1002C0007047401C490008BF20F00100704710B47F
:1002D000B0FA80FC00FA0CF050EA010404BF10BC34
:1002E000704749B1CCF1200421FA04F411FA0CF161
:1002F00018BF012121430843A3EB0C01CB1D4FEA9A
:1003000000614FEA102042BF002010BC704700EB94
:10031000C35010440029A4BF10BC7047401C4900C2
:1003200008BF20F0010010BC70470000064C074DCC
:1003300006E0E06840F0010394E8070098471034B5
:10034000AC42F6D3FFF7F8FECC0E0008EC0E000826
:1003500000BFFEE7704700BFFEE700BFFEE7704743
:100360007047704708B53048006840F001002E49DA
:10037000086000BF2C48006800F002000028F9D097
:1003800000BF2948406840F08000274948600020AD
:10039000009002E00098401C009000985028F9D38B
:1003A0002148406840F090001F49486000200090BC
:1003B00002E00098401C009000985028F9D300BF3C
:1003C0001948406820F00300174948600846006853
:1003D0001649084014490860084640681449084016
:1003E0001149486008460068104908400E490860F5
:1003F0000846006820F480200860084640680D49DF
:10040000084009494860084600680849084006490C
:1004100008604FF41F00886000F050FC00214FF08E
:10042000006000F0FFFA08BD00100240FFFFF6FE7A
:100430000C00FFE8FFFF00F700BFFEE70FB4054B1D
:1004400010B503A9044A029800F018F810BC5DF832
:1004500014FB0000BD0700080C00002002E008C8E3
:10046000121F08C1002AFAD170477047002001E02E
:1004700001C1121F002AFBD1704700002DE9FF4F78
:1004800089B09B460446002506E025280BD05A4635
:100490000B999047641C6D1C20780028F5D10DB095
:1004A0002846BDE8F08F0027B8460122474900E002
:1004B000074314F8013F203B02FA03F00842F7D14A
:1004C00020782E2819D114F8010F47F004072A28A4
:1004D0000ED06FF02F022078A0F1300109290CD83E
:1004E00008EB880102EB410100EB0108641CF2E714
:1004F0000A98641C50F8048B0A9020780028CED00B
:10050000642808D0692806D075281ED05A460B9951
:1005100090476D1C58E00A994FF00A0901C90A91E9
:10052000002802DA40422D2102E0390504D52B21B2
:100530008DF82010012103E0F90704D02021F7E70E
:100540008A4608AE0DE00021FAE70A994FF00A0941
:1005500001C90A91F7E74946FFF79AFE303106F8DC
:10056000011D0028F7D1ADEB060000F12009780746
:1005700001D44FF00108C84502DDA8EB090000E0F6
:1005800000208046002706E008A85A46C05D0B9967
:1005900090476D1C7F1C5745F6DB04E030205A461F
:1005A0000B9990476D1CB8F10001A8F10108F5DC2A
:1005B00005E016F8010B5A460B9990476D1CB9F1EE
:1005C0000001A9F10109F4DC641C65E709280100B8
:1005D0002DE9F04106AC94E8F010DDF82C800160C4
:1005E00042608360C460056146618761C0F81CC0D9
:1005F000C0F82080BDE8F0812DE9F04F85B00446B9
:1006000089469246A06804900020039020690290D9
:10061000002637E00020039000270CE0029A02CA6F
:10062000029259F82700FFF7F7FD05460399FFF7F7
:100630009BFD03907F1C6068B842EFD8206A039945
:10064000FFF7EAFD0090E169FFF78EFD8046A5699E
:10065000CDF800806D1E05E040460099FFF7DCFDF7
:1006600000906D1E002DF7DC00980190E06850F8B6
:1006700026100198FFF7D0FD83460499FFF774FD1B
:100680000490761C2068B042C4D800210498FFF77B
:10069000F5FD01D9012000E00020616951F820003A
:1006A000CAF8000005B0BDE8F08F70B504463C20E4
:1006B000B4FBF0F6B4FBF0F100FB114503E03C2085
:1006C00000F008F8761E002EF9D115B1284600F08A
:1006D00001F870BD01460020114A12684A434FF0EC
:1006E000E0235A6100229A611A46126942F001021F
:1006F0001A6100BF4FF0E022106900F001021AB148
:1007000000F48032002AF5D04FF0E022126922F086
:1007100001024FF0E0231A6100229A617047000045
:100720000800002000B589B04FF07C501649032224
:10073000164BCDE90232CDE9041015481549164B88
:100740000222CDE900100B211448FFF741FF1448A5
:1007500007901448089006AA07A91048FFF74CFF15
:1007600011A00699FFF76AFE134807900020089031
:1007700006AA07A90948FFF73FFF0BA00699FFF754
:100780005DFE09B000BD0000CDCC8C3FC40E00085A
:100790006C0E0008400E000835B3D4BF1C000020CA
:1007A000CDCCCC3ECDCCCC3D526573756C74203D28
:1007B0002025640A000000000000404070B5044697
:1007C0000D46E1B2054800F0EBFA00BF07210348EF
:1007D00000F0EFFA0028F9D0204670BD0038014043
:1007E0000022034B1A68130C03800A807047000034
:1007F000E0F7FF1F0549096801600449091F0968FE
:10080000416002490839096881607047F0F7FF1FAD
:10081000F0B5044616460025002201F00F0501F050
:10082000100707B1354300201EE0012787401F4015
:10083000C7B122684FEA800C0F2707FA0CF7BA43BA
:10084000870005FA07F73A43282904D10127874092
:100850001F40676105E0482903D1012787401F40F9
:1008600027612260471CB8B20828DED3082022E0A6
:10087000012787401F40E7B16268A0F108074FEAEF
:10088000870C0F2707FA0CF7BA43A0F10807BF003F
:1008900005FA07F73A43282904D1012787401F406A
:1008A000676105E0482903D1012787401F40276180
:1008B0006260471CB8B21028DAD3F0BD10B540F220
:1008C000066000F08DF94FF4806301221021124878
:1008D000FFF79EFF4FF40063012210210E48FFF73F
:1008E00097FF4FF48053012210210B48FFF790FF30
:1008F0004FF40053012210210748FFF789FF002021
:10090000064908600649C1F8AC010449083108608D
:100910000349C1F8B40110BD00180140A8012342E9
:10092000000023420020064908600649C1F8AC01D6
:100930000349083108600349C1F8B4017047000059
:10094000A80123420000234201200649086006490D
:10095000C1F8AC010349083108600349C1F8B4018A
:1009600070470000A801234200002342602000F0ED
:10097000BDF9FFF7A3FF4FF4165000F05FF81249DE
:10098000881EFFF72DFF1048801E028841880FA0A7
:10099000FFF754FD1A48FFF72DFF19488368426896
:1009A000016818A0FFF74AFDFFF7BCFE0BE0FFF758
:1009B000CBFF4FF47A70FFF778FEFFF7B3FF4FF4E9
:1009C0007A70FFF772FEF2E70200002047443332EC
:1009D00046313033564B543620466C617368205391
:1009E000697A653D25644B422C5372616D205369D1
:1009F0007A653D25644B422E2E2E0D0A0000000024
:100A0000100000204744333246313033564B5436C1
:100A1000205549443D2564256425642E2E2E0D0A5B
:100A200000000000034A0A400243034B1A60BFF370
:100A30004F8F704780FFFF1F08ED00E010B50446A0
:100A400040F2026000F0CCF840F20E6000F0C8F80E
:100A50004FF40073032218211648FFF7D9FE4FF414
:100A60008063032248211348FFF7D2FE2146124833
:100A700000F04EF90021104800F0DAF900210E488C
:100A800000F0C6F900210C4800F0B2F900210A4834
:100A900000F09EF90021084800F0A2F9082106485C
:100AA00000F0BEF90421044800F0AAF9024800F061
:100AB0007BF910BD00080140003801402DE9F04FDE
:100AC0008BB00746002009903EA090E8004CC0681B
:100AD000CDE905BECDF810A007900FF2EC0ADAE9D7
:100AE000000ACDE9020A0FF2E00ADAE9000ACDE9CC
:100AF000000A38484068C0F381000A900A9820B183
:100B0000012804D0022829D103E0334928E03249E2
:100B100026E03048406800F48038B8F5803F09D1BD
:100B20002D4C2C48406800F40039B9F5003F02D143
:100B3000641000E0294C27484068C0F383422548F0
:100B4000406800F0006008B142F010020F2A01D2A4
:100B5000921C00E0521C04FB02F101E01E4900BFA0
:100B600000BF1C484068C0F3031504A8465D21FA85
:100B700006F318484068C0F3022502A8465D23FA30
:100B800006FC14484068C0F3C2251DF8056023FA2E
:100B900006F0089037B1012F06D0022F06D0032FA0
:100BA0000AD106E0099108E0099306E0CDF824C0D7
:100BB00003E00898099000E000BF00BF09980BB05F
:100BC000BDE8F08F000000000000000001020304F7
:100BD000060708090010024000127A0000093D00D3
:100BE000064A02EB9011096800F01F0301229A40A7
:100BF0001143024B03EB901211607047001002404A
:100C0000002000212B4A126842F48032294B1A60DE
:100C100000BF401C274A126802F4003119B94FF690
:100C2000FF729042F5D1234A126802F400320AB9E9
:100C300000BFFEE71F4A52681E4B5A601A465268B0
:100C40005A601A46526842F480625A601A465268E4
:100C500022F440325A601A46526842F480325A6096
:100C60001A465268144B1A40124B5A601A46526880
:100C700042F420125A601A46126842F080721A60DA
:100C800000BF0C4A126802F00072002AF9D0094A2B
:100C9000526822F00302074B5A601A46526842F02B
:100CA00002025A6000BF034A526802F00C02082A8E
:100CB000F9D1704700100240FFFFC3F710B5FFF7EE
:100CC0009FFF10BD042808D14FF0E021096941F0D1
:100CD00004014FF0E022116107E04FF0E0210969C3
:100CE00021F004014FF0E0221161704710B5044675
:100CF0000420FFF7E7FF044804704FF47A70604364
:100D00000249086010BD0000040000200800002017
:100D10002DE9F04704460D460027B846B94600269F
:100D20001D49601A8C421CD006DC1C48204470B15E
:100D3000B0F5806F1FD10FE0B0F5806F16D0B0F521
:100D40006C4F18D10320FFF7B9FE074614E00220CC
:100D5000FFF7B4FE07460FE00220FFF7AFFE07469D
:100D60000AE00220FFF7AAFE074605E00220FFF78F
:100D7000A5FE074600E000BF00BF07EB5500B0FB33
:100D8000F5F64FF6F07006EA000806F00F0948EA9B
:100D90000900A060BDE8F087004C004000BCFFBF28
:100DA000C1F3080242607047C16841F40051C1605C
:100DB000704710B5024602EB9110006801F01F0465
:100DC0000123A340184008B1012010BD0020FCE71A
:100DD0000A460021416921F40071114341617047C5
:100DE0000A460021416921F4807111434161704735
:100DF000C26822F4C062C260C2680A43C26070471F
:100E00000A460021C16821F004011143C160704706
:100E1000026922F44052026102690A43026170478A
:100E20000A460021C16821F008011143C1607047E2
:100E3000C26822F48052C260C2680A43C26070472E
:100E40005B7285BC16FCC6BD0CCEDDBC3B50CC3CF9
:100E50002135123B7EA5283D7531D73C7321033CDB
:100E6000DAA6BE3B2542C03CB2410D3C0424A03F63
:100E7000DFA5F43E167CA7BEE4D8BFBF1860B6BDA0
:100E80005DD7A83FF6FE913FA09A2840150A28C0DA
:100E9000E9B6823FAE399EBF4F0322C0011E124009
:100EA000597ACABFF3542F407716B73EA80E113FA8
:100EB000610233403CE220C0817FA53FD30B11BFCC
:100EC000D37134C00000000001000000EC0E0008E7
:100ED00000000020100000005C040008FC0E000868
:100EE00010000020300400006C0400080000000026
:0C0EF000000000000000000000000000F6
:0400000508000131BD
:00000001FF
