Component: ARM Compiler 5.06 update 6 (build 750) Tool: armlink [4d35ed]

==============================================================================

Section Cross References

    main.o(i.main) refers to systick.o(i.systick_set) for systick_set
    main.o(i.main) refers to led.o(i.led_init) for led_init
    main.o(i.main) refers to print.o(i.print_config) for print_config
    main.o(i.main) refers to bitband.o(i.get_mem_infor) for get_mem_infor
    main.o(i.main) refers to printfa.o(i.__0printf) for __2printf
    main.o(i.main) refers to bitband.o(i.get_uid) for get_uid
    main.o(i.main) refers to dsp_test.o(i.ad_da_init) for ad_da_init
    main.o(i.main) refers to dsp_test.o(i.dsp_test) for dsp_test
    main.o(i.main) refers to systick.o(i.delay_ms) for delay_ms
    main.o(i.main) refers to main.o(.data) for mem_infor
    main.o(i.main) refers to main.o(.bss) for uid
    system_gd32f10x.o(i.SystemInit) refers to system_gd32f10x.o(i.system_clock_config) for system_clock_config
    system_gd32f10x.o(i.SystemInit) refers to gd32f10x_misc.o(i.nvic_vector_table_set) for nvic_vector_table_set
    system_gd32f10x.o(i.system_clock_config) refers to system_gd32f10x.o(i.system_clock_96m_hxtal) for system_clock_96m_hxtal
    startup_gd32f10x_xd.o(RESET) refers to startup_gd32f10x_xd.o(STACK) for __initial_sp
    startup_gd32f10x_xd.o(RESET) refers to startup_gd32f10x_xd.o(.text) for Reset_Handler
    startup_gd32f10x_xd.o(RESET) refers to gd32f10x_it.o(i.NMI_Handler) for NMI_Handler
    startup_gd32f10x_xd.o(RESET) refers to gd32f10x_it.o(i.HardFault_Handler) for HardFault_Handler
==============================================================================

Removing Unused input sections from the image.

    Removing gd32f10x_it.o(.rev16_text), (4 bytes).
    Removing gd32f10x_it.o(.revsh_text), (4 bytes).
    Removing gd32f10x_it.o(.rrx_text), (6 bytes).
    Removing main.o(.rev16_text), (4 bytes).
    Removing main.o(.revsh_text), (4 bytes).
    Removing main.o(.rrx_text), (6 bytes).
    Removing system_gd32f10x.o(.rev16_text), (4 bytes).
    Removing system_gd32f10x.o(.revsh_text), (4 bytes).
    Removing system_gd32f10x.o(.rrx_text), (6 bytes).
    Removing system_gd32f10x.o(.data), (4 bytes).
    Removing startup_gd32f10x_xd.o(HEAP), (512 bytes).
    Removing gd32f10x_adc.o(.rev16_text), (4 bytes).
    Removing gd32f10x_adc.o(.revsh_text), (4 bytes).
    Removing gd32f10x_adc.o(.rrx_text), (6 bytes).
    Removing gd32f10x_adc.o(i.adc_deinit), (88 bytes).
    Removing gd32f10x_adc.o(i.adc_disable), (10 bytes).
    Removing gd32f10x_adc.o(i.adc_discontinuous_mode_config), (76 bytes).
    Removing gd32f10x_adc.o(i.adc_dma_mode_disable), (10 bytes).
==============================================================================

Image Symbol Table

    Local Symbols

    Symbol Name                              Value     Ov Type        Size  Object(Section)

    ../clib/microlib/division.c              0x00000000   Number         0  uidiv.o ABSOLUTE
    ../clib/microlib/division.c              0x00000000   Number         0  ldiv.o ABSOLUTE
    ../clib/microlib/division.c              0x00000000   Number         0  uldiv.o ABSOLUTE
    ../clib/microlib/errno.c                 0x00000000   Number         0  errno.o ABSOLUTE
    ../clib/microlib/init/entry.s            0x00000000   Number         0  entry7b.o ABSOLUTE
    ../clib/microlib/init/entry.s            0x00000000   Number         0  entry7a.o ABSOLUTE
    ../clib/microlib/init/entry.s            0x00000000   Number         0  entry5.o ABSOLUTE
    ../clib/microlib/init/entry.s            0x00000000   Number         0  entry2.o ABSOLUTE
    ../clib/microlib/init/entry.s            0x00000000   Number         0  entry10b.o ABSOLUTE
    ../clib/microlib/init/entry.s            0x00000000   Number         0  entry11a.o ABSOLUTE
    ../clib/microlib/init/entry.s            0x00000000   Number         0  entry11b.o ABSOLUTE
    ../clib/microlib/init/entry.s            0x00000000   Number         0  entry8a.o ABSOLUTE
    ../clib/microlib/init/entry.s            0x00000000   Number         0  entry.o ABSOLUTE
    ../clib/microlib/init/entry.s            0x00000000   Number         0  entry10a.o ABSOLUTE
    ../clib/microlib/init/entry.s            0x00000000   Number         0  entry8b.o ABSOLUTE
    ../clib/microlib/init/entry.s            0x00000000   Number         0  entry9a.o ABSOLUTE
    ../clib/microlib/init/entry.s            0x00000000   Number         0  entry9b.o ABSOLUTE
    ../clib/microlib/longlong.c              0x00000000   Number         0  llsshr.o ABSOLUTE
    ../clib/microlib/longlong.c              0x00000000   Number         0  llushr.o ABSOLUTE
    ../clib/microlib/longlong.c              0x00000000   Number         0  llshl.o ABSOLUTE
    ../clib/microlib/printf/printf.c         0x00000000   Number         0  printfa.o ABSOLUTE
    ../clib/microlib/printf/printf.c         0x00000000   Number         0  printf8.o ABSOLUTE
    ../clib/microlib/printf/printf.c         0x00000000   Number         0  printf7.o ABSOLUTE
    ../clib/microlib/printf/printf.c         0x00000000   Number         0  printf6.o ABSOLUTE
    ../clib/microlib/printf/printf.c         0x00000000   Number         0  printf5.o ABSOLUTE
    ../clib/microlib/printf/printf.c         0x00000000   Number         0  printf4.o ABSOLUTE
    ../clib/microlib/printf/printf.c         0x00000000   Number         0  printf2.o ABSOLUTE
    ../clib/microlib/printf/printf.c         0x00000000   Number         0  printf1.o ABSOLUTE
    ../clib/microlib/printf/printf.c         0x00000000   Number         0  printf0.o ABSOLUTE
    ../clib/microlib/printf/printf.c         0x00000000   Number         0  printfb.o ABSOLUTE
    ../clib/microlib/printf/printf.c         0x00000000   Number         0  printf3.o ABSOLUTE
    ../clib/microlib/printf/stubs.s          0x00000000   Number         0  stubs.o ABSOLUTE
    ../clib/microlib/stdio/streams.c         0x00000000   Number         0  stdout.o ABSOLUTE
    ../clib/microlib/string/memcpy.c         0x00000000   Number         0  memcpyb.o ABSOLUTE
    ../clib/microlib/string/memcpy.c         0x00000000   Number         0  memcpya.o ABSOLUTE
    ../clib/microlib/string/memset.c         0x00000000   Number         0  memseta.o ABSOLUTE
    ../clib/microlib/stubs.s                 0x00000000   Number         0  iusefp.o ABSOLUTE
    ../fplib/microlib/d2f.c                  0x00000000   Number         0  d2f.o ABSOLUTE
    ../fplib/microlib/f2d.c                  0x00000000   Number         0  f2d.o ABSOLUTE
    ../fplib/microlib/fpadd.c                0x00000000   Number         0  dadd.o ABSOLUTE
    ../fplib/microlib/fpadd.c                0x00000000   Number         0  fadd.o ABSOLUTE
    ../fplib/microlib/fpdiv.c                0x00000000   Number         0  ddiv.o ABSOLUTE
    ../fplib/microlib/fpdiv.c                0x00000000   Number         0  fdiv.o ABSOLUTE
    ../fplib/microlib/fpepilogue.c           0x00000000   Number         0  depilogue.o ABSOLUTE
    ../fplib/microlib/fpepilogue.c           0x00000000   Number         0  fepilogue.o ABSOLUTE
    ../fplib/microlib/fpfix.c                0x00000000   Number         0  ffixi.o ABSOLUTE
    ../fplib/microlib/fpfix.c                0x00000000   Number         0  ffixl.o ABSOLUTE
    ../fplib/microlib/fpfix.c                0x00000000   Number         0  ffixir.o ABSOLUTE
    ../fplib/microlib/fpfix.c                0x00000000   Number         0  dfixul.o ABSOLUTE
    ../fplib/microlib/fpfix.c                0x00000000   Number         0  ffixui.o ABSOLUTE
    ../fplib/microlib/fpflt.c                0x00000000   Number         0  dfltui.o ABSOLUTE
    ../fplib/microlib/fpflt.c                0x00000000   Number         0  fflti.o ABSOLUTE
    ../fplib/microlib/fpflt.c                0x00000000   Number         0  dflti.o ABSOLUTE
    ../fplib/microlib/fpflt.c                0x00000000   Number         0  ffltui.o ABSOLUTE
    ../fplib/microlib/fpmul.c                0x00000000   Number         0  fmul.o ABSOLUTE
    ../fplib/microlib/fpmul.c                0x00000000   Number         0  dmul.o ABSOLUTE
    ../fplib/microlib/fprnd.c                0x00000000   Number         0  frnd.o ABSOLUTE
    ../fplib/microlib/fpscalb.c              0x00000000   Number         0  fscalb.o ABSOLUTE
    ../fplib/microlib/fpscalb.c              0x00000000   Number         0  dscalb.o ABSOLUTE
    ../fplib/microlib/fpsqrt.c               0x00000000   Number         0  fsqrt.o ABSOLUTE
    ../fplib/microlib/fpstat.c               0x00000000   Number         0  fpstat.o ABSOLUTE
    ../mathlib/dunder.c                      0x00000000   Number         0  dunder.o ABSOLUTE
    ../mathlib/expf.c                        0x00000000   Number         0  expf_x.o ABSOLUTE
    ../mathlib/expf.c                        0x00000000   Number         0  expf.o ABSOLUTE
    ../mathlib/fpclassifyf.c                 0x00000000   Number         0  fpclassifyf.o ABSOLUTE
    ../mathlib/funder.c                      0x00000000   Number         0  funder.o ABSOLUTE
    ../mathlib/log.c                         0x00000000   Number         0  log_x.o ABSOLUTE
    ../mathlib/log.c                         0x00000000   Number         0  log.o ABSOLUTE
    ../mathlib/logf.c                        0x00000000   Number         0  logf.o ABSOLUTE
    ../mathlib/logf.c                        0x00000000   Number         0  logf_x.o ABSOLUTE
    ../mathlib/poly.c                        0x00000000   Number         0  poly.o ABSOLUTE
    ../mathlib/powf.c                        0x00000000   Number         0  powf.o ABSOLUTE
    ../mathlib/powf.c                        0x00000000   Number         0  powf_x.o ABSOLUTE
    ../mathlib/qnan.c                        0x00000000   Number         0  qnan.o ABSOLUTE
    ../mathlib/sqrtf.c                       0x00000000   Number         0  sqrtf.o ABSOLUTE
    ../mathlib/sqrtf.c                       0x00000000   Number         0  sqrtf_x.o ABSOLUTE
    ../mathlib/tanhf.c                       0x00000000   Number         0  tanhf.o ABSOLUTE
    ../mathlib/tanhf.c                       0x00000000   Number         0  tanhf_x.o ABSOLUTE
    F:\Keil_MDK\pack\ARM\CMSIS\5.7.0\CMSIS\DSP\Source\BasicMathFunctions\BasicMathFunctions.c 0x00000000   Number         0  basicmathfunctions.o ABSOLUTE
    F:\Keil_MDK\pack\ARM\CMSIS\5.7.0\CMSIS\DSP\Source\BayesFunctions\BayesFunctions.c 0x00000000   Number         0  bayesfunctions.o ABSOLUTE
    F:\Keil_MDK\pack\ARM\CMSIS\5.7.0\CMSIS\DSP\Source\CommonTables\CommonTables.c 0x00000000   Number         0  commontables.o ABSOLUTE
    F:\Keil_MDK\pack\ARM\CMSIS\5.7.0\CMSIS\DSP\Source\ComplexMathFunctions\ComplexMathFunctions.c 0x00000000   Number         0  complexmathfunctions.o ABSOLUTE
    F:\Keil_MDK\pack\ARM\CMSIS\5.7.0\CMSIS\DSP\Source\ControllerFunctions\ControllerFunctions.c 0x00000000   Number         0  controllerfunctions.o ABSOLUTE
    F:\Keil_MDK\pack\ARM\CMSIS\5.7.0\CMSIS\DSP\Source\DistanceFunctions\DistanceFunctions.c 0x00000000   Number         0  distancefunctions.o ABSOLUTE
    F:\Keil_MDK\pack\ARM\CMSIS\5.7.0\CMSIS\DSP\Source\FastMathFunctions\FastMathFunctions.c 0x00000000   Number         0  fastmathfunctions.o ABSOLUTE
    F:\Keil_MDK\pack\ARM\CMSIS\5.7.0\CMSIS\DSP\Source\FilteringFunctions\FilteringFunctions.c 0x00000000   Number         0  filteringfunctions.o ABSOLUTE
    F:\Keil_MDK\pack\ARM\CMSIS\5.7.0\CMSIS\DSP\Source\MatrixFunctions\MatrixFunctions.c 0x00000000   Number         0  matrixfunctions.o ABSOLUTE
    F:\Keil_MDK\pack\ARM\CMSIS\5.7.0\CMSIS\DSP\Source\SVMFunctions\SVMFunctions.c 0x00000000   Number         0  svmfunctions.o ABSOLUTE
    F:\Keil_MDK\pack\ARM\CMSIS\5.7.0\CMSIS\DSP\Source\StatisticsFunctions\StatisticsFunctions.c 0x00000000   Number         0  statisticsfunctions.o ABSOLUTE
    F:\Keil_MDK\pack\ARM\CMSIS\5.7.0\CMSIS\DSP\Source\SupportFunctions\SupportFunctions.c 0x00000000   Number         0  supportfunctions.o ABSOLUTE
    F:\Keil_MDK\pack\ARM\CMSIS\5.7.0\CMSIS\DSP\Source\TransformFunctions\TransformFunctions.c 0x00000000   Number         0  transformfunctions.o ABSOLUTE
    F:\\Keil_MDK\\pack\\ARM\\CMSIS\\5.7.0\\CMSIS\\DSP\\Source\\BasicMathFunctions\\BasicMathFunctions.c 0x00000000   Number         0  basicmathfunctions.o ABSOLUTE
    F:\\Keil_MDK\\pack\\ARM\\CMSIS\\5.7.0\\CMSIS\\DSP\\Source\\BayesFunctions\\BayesFunctions.c 0x00000000   Number         0  bayesfunctions.o ABSOLUTE
    F:\\Keil_MDK\\pack\\ARM\\CMSIS\\5.7.0\\CMSIS\\DSP\\Source\\CommonTables\\CommonTables.c 0x00000000   Number         0  commontables.o ABSOLUTE
    F:\\Keil_MDK\\pack\\ARM\\CMSIS\\5.7.0\\CMSIS\\DSP\\Source\\ComplexMathFunctions\\ComplexMathFunctions.c 0x00000000   Number         0  complexmathfunctions.o ABSOLUTE
    F:\\Keil_MDK\\pack\\ARM\\CMSIS\\5.7.0\\CMSIS\\DSP\\Source\\ControllerFunctions\\ControllerFunctions.c 0x00000000   Number         0  controllerfunctions.o ABSOLUTE
    F:\\Keil_MDK\\pack\\ARM\\CMSIS\\5.7.0\\CMSIS\\DSP\\Source\\DistanceFunctions\\DistanceFunctions.c 0x00000000   Number         0  distancefunctions.o ABSOLUTE
    F:\\Keil_MDK\\pack\\ARM\\CMSIS\\5.7.0\\CMSIS\\DSP\\Source\\FastMathFunctions\\FastMathFunctions.c 0x00000000   Number         0  fastmathfunctions.o ABSOLUTE
    F:\\Keil_MDK\\pack\\ARM\\CMSIS\\5.7.0\\CMSIS\\DSP\\Source\\FilteringFunctions\\FilteringFunctions.c 0x00000000   Number         0  filteringfunctions.o ABSOLUTE
    F:\\Keil_MDK\\pack\\ARM\\CMSIS\\5.7.0\\CMSIS\\DSP\\Source\\MatrixFunctions\\MatrixFunctions.c 0x00000000   Number         0  matrixfunctions.o ABSOLUTE
    F:\\Keil_MDK\\pack\\ARM\\CMSIS\\5.7.0\\CMSIS\\DSP\\Source\\SVMFunctions\\SVMFunctions.c 0x00000000   Number         0  svmfunctions.o ABSOLUTE
    F:\\Keil_MDK\\pack\\ARM\\CMSIS\\5.7.0\\CMSIS\\DSP\\Source\\StatisticsFunctions\\StatisticsFunctions.c 0x00000000   Number         0  statisticsfunctions.o ABSOLUTE
    F:\\Keil_MDK\\pack\\ARM\\CMSIS\\5.7.0\\CMSIS\\DSP\\Source\\SupportFunctions\\SupportFunctions.c 0x00000000   Number         0  supportfunctions.o ABSOLUTE
    F:\\Keil_MDK\\pack\\ARM\\CMSIS\\5.7.0\\CMSIS\\DSP\\Source\\TransformFunctions\\TransformFunctions.c 0x00000000   Number         0  transformfunctions.o ABSOLUTE
    cdcmple.s                                0x00000000   Number         0  cdcmple.o ABSOLUTE
    cdrcmple.s                               0x00000000   Number         0  cdrcmple.o ABSOLUTE
    cfcmple.s                                0x00000000   Number         0  cfcmple.o ABSOLUTE
    cfrcmple.s                               0x00000000   Number         0  cfrcmple.o ABSOLUTE
    dc.s                                     0x00000000   Number         0  dc.o ABSOLUTE
    driver\\bitband.c                        0x00000000   Number         0  bitband.o ABSOLUTE
    driver\\dsp_test.c                       0x00000000   Number         0  dsp_test.o ABSOLUTE
    driver\\led.c                            0x00000000   Number         0  led.o ABSOLUTE
    driver\\print.c                          0x00000000   Number         0  print.o ABSOLUTE
    driver\\systick.c                        0x00000000   Number         0  systick.o ABSOLUTE
    driver\bitband.c                         0x00000000   Number         0  bitband.o ABSOLUTE
    driver\dsp_test.c                        0x00000000   Number         0  dsp_test.o ABSOLUTE
    driver\led.c                             0x00000000   Number         0  led.o ABSOLUTE
    driver\print.c                           0x00000000   Number         0  print.o ABSOLUTE
    driver\systick.c                         0x00000000   Number         0  systick.o ABSOLUTE
    handlers.s                               0x00000000   Number         0  handlers.o ABSOLUTE
    init.s                                   0x00000000   Number         0  init.o ABSOLUTE
    std\Source\gd32f10x_adc.c                0x00000000   Number         0  gd32f10x_adc.o ABSOLUTE
    std\Source\gd32f10x_bkp.c                0x00000000   Number         0  gd32f10x_bkp.o ABSOLUTE
    std\Source\gd32f10x_can.c                0x00000000   Number         0  gd32f10x_can.o ABSOLUTE
    std\Source\gd32f10x_crc.c                0x00000000   Number         0  gd32f10x_crc.o ABSOLUTE
    std\Source\gd32f10x_dac.c                0x00000000   Number         0  gd32f10x_dac.o ABSOLUTE
    std\Source\gd32f10x_dbg.c                0x00000000   Number         0  gd32f10x_dbg.o ABSOLUTE
    std\Source\gd32f10x_dma.c                0x00000000   Number         0  gd32f10x_dma.o ABSOLUTE
    std\Source\gd32f10x_enet.c               0x00000000   Number         0  gd32f10x_enet.o ABSOLUTE
    std\Source\gd32f10x_exmc.c               0x00000000   Number         0  gd32f10x_exmc.o ABSOLUTE
    std\Source\gd32f10x_exti.c               0x00000000   Number         0  gd32f10x_exti.o ABSOLUTE
    std\Source\gd32f10x_fmc.c                0x00000000   Number         0  gd32f10x_fmc.o ABSOLUTE
    std\Source\gd32f10x_fwdgt.c              0x00000000   Number         0  gd32f10x_fwdgt.o ABSOLUTE
    std\Source\gd32f10x_gpio.c               0x00000000   Number         0  gd32f10x_gpio.o ABSOLUTE
    std\Source\gd32f10x_i2c.c                0x00000000   Number         0  gd32f10x_i2c.o ABSOLUTE
    std\Source\gd32f10x_misc.c               0x00000000   Number         0  gd32f10x_misc.o ABSOLUTE
    std\Source\gd32f10x_pmu.c                0x00000000   Number         0  gd32f10x_pmu.o ABSOLUTE
    std\Source\gd32f10x_rcu.c                0x00000000   Number         0  gd32f10x_rcu.o ABSOLUTE
    std\Source\gd32f10x_rtc.c                0x00000000   Number         0  gd32f10x_rtc.o ABSOLUTE
    std\Source\gd32f10x_sdio.c               0x00000000   Number         0  gd32f10x_sdio.o ABSOLUTE
    std\Source\gd32f10x_spi.c                0x00000000   Number         0  gd32f10x_spi.o ABSOLUTE
    std\Source\gd32f10x_timer.c              0x00000000   Number         0  gd32f10x_timer.o ABSOLUTE
    std\Source\gd32f10x_usart.c              0x00000000   Number         0  gd32f10x_usart.o ABSOLUTE
    std\Source\gd32f10x_wwdgt.c              0x00000000   Number         0  gd32f10x_wwdgt.o ABSOLUTE
    std\\Source\\gd32f10x_adc.c              0x00000000   Number         0  gd32f10x_adc.o ABSOLUTE
    std\\Source\\gd32f10x_bkp.c              0x00000000   Number         0  gd32f10x_bkp.o ABSOLUTE
    std\\Source\\gd32f10x_can.c              0x00000000   Number         0  gd32f10x_can.o ABSOLUTE
    std\\Source\\gd32f10x_crc.c              0x00000000   Number         0  gd32f10x_crc.o ABSOLUTE
    std\\Source\\gd32f10x_dac.c              0x00000000   Number         0  gd32f10x_dac.o ABSOLUTE
    std\\Source\\gd32f10x_dbg.c              0x00000000   Number         0  gd32f10x_dbg.o ABSOLUTE
    std\\Source\\gd32f10x_dma.c              0x00000000   Number         0  gd32f10x_dma.o ABSOLUTE
    std\\Source\\gd32f10x_enet.c             0x00000000   Number         0  gd32f10x_enet.o ABSOLUTE
    std\\Source\\gd32f10x_exmc.c             0x00000000   Number         0  gd32f10x_exmc.o ABSOLUTE
    std\\Source\\gd32f10x_exti.c             0x00000000   Number         0  gd32f10x_exti.o ABSOLUTE
    std\\Source\\gd32f10x_fmc.c              0x00000000   Number         0  gd32f10x_fmc.o ABSOLUTE
    std\\Source\\gd32f10x_fwdgt.c            0x00000000   Number         0  gd32f10x_fwdgt.o ABSOLUTE
    std\\Source\\gd32f10x_gpio.c             0x00000000   Number         0  gd32f10x_gpio.o ABSOLUTE
    std\\Source\\gd32f10x_i2c.c              0x00000000   Number         0  gd32f10x_i2c.o ABSOLUTE
    std\\Source\\gd32f10x_misc.c             0x00000000   Number         0  gd32f10x_misc.o ABSOLUTE
    std\\Source\\gd32f10x_pmu.c              0x00000000   Number         0  gd32f10x_pmu.o ABSOLUTE
    std\\Source\\gd32f10x_rcu.c              0x00000000   Number         0  gd32f10x_rcu.o ABSOLUTE
    std\\Source\\gd32f10x_rtc.c              0x00000000   Number         0  gd32f10x_rtc.o ABSOLUTE
    std\\Source\\gd32f10x_sdio.c             0x00000000   Number         0  gd32f10x_sdio.o ABSOLUTE
    std\\Source\\gd32f10x_spi.c              0x00000000   Number         0  gd32f10x_spi.o ABSOLUTE
    std\\Source\\gd32f10x_timer.c            0x00000000   Number         0  gd32f10x_timer.o ABSOLUTE
    std\\Source\\gd32f10x_usart.c            0x00000000   Number         0  gd32f10x_usart.o ABSOLUTE
    std\\Source\\gd32f10x_wwdgt.c            0x00000000   Number         0  gd32f10x_wwdgt.o ABSOLUTE
    user\\gd32f10x_it.c                      0x00000000   Number         0  gd32f10x_it.o ABSOLUTE
    user\\main.c                             0x00000000   Number         0  main.o ABSOLUTE
    user\\system_gd32f10x.c                  0x00000000   Number         0  system_gd32f10x.o ABSOLUTE
    user\gd32f10x_it.c                       0x00000000   Number         0  gd32f10x_it.o ABSOLUTE
    user\main.c                              0x00000000   Number         0  main.o ABSOLUTE
    user\startup_gd32f10x_xd.s               0x00000000   Number         0  startup_gd32f10x_xd.o ABSOLUTE
    user\system_gd32f10x.c                   0x00000000   Number         0  system_gd32f10x.o ABSOLUTE
    RESET                                    0x08000000   Section      304  startup_gd32f10x_xd.o(RESET)
    .ARM.Collect$$$$00000000                 0x08000130   Section        0  entry.o(.ARM.Collect$$$$00000000)
    .ARM.Collect$$$$00000001                 0x08000130   Section        4  entry2.o(.ARM.Collect$$$$00000001)
    .ARM.Collect$$$$00000004                 0x08000134   Section        4  entry5.o(.ARM.Collect$$$$00000004)
    .ARM.Collect$$$$00000008                 0x08000138   Section        0  entry7b.o(.ARM.Collect$$$$00000008)
    .ARM.Collect$$$$0000000A                 0x08000138   Section        0  entry8b.o(.ARM.Collect$$$$0000000A)
    .ARM.Collect$$$$0000000B                 0x08000138   Section        8  entry9a.o(.ARM.Collect$$$$0000000B)
    .ARM.Collect$$$$0000000D                 0x08000140   Section        0  entry10a.o(.ARM.Collect$$$$0000000D)
    .ARM.Collect$$$$0000000F                 0x08000140   Section        0  entry11a.o(.ARM.Collect$$$$0000000F)
    .ARM.Collect$$$$00002712                 0x08000140   Section        4  entry2.o(.ARM.Collect$$$$00002712)
    __lit__00000000                          0x08000140   Data           4  entry2.o(.ARM.Collect$$$$00002712)
    .text                                    0x08000144   Section       36  startup_gd32f10x_xd.o(.text)
    .text                                    0x08000168   Section        0  uldiv.o(.text)
    .text                                    0x080001ca   Section        0  llshl.o(.text)
    .text                                    0x080001e8   Section        0  llsshr.o(.text)
    .text                                    0x0800020c   Section        0  fadd.o(.text)
    .text                                    0x080002bc   Section        0  fmul.o(.text)
    .text                                    0x08000320   Section        0  dadd.o(.text)
    .text                                    0x0800046e   Section        0  dmul.o(.text)
    .text                                    0x08000552   Section        0  ddiv.o(.text)
    .text                                    0x08000630   Section        0  dfltui.o(.text)
    .text                                    0x0800064a   Section        0  ffixui.o(.text)
    .text                                    0x08000672   Section        0  f2d.o(.text)
    .text                                    0x08000698   Section        0  d2f.o(.text)
    .text                                    0x080006d0   Section       20  cfrcmple.o(.text)
    .text                                    0x080006e4   Section        0  uidiv.o(.text)
    .text                                    0x08000710   Section        0  llushr.o(.text)
    .text                                    0x08000730   Section        0  fepilogue.o(.text)
    .text                                    0x08000730   Section        0  iusefp.o(.text)
    .text                                    0x0800079e   Section        0  depilogue.o(.text)
    .text                                    0x08000858   Section        0  dfixul.o(.text)
    .text                                    0x08000888   Section       48  cdrcmple.o(.text)
    .text                                    0x080008b8   Section       36  init.o(.text)
    i.BusFault_Handler                       0x080008dc   Section        0  gd32f10x_it.o(i.BusFault_Handler)
    i.DebugMon_Handler                       0x080008e0   Section        0  gd32f10x_it.o(i.DebugMon_Handler)
    i.HardFault_Handler                      0x080008e2   Section        0  gd32f10x_it.o(i.HardFault_Handler)
    i.MemManage_Handler                      0x080008e6   Section        0  gd32f10x_it.o(i.MemManage_Handler)
    i.NMI_Handler                            0x080008ea   Section        0  gd32f10x_it.o(i.NMI_Handler)
    i.PendSV_Handler                         0x080008ec   Section        0  gd32f10x_it.o(i.PendSV_Handler)
    i.SVC_Handler                            0x080008ee   Section        0  gd32f10x_it.o(i.SVC_Handler)
    i.SystemInit                             0x080008f0   Section        0  system_gd32f10x.o(i.SystemInit)
    i.UsageFault_Handler                     0x080009c4   Section        0  gd32f10x_it.o(i.UsageFault_Handler)
    i.__0printf                              0x080009c8   Section        0  printfa.o(i.__0printf)
    i.__scatterload_copy                     0x080009e8   Section       14  handlers.o(i.__scatterload_copy)
    i.__scatterload_null                     0x080009f6   Section        2  handlers.o(i.__scatterload_null)
    i.__scatterload_zeroinit                 0x080009f8   Section       14  handlers.o(i.__scatterload_zeroinit)
    i._fp_digits                             0x08000a08   Section        0  printfa.o(i._fp_digits)
    _fp_digits                               0x08000a09   Thumb Code   366  printfa.o(i._fp_digits)
    i._printf_core                           0x08000b8c   Section        0  printfa.o(i._printf_core)
    _printf_core                             0x08000b8d   Thumb Code  1744  printfa.o(i._printf_core)
    i._printf_post_padding                   0x08001268   Section        0  printfa.o(i._printf_post_padding)
    _printf_post_padding                     0x08001269   Thumb Code    36  printfa.o(i._printf_post_padding)
    i._printf_pre_padding                    0x0800128c   Section        0  printfa.o(i._printf_pre_padding)
    _printf_pre_padding                      0x0800128d   Thumb Code    46  printfa.o(i._printf_pre_padding)
    i.ad_da_init                             0x080012bc   Section        0  dsp_test.o(i.ad_da_init)
    i.adc_calibration_enable                 0x0800138c   Section        0  gd32f10x_adc.o(i.adc_calibration_enable)
    i.adc_channel_length_config              0x080013b6   Section        0  gd32f10x_adc.o(i.adc_channel_length_config)
    i.adc_data_alignment_config              0x080013fc   Section        0  gd32f10x_adc.o(i.adc_data_alignment_config)
    i.adc_enable                             0x08001412   Section        0  gd32f10x_adc.o(i.adc_enable)
    i.adc_external_trigger_config            0x08001424   Section        0  gd32f10x_adc.o(i.adc_external_trigger_config)
    i.adc_flag_clear                         0x08001462   Section        0  gd32f10x_adc.o(i.adc_flag_clear)
    i.adc_flag_get                           0x0800146a   Section        0  gd32f10x_adc.o(i.adc_flag_get)
    i.adc_regular_channel_config             0x08001478   Section        0  gd32f10x_adc.o(i.adc_regular_channel_config)
    i.adc_regular_data_read                  0x08001524   Section        0  gd32f10x_adc.o(i.adc_regular_data_read)
    i.adc_software_trigger_enable            0x0800152c   Section        0  gd32f10x_adc.o(i.adc_software_trigger_enable)
    i.adc_special_function_config            0x0800154a   Section        0  gd32f10x_adc.o(i.adc_special_function_config)
    i.arm_pid_init_f32                       0x080015a4   Section        0  controllerfunctions.o(i.arm_pid_init_f32)
    i.dac_data_set                           0x080015ec   Section        0  gd32f10x_dac.o(i.dac_data_set)
    i.dac_enable                             0x08001644   Section        0  gd32f10x_dac.o(i.dac_enable)
    i.dac_output_buffer_enable               0x08001668   Section        0  gd32f10x_dac.o(i.dac_output_buffer_enable)
    i.dac_software_trigger_enable            0x0800168c   Section        0  gd32f10x_dac.o(i.dac_software_trigger_enable)
    i.dac_trigger_enable                     0x080016b0   Section        0  gd32f10x_dac.o(i.dac_trigger_enable)
    i.dac_trigger_source_config              0x080016d4   Section        0  gd32f10x_dac.o(i.dac_trigger_source_config)
    i.dac_wave_mode_config                   0x08001708   Section        0  gd32f10x_dac.o(i.dac_wave_mode_config)
    i.delay_ms                               0x0800173c   Section        0  systick.o(i.delay_ms)
    i.delay_nms                              0x08001768   Section        0  systick.o(i.delay_nms)
    delay_nms                                0x08001769   Thumb Code    74  systick.o(i.delay_nms)
    i.dsp_test                               0x080017b8   Section        0  dsp_test.o(i.dsp_test)
    i.fputc                                  0x080018d4   Section        0  print.o(i.fputc)
    i.get_mem_infor                          0x080018f8   Section        0  bitband.o(i.get_mem_infor)
    i.get_uid                                0x0800190c   Section        0  bitband.o(i.get_uid)
    i.gpio_init                              0x08001928   Section        0  gd32f10x_gpio.o(i.gpio_init)
    i.led_init                               0x080019d4   Section        0  led.o(i.led_init)
    i.main                                   0x08001a3c   Section        0  main.o(i.main)
    i.nvic_vector_table_set                  0x08001ae8   Section        0  gd32f10x_misc.o(i.nvic_vector_table_set)
    i.print_config                           0x08001b00   Section        0  print.o(i.print_config)
    i.rcu_adc_clock_config                   0x08001b80   Section        0  gd32f10x_rcu.o(i.rcu_adc_clock_config)
    i.rcu_clock_freq_get                     0x08001bc8   Section        0  gd32f10x_rcu.o(i.rcu_clock_freq_get)
    i.rcu_periph_clock_enable                0x08001cec   Section        0  gd32f10x_rcu.o(i.rcu_periph_clock_enable)
    i.system_clock_96m_hxtal                 0x08001d0c   Section        0  system_gd32f10x.o(i.system_clock_96m_hxtal)
    system_clock_96m_hxtal                   0x08001d0d   Thumb Code   180  system_gd32f10x.o(i.system_clock_96m_hxtal)
    i.system_clock_config                    0x08001dc8   Section        0  system_gd32f10x.o(i.system_clock_config)
    system_clock_config                      0x08001dc9   Thumb Code     8  system_gd32f10x.o(i.system_clock_config)
    i.systick_clksource_set                  0x08001dd0   Section        0  gd32f10x_misc.o(i.systick_clksource_set)
    i.systick_set                            0x08001df8   Section        0  systick.o(i.systick_set)
    i.usart_baudrate_set                     0x08001e1c   Section        0  gd32f10x_usart.o(i.usart_baudrate_set)
    i.usart_data_transmit                    0x08001eac   Section        0  gd32f10x_usart.o(i.usart_data_transmit)
    i.usart_enable                           0x08001eb4   Section        0  gd32f10x_usart.o(i.usart_enable)
    i.usart_flag_get                         0x08001ebe   Section        0  gd32f10x_usart.o(i.usart_flag_get)
    i.usart_hardware_flow_cts_config         0x08001edc   Section        0  gd32f10x_usart.o(i.usart_hardware_flow_cts_config)
    i.usart_hardware_flow_rts_config         0x08001eec   Section        0  gd32f10x_usart.o(i.usart_hardware_flow_rts_config)
    i.usart_parity_config                    0x08001efc   Section        0  gd32f10x_usart.o(i.usart_parity_config)
    i.usart_receive_config                   0x08001f0c   Section        0  gd32f10x_usart.o(i.usart_receive_config)
    i.usart_stop_bit_set                     0x08001f1c   Section        0  gd32f10x_usart.o(i.usart_stop_bit_set)
    i.usart_transmit_config                  0x08001f2c   Section        0  gd32f10x_usart.o(i.usart_transmit_config)
    i.usart_word_length_set                  0x08001f3c   Section        0  gd32f10x_usart.o(i.usart_word_length_set)
    .data                                    0x20000000   Section        4  main.o(.data)
    .data                                    0x20000004   Section        8  systick.o(.data)
    .data                                    0x2000000c   Section        8  dsp_test.o(.data)
    .data                                    0x20000014   Section        4  stdout.o(.data)
    .bss                                     0x20000018   Section       12  main.o(.bss)
    .bss                                     0x20000024   Section       36  dsp_test.o(.bss)
    STACK                                    0x20000048   Section     1024  startup_gd32f10x_xd.o(STACK)

    Global Symbols

    Symbol Name                              Value     Ov Type        Size  Object(Section)

    BuildAttributes$$THM_ISAv4$P$D$K$B$S$PE$A:L22UL41UL21$X:L11$S22US41US21$IEEE1$IW$USESV6$~STKCKD$USESV7$~SHL$OTIME$ROPI$IEEEX$EBA8$MICROLIB$REQ8$PRES8$EABIv2 0x00000000   Number         0  anon$$obj.o ABSOLUTE
    __ARM_use_no_argv                        0x00000000   Number         0  main.o ABSOLUTE
    _printf_a                                0x00000000   Number         0  stubs.o ABSOLUTE
    _printf_c                                0x00000000   Number         0  stubs.o ABSOLUTE
    _printf_charcount                        0x00000000   Number         0  stubs.o ABSOLUTE
    _printf_d                                0x00000000   Number         0  stubs.o ABSOLUTE
    _printf_e                                0x00000000   Number         0  stubs.o ABSOLUTE
    _printf_f                                0x00000000   Number         0  stubs.o ABSOLUTE
    _printf_flags                            0x00000000   Number         0  stubs.o ABSOLUTE
    _printf_fp_dec                           0x00000000   Number         0  stubs.o ABSOLUTE
    _printf_fp_hex                           0x00000000   Number         0  stubs.o ABSOLUTE
    _printf_g                                0x00000000   Number         0  stubs.o ABSOLUTE
    _printf_i                                0x00000000   Number         0  stubs.o ABSOLUTE
    _printf_int_dec                          0x00000000   Number         0  stubs.o ABSOLUTE
    _printf_l                                0x00000000   Number         0  stubs.o ABSOLUTE
    _printf_lc                               0x00000000   Number         0  stubs.o ABSOLUTE
    _printf_ll                               0x00000000   Number         0  stubs.o ABSOLUTE
    _printf_lld                              0x00000000   Number         0  stubs.o ABSOLUTE
    _printf_lli                              0x00000000   Number         0  stubs.o ABSOLUTE
    _printf_llo                              0x00000000   Number         0  stubs.o ABSOLUTE
    _printf_llu                              0x00000000   Number         0  stubs.o ABSOLUTE
    _printf_llx                              0x00000000   Number         0  stubs.o ABSOLUTE
    _printf_longlong_dec                     0x00000000   Number         0  stubs.o ABSOLUTE
    _printf_longlong_hex                     0x00000000   Number         0  stubs.o ABSOLUTE
    _printf_longlong_oct                     0x00000000   Number         0  stubs.o ABSOLUTE
    _printf_ls                               0x00000000   Number         0  stubs.o ABSOLUTE
    _printf_mbtowc                           0x00000000   Number         0  stubs.o ABSOLUTE
    _printf_n                                0x00000000   Number         0  stubs.o ABSOLUTE
    _printf_o                                0x00000000   Number         0  stubs.o ABSOLUTE
    _printf_p                                0x00000000   Number         0  stubs.o ABSOLUTE
    _printf_percent                          0x00000000   Number         0  stubs.o ABSOLUTE
    _printf_pre_padding                      0x00000000   Number         0  stubs.o ABSOLUTE
    _printf_return_value                     0x00000000   Number         0  stubs.o ABSOLUTE
    _printf_s                                0x00000000   Number         0  stubs.o ABSOLUTE
    _printf_sizespec                         0x00000000   Number         0  stubs.o ABSOLUTE
    _printf_str                              0x00000000   Number         0  stubs.o ABSOLUTE
    _printf_truncate_signed                  0x00000000   Number         0  stubs.o ABSOLUTE
    _printf_truncate_unsigned                0x00000000   Number         0  stubs.o ABSOLUTE
    _printf_u                                0x00000000   Number         0  stubs.o ABSOLUTE
    _printf_wc                               0x00000000   Number         0  stubs.o ABSOLUTE
    _printf_wctomb                           0x00000000   Number         0  stubs.o ABSOLUTE
    _printf_widthprec                        0x00000000   Number         0  stubs.o ABSOLUTE
    _printf_x                                0x00000000   Number         0  stubs.o ABSOLUTE
    __cpp_initialize__aeabi_                  - Undefined Weak Reference
    __cxa_finalize                            - Undefined Weak Reference
    __decompress                              - Undefined Weak Reference
    _clock_init                               - Undefined Weak Reference
    _microlib_exit                            - Undefined Weak Reference
    __Vectors_Size                           0x00000130   Number         0  startup_gd32f10x_xd.o ABSOLUTE
    __Vectors                                0x08000000   Data           4  startup_gd32f10x_xd.o(RESET)
    __Vectors_End                            0x08000130   Data           0  startup_gd32f10x_xd.o(RESET)
    __main                                   0x08000131   Thumb Code     0  entry.o(.ARM.Collect$$$$00000000)
    _main_stk                                0x08000131   Thumb Code     0  entry2.o(.ARM.Collect$$$$00000001)
    _main_scatterload                        0x08000135   Thumb Code     0  entry5.o(.ARM.Collect$$$$00000004)
    __main_after_scatterload                 0x08000139   Thumb Code     0  entry5.o(.ARM.Collect$$$$00000004)
    _main_clock                              0x08000139   Thumb Code     0  entry7b.o(.ARM.Collect$$$$00000008)
    _main_cpp_init                           0x08000139   Thumb Code     0  entry8b.o(.ARM.Collect$$$$0000000A)
    _main_init                               0x08000139   Thumb Code     0  entry9a.o(.ARM.Collect$$$$0000000B)
    __rt_final_cpp                           0x08000141   Thumb Code     0  entry10a.o(.ARM.Collect$$$$0000000D)
    __rt_final_exit                          0x08000141   Thumb Code     0  entry11a.o(.ARM.Collect$$$$0000000F)
    Reset_Handler                            0x08000145   Thumb Code     8  startup_gd32f10x_xd.o(.text)
    SysTick_Handler                          0x0800015d   Thumb Code     2  startup_gd32f10x_xd.o(.text)
    ADC0_1_IRQHandler                        0x0800015f   Thumb Code     0  startup_gd32f10x_xd.o(.text)
    ADC2_IRQHandler                          0x0800015f   Thumb Code     0  startup_gd32f10x_xd.o(.text)
    CAN0_EWMC_IRQHandler                     0x0800015f   Thumb Code     0  startup_gd32f10x_xd.o(.text)
    CAN0_RX1_IRQHandler                      0x0800015f   Thumb Code     0  startup_gd32f10x_xd.o(.text)
    DMA0_Channel0_IRQHandler                 0x0800015f   Thumb Code     0  startup_gd32f10x_xd.o(.text)
    DMA0_Channel1_IRQHandler                 0x0800015f   Thumb Code     0  startup_gd32f10x_xd.o(.text)
    DMA0_Channel2_IRQHandler                 0x0800015f   Thumb Code     0  startup_gd32f10x_xd.o(.text)
    DMA0_Channel3_IRQHandler                 0x0800015f   Thumb Code     0  startup_gd32f10x_xd.o(.text)
    DMA0_Channel4_IRQHandler                 0x0800015f   Thumb Code     0  startup_gd32f10x_xd.o(.text)
    DMA0_Channel5_IRQHandler                 0x0800015f   Thumb Code     0  startup_gd32f10x_xd.o(.text)
    DMA0_Channel6_IRQHandler                 0x0800015f   Thumb Code     0  startup_gd32f10x_xd.o(.text)
    DMA1_Channel0_IRQHandler                 0x0800015f   Thumb Code     0  startup_gd32f10x_xd.o(.text)
    DMA1_Channel1_IRQHandler                 0x0800015f   Thumb Code     0  startup_gd32f10x_xd.o(.text)
    DMA1_Channel2_IRQHandler                 0x0800015f   Thumb Code     0  startup_gd32f10x_xd.o(.text)
    DMA1_Channel3_4_IRQHandler               0x0800015f   Thumb Code     0  startup_gd32f10x_xd.o(.text)
    EXMC_IRQHandler                          0x0800015f   Thumb Code     0  startup_gd32f10x_xd.o(.text)
    EXTI0_IRQHandler                         0x0800015f   Thumb Code     0  startup_gd32f10x_xd.o(.text)
    EXTI10_15_IRQHandler                     0x0800015f   Thumb Code     0  startup_gd32f10x_xd.o(.text)
    EXTI1_IRQHandler                         0x0800015f   Thumb Code     0  startup_gd32f10x_xd.o(.text)
    EXTI2_IRQHandler                         0x0800015f   Thumb Code     0  startup_gd32f10x_xd.o(.text)
    EXTI3_IRQHandler                         0x0800015f   Thumb Code     0  startup_gd32f10x_xd.o(.text)
    EXTI4_IRQHandler                         0x0800015f   Thumb Code     0  startup_gd32f10x_xd.o(.text)
    EXTI5_9_IRQHandler                       0x0800015f   Thumb Code     0  startup_gd32f10x_xd.o(.text)
    FMC_IRQHandler                           0x0800015f   Thumb Code     0  startup_gd32f10x_xd.o(.text)
    I2C0_ER_IRQHandler                       0x0800015f   Thumb Code     0  startup_gd32f10x_xd.o(.text)
    I2C0_EV_IRQHandler                       0x0800015f   Thumb Code     0  startup_gd32f10x_xd.o(.text)
    I2C1_ER_IRQHandler                       0x0800015f   Thumb Code     0  startup_gd32f10x_xd.o(.text)
    I2C1_EV_IRQHandler                       0x0800015f   Thumb Code     0  startup_gd32f10x_xd.o(.text)
    LVD_IRQHandler                           0x0800015f   Thumb Code     0  startup_gd32f10x_xd.o(.text)
    RCU_IRQHandler                           0x0800015f   Thumb Code     0  startup_gd32f10x_xd.o(.text)
    RTC_Alarm_IRQHandler                     0x0800015f   Thumb Code     0  startup_gd32f10x_xd.o(.text)
    RTC_IRQHandler                           0x0800015f   Thumb Code     0  startup_gd32f10x_xd.o(.text)
    SDIO_IRQHandler                          0x0800015f   Thumb Code     0  startup_gd32f10x_xd.o(.text)
    SPI0_IRQHandler                          0x0800015f   Thumb Code     0  startup_gd32f10x_xd.o(.text)
    SPI1_IRQHandler                          0x0800015f   Thumb Code     0  startup_gd32f10x_xd.o(.text)
    SPI2_IRQHandler                          0x0800015f   Thumb Code     0  startup_gd32f10x_xd.o(.text)
    TAMPER_IRQHandler                        0x0800015f   Thumb Code     0  startup_gd32f10x_xd.o(.text)
    TIMER0_BRK_TIMER8_IRQHandler             0x0800015f   Thumb Code     0  startup_gd32f10x_xd.o(.text)
    TIMER0_Channel_IRQHandler                0x0800015f   Thumb Code     0  startup_gd32f10x_xd.o(.text)
    TIMER0_TRG_CMT_TIMER10_IRQHandler        0x0800015f   Thumb Code     0  startup_gd32f10x_xd.o(.text)
    TIMER0_UP_TIMER9_IRQHandler              0x0800015f   Thumb Code     0  startup_gd32f10x_xd.o(.text)
    TIMER1_IRQHandler                        0x0800015f   Thumb Code     0  startup_gd32f10x_xd.o(.text)
    TIMER2_IRQHandler                        0x0800015f   Thumb Code     0  startup_gd32f10x_xd.o(.text)
    TIMER3_IRQHandler                        0x0800015f   Thumb Code     0  startup_gd32f10x_xd.o(.text)
    TIMER4_IRQHandler                        0x0800015f   Thumb Code     0  startup_gd32f10x_xd.o(.text)
    TIMER5_IRQHandler                        0x0800015f   Thumb Code     0  startup_gd32f10x_xd.o(.text)
    TIMER6_IRQHandler                        0x0800015f   Thumb Code     0  startup_gd32f10x_xd.o(.text)
    TIMER7_BRK_TIMER11_IRQHandler            0x0800015f   Thumb Code     0  startup_gd32f10x_xd.o(.text)
    TIMER7_Channel_IRQHandler                0x0800015f   Thumb Code     0  startup_gd32f10x_xd.o(.text)
    TIMER7_TRG_CMT_TIMER13_IRQHandler        0x0800015f   Thumb Code     0  startup_gd32f10x_xd.o(.text)
    TIMER7_UP_TIMER12_IRQHandler             0x0800015f   Thumb Code     0  startup_gd32f10x_xd.o(.text)
    UART3_IRQHandler                         0x0800015f   Thumb Code     0  startup_gd32f10x_xd.o(.text)
    UART4_IRQHandler                         0x0800015f   Thumb Code     0  startup_gd32f10x_xd.o(.text)
    USART0_IRQHandler                        0x0800015f   Thumb Code     0  startup_gd32f10x_xd.o(.text)
    USART1_IRQHandler                        0x0800015f   Thumb Code     0  startup_gd32f10x_xd.o(.text)
    USART2_IRQHandler                        0x0800015f   Thumb Code     0  startup_gd32f10x_xd.o(.text)
    USBD_HP_CAN0_TX_IRQHandler               0x0800015f   Thumb Code     0  startup_gd32f10x_xd.o(.text)
    USBD_LP_CAN0_RX0_IRQHandler              0x0800015f   Thumb Code     0  startup_gd32f10x_xd.o(.text)
    USBD_WKUP_IRQHandler                     0x0800015f   Thumb Code     0  startup_gd32f10x_xd.o(.text)
    WWDGT_IRQHandler                         0x0800015f   Thumb Code     0  startup_gd32f10x_xd.o(.text)
    __aeabi_uldivmod                         0x08000169   Thumb Code    98  uldiv.o(.text)
    __aeabi_llsl                             0x080001cb   Thumb Code    30  llshl.o(.text)
    _ll_shift_l                              0x080001cb   Thumb Code     0  llshl.o(.text)
    __aeabi_lasr                             0x080001e9   Thumb Code    36  llsshr.o(.text)
    _ll_sshift_r                             0x080001e9   Thumb Code     0  llsshr.o(.text)
    __aeabi_fadd                             0x0800020d   Thumb Code   164  fadd.o(.text)
    __aeabi_fsub                             0x080002b1   Thumb Code     6  fadd.o(.text)
    __aeabi_frsub                            0x080002b7   Thumb Code     6  fadd.o(.text)
    __aeabi_fmul                             0x080002bd   Thumb Code   100  fmul.o(.text)
    __aeabi_dadd                             0x08000321   Thumb Code   322  dadd.o(.text)
    __aeabi_dsub                             0x08000463   Thumb Code     6  dadd.o(.text)
    __aeabi_drsub                            0x08000469   Thumb Code     6  dadd.o(.text)
    __aeabi_dmul                             0x0800046f   Thumb Code   228  dmul.o(.text)
    __aeabi_ddiv                             0x08000553   Thumb Code   222  ddiv.o(.text)
    __aeabi_ui2d                             0x08000631   Thumb Code    26  dfltui.o(.text)
    __aeabi_f2uiz                            0x0800064b   Thumb Code    40  ffixui.o(.text)
    __aeabi_f2d                              0x08000673   Thumb Code    38  f2d.o(.text)
    __aeabi_d2f                              0x08000699   Thumb Code    56  d2f.o(.text)
    __aeabi_cfrcmple                         0x080006d1   Thumb Code    20  cfrcmple.o(.text)
    __aeabi_uidiv                            0x080006e5   Thumb Code     0  uidiv.o(.text)
    __aeabi_uidivmod                         0x080006e5   Thumb Code    44  uidiv.o(.text)
    __aeabi_llsr                             0x08000711   Thumb Code    32  llushr.o(.text)
    _ll_ushift_r                             0x08000711   Thumb Code     0  llushr.o(.text)
    __I$use$fp                               0x08000731   Thumb Code     0  iusefp.o(.text)
    _float_round                             0x08000731   Thumb Code    18  fepilogue.o(.text)
    _float_epilogue                          0x08000743   Thumb Code    92  fepilogue.o(.text)
    _double_round                            0x0800079f   Thumb Code    30  depilogue.o(.text)
    _double_epilogue                         0x080007bd   Thumb Code   156  depilogue.o(.text)
    __aeabi_d2ulz                            0x08000859   Thumb Code    48  dfixul.o(.text)
    __aeabi_cdrcmple                         0x08000889   Thumb Code    48  cdrcmple.o(.text)
    __scatterload                            0x080008b9   Thumb Code    28  init.o(.text)
    __scatterload_rt2                        0x080008b9   Thumb Code     0  init.o(.text)
    BusFault_Handler                         0x080008dd   Thumb Code     4  gd32f10x_it.o(i.BusFault_Handler)
    DebugMon_Handler                         0x080008e1   Thumb Code     2  gd32f10x_it.o(i.DebugMon_Handler)
    HardFault_Handler                        0x080008e3   Thumb Code     4  gd32f10x_it.o(i.HardFault_Handler)
    MemManage_Handler                        0x080008e7   Thumb Code     4  gd32f10x_it.o(i.MemManage_Handler)
    NMI_Handler                              0x080008eb   Thumb Code     2  gd32f10x_it.o(i.NMI_Handler)
    PendSV_Handler                           0x080008ed   Thumb Code     2  gd32f10x_it.o(i.PendSV_Handler)
    SVC_Handler                              0x080008ef   Thumb Code     2  gd32f10x_it.o(i.SVC_Handler)
    SystemInit                               0x080008f1   Thumb Code   196  system_gd32f10x.o(i.SystemInit)
    UsageFault_Handler                       0x080009c5   Thumb Code     4  gd32f10x_it.o(i.UsageFault_Handler)
    __0printf                                0x080009c9   Thumb Code    22  printfa.o(i.__0printf)
    __1printf                                0x080009c9   Thumb Code     0  printfa.o(i.__0printf)
    __2printf                                0x080009c9   Thumb Code     0  printfa.o(i.__0printf)
    __c89printf                              0x080009c9   Thumb Code     0  printfa.o(i.__0printf)
    printf                                   0x080009c9   Thumb Code     0  printfa.o(i.__0printf)
    __scatterload_copy                       0x080009e9   Thumb Code    14  handlers.o(i.__scatterload_copy)
    __scatterload_null                       0x080009f7   Thumb Code     2  handlers.o(i.__scatterload_null)
    __scatterload_zeroinit                   0x080009f9   Thumb Code    14  handlers.o(i.__scatterload_zeroinit)
    ad_da_init                               0x080012bd   Thumb Code   192  dsp_test.o(i.ad_da_init)
    adc_calibration_enable                   0x0800138d   Thumb Code    42  gd32f10x_adc.o(i.adc_calibration_enable)
    adc_channel_length_config                0x080013b7   Thumb Code    70  gd32f10x_adc.o(i.adc_channel_length_config)
    adc_data_alignment_config                0x080013fd   Thumb Code    22  gd32f10x_adc.o(i.adc_data_alignment_config)
    adc_enable                               0x08001413   Thumb Code    18  gd32f10x_adc.o(i.adc_enable)
    adc_external_trigger_config              0x08001425   Thumb Code    62  gd32f10x_adc.o(i.adc_external_trigger_config)
    adc_flag_clear                           0x08001463   Thumb Code     8  gd32f10x_adc.o(i.adc_flag_clear)
    adc_flag_get                             0x0800146b   Thumb Code    14  gd32f10x_adc.o(i.adc_flag_get)
    adc_regular_channel_config               0x08001479   Thumb Code   172  gd32f10x_adc.o(i.adc_regular_channel_config)
    adc_regular_data_read                    0x08001525   Thumb Code     8  gd32f10x_adc.o(i.adc_regular_data_read)
    adc_software_trigger_enable              0x0800152d   Thumb Code    30  gd32f10x_adc.o(i.adc_software_trigger_enable)
    adc_special_function_config              0x0800154b   Thumb Code    90  gd32f10x_adc.o(i.adc_special_function_config)
    arm_pid_init_f32                         0x080015a5   Thumb Code    72  controllerfunctions.o(i.arm_pid_init_f32)
    dac_data_set                             0x080015ed   Thumb Code    82  gd32f10x_dac.o(i.dac_data_set)
    dac_enable                               0x08001645   Thumb Code    30  gd32f10x_dac.o(i.dac_enable)
    dac_output_buffer_enable                 0x08001669   Thumb Code    30  gd32f10x_dac.o(i.dac_output_buffer_enable)
    dac_software_trigger_enable              0x0800168d   Thumb Code    30  gd32f10x_dac.o(i.dac_software_trigger_enable)
    dac_trigger_enable                       0x080016b1   Thumb Code    30  gd32f10x_dac.o(i.dac_trigger_enable)
    dac_trigger_source_config                0x080016d5   Thumb Code    48  gd32f10x_dac.o(i.dac_trigger_source_config)
    dac_wave_mode_config                     0x08001709   Thumb Code    48  gd32f10x_dac.o(i.dac_wave_mode_config)
    delay_ms                                 0x0800173d   Thumb Code    42  systick.o(i.delay_ms)
    dsp_test                                 0x080017b9   Thumb Code   242  dsp_test.o(i.dsp_test)
    fputc                                    0x080018d5   Thumb Code    32  print.o(i.fputc)
    get_mem_infor                            0x080018f9   Thumb Code    14  bitband.o(i.get_mem_infor)
    get_uid                                  0x0800190d   Thumb Code    24  bitband.o(i.get_uid)
    gpio_init                                0x08001929   Thumb Code   172  gd32f10x_gpio.o(i.gpio_init)
    led_init                                 0x080019d5   Thumb Code    92  led.o(i.led_init)
    main                                     0x08001a3d   Thumb Code    78  main.o(i.main)
    nvic_vector_table_set                    0x08001ae9   Thumb Code    16  gd32f10x_misc.o(i.nvic_vector_table_set)
    print_config                             0x08001b01   Thumb Code   120  print.o(i.print_config)
    rcu_adc_clock_config                     0x08001b81   Thumb Code    64  gd32f10x_rcu.o(i.rcu_adc_clock_config)
    rcu_clock_freq_get                       0x08001bc9   Thumb Code   264  gd32f10x_rcu.o(i.rcu_clock_freq_get)
    rcu_periph_clock_enable                  0x08001ced   Thumb Code    28  gd32f10x_rcu.o(i.rcu_periph_clock_enable)
    systick_clksource_set                    0x08001dd1   Thumb Code    40  gd32f10x_misc.o(i.systick_clksource_set)
    systick_set                              0x08001df9   Thumb Code    26  systick.o(i.systick_set)
    usart_baudrate_set                       0x08001e1d   Thumb Code   136  gd32f10x_usart.o(i.usart_baudrate_set)
    usart_data_transmit                      0x08001ead   Thumb Code     8  gd32f10x_usart.o(i.usart_data_transmit)
    usart_enable                             0x08001eb5   Thumb Code    10  gd32f10x_usart.o(i.usart_enable)
    usart_flag_get                           0x08001ebf   Thumb Code    30  gd32f10x_usart.o(i.usart_flag_get)
    usart_hardware_flow_cts_config           0x08001edd   Thumb Code    16  gd32f10x_usart.o(i.usart_hardware_flow_cts_config)
    usart_hardware_flow_rts_config           0x08001eed   Thumb Code    16  gd32f10x_usart.o(i.usart_hardware_flow_rts_config)
    usart_parity_config                      0x08001efd   Thumb Code    16  gd32f10x_usart.o(i.usart_parity_config)
    usart_receive_config                     0x08001f0d   Thumb Code    16  gd32f10x_usart.o(i.usart_receive_config)
    usart_stop_bit_set                       0x08001f1d   Thumb Code    16  gd32f10x_usart.o(i.usart_stop_bit_set)
    usart_transmit_config                    0x08001f2d   Thumb Code    16  gd32f10x_usart.o(i.usart_transmit_config)
    usart_word_length_set                    0x08001f3d   Thumb Code    16  gd32f10x_usart.o(i.usart_word_length_set)
    Region$$Table$$Base                      0x08001f4c   Number         0  anon$$obj.o(Region$$Table)
    Region$$Table$$Limit                     0x08001f6c   Number         0  anon$$obj.o(Region$$Table)
    mem_infor                                0x20000000   Data           4  main.o(.data)
    fac_us                                   0x20000004   Data           1  systick.o(.data)
    fac_ms                                   0x20000008   Data           4  systick.o(.data)
    ref                                      0x2000000c   Data           4  dsp_test.o(.data)
    adc_get                                  0x20000010   Data           4  dsp_test.o(.data)
    __stdout                                 0x20000014   Data           4  stdout.o(.data)
    uid                                      0x20000018   Data          12  main.o(.bss)
    S                                        0x20000024   Data          36  dsp_test.o(.bss)
    __initial_sp                             0x20000448   Data           0  startup_gd32f10x_xd.o(STACK)



==============================================================================

Memory Map of the image

  Image Entry point : 0x08000131

  Load Region LR_IROM1 (Base: 0x08000000, Size: 0x00001f84, Max: 0x00300000, ABSOLUTE)

    Execution Region ER_IROM1 (Exec base: 0x08000000, Load base: 0x08000000, Size: 0x00001f6c, Max: 0x00300000, ABSOLUTE)

    Exec Addr    Load Addr    Size         Type   Attr      Idx    E Section Name        Object

    0x08000000   0x08000000   0x00000130   Data   RO          359    RESET               startup_gd32f10x_xd.o
    0x08000130   0x08000130   0x00000000   Code   RO         7995  * .ARM.Collect$$$$00000000  mc_w.l(entry.o)
    0x08000130   0x08000130   0x00000004   Code   RO         8340    .ARM.Collect$$$$00000001  mc_w.l(entry2.o)
    0x08000134   0x08000134   0x00000004   Code   RO         8343    .ARM.Collect$$$$00000004  mc_w.l(entry5.o)
    0x08000138   0x08000138   0x00000000   Code   RO         8345    .ARM.Collect$$$$00000008  mc_w.l(entry7b.o)
    0x08000138   0x08000138   0x00000000   Code   RO         8347    .ARM.Collect$$$$0000000A  mc_w.l(entry8b.o)
    0x08000138   0x08000138   0x00000008   Code   RO         8348    .ARM.Collect$$$$0000000B  mc_w.l(entry9a.o)
    0x08000140   0x08000140   0x00000000   Code   RO         8350    .ARM.Collect$$$$0000000D  mc_w.l(entry10a.o)
    0x08000140   0x08000140   0x00000000   Code   RO         8352    .ARM.Collect$$$$0000000F  mc_w.l(entry11a.o)
    0x08000140   0x08000140   0x00000004   Code   RO         8341    .ARM.Collect$$$$00002712  mc_w.l(entry2.o)
    0x08000144   0x08000144   0x00000024   Code   RO          360    .text               startup_gd32f10x_xd.o
    0x08000168   0x08000168   0x00000062   Code   RO         7998    .text               mc_w.l(uldiv.o)
    0x080001ca   0x080001ca   0x0000001e   Code   RO         8002    .text               mc_w.l(llshl.o)
    0x080001e8   0x080001e8   0x00000024   Code   RO         8004    .text               mc_w.l(llsshr.o)
    0x0800020c   0x0800020c   0x000000b0   Code   RO         8273    .text               mf_w.l(fadd.o)
    0x080002bc   0x080002bc   0x00000064   Code   RO         8275    .text               mf_w.l(fmul.o)
    0x08000320   0x08000320   0x0000014e   Code   RO         8279    .text               mf_w.l(dadd.o)
    0x0800046e   0x0800046e   0x000000e4   Code   RO         8281    .text               mf_w.l(dmul.o)
    0x08000552   0x08000552   0x000000de   Code   RO         8283    .text               mf_w.l(ddiv.o)
    0x08000630   0x08000630   0x0000001a   Code   RO         8289    .text               mf_w.l(dfltui.o)
    0x0800064a   0x0800064a   0x00000028   Code   RO         8293    .text               mf_w.l(ffixui.o)
    0x08000672   0x08000672   0x00000026   Code   RO         8297    .text               mf_w.l(f2d.o)
    0x08000698   0x08000698   0x00000038   Code   RO         8301    .text               mf_w.l(d2f.o)
    0x080006d0   0x080006d0   0x00000014   Code   RO         8305    .text               mf_w.l(cfrcmple.o)
    0x080006e4   0x080006e4   0x0000002c   Code   RO         8355    .text               mc_w.l(uidiv.o)
    0x08000710   0x08000710   0x00000020   Code   RO         8357    .text               mc_w.l(llushr.o)
    0x08000730   0x08000730   0x00000000   Code   RO         8366    .text               mc_w.l(iusefp.o)
    0x08000730   0x08000730   0x0000006e   Code   RO         8367    .text               mf_w.l(fepilogue.o)
    0x0800079e   0x0800079e   0x000000ba   Code   RO         8375    .text               mf_w.l(depilogue.o)
    0x08000858   0x08000858   0x00000030   Code   RO         8381    .text               mf_w.l(dfixul.o)
    0x08000888   0x08000888   0x00000030   Code   RO         8385    .text               mf_w.l(cdrcmple.o)
    0x080008b8   0x080008b8   0x00000024   Code   RO         8389    .text               mc_w.l(init.o)
    0x080008dc   0x080008dc   0x00000004   Code   RO            4    i.BusFault_Handler  gd32f10x_it.o
    0x080008e0   0x080008e0   0x00000002   Code   RO            5    i.DebugMon_Handler  gd32f10x_it.o
    0x080008e2   0x080008e2   0x00000004   Code   RO            6    i.HardFault_Handler  gd32f10x_it.o
    0x080008e6   0x080008e6   0x00000004   Code   RO            7    i.MemManage_Handler  gd32f10x_it.o
    0x080008ea   0x080008ea   0x00000002   Code   RO            8    i.NMI_Handler       gd32f10x_it.o
    0x080008ec   0x080008ec   0x00000002   Code   RO            9    i.PendSV_Handler    gd32f10x_it.o
    0x080008ee   0x080008ee   0x00000002   Code   RO           10    i.SVC_Handler       gd32f10x_it.o
    0x080008f0   0x080008f0   0x000000d4   Code   RO          320    i.SystemInit        system_gd32f10x.o
    0x080009c4   0x080009c4   0x00000004   Code   RO           11    i.UsageFault_Handler  gd32f10x_it.o
    0x080009c8   0x080009c8   0x00000020   Code   RO         8245    i.__0printf         mc_w.l(printfa.o)
    0x080009e8   0x080009e8   0x0000000e   Code   RO         8393    i.__scatterload_copy  mc_w.l(handlers.o)
    0x080009f6   0x080009f6   0x00000002   Code   RO         8394    i.__scatterload_null  mc_w.l(handlers.o)
    0x080009f8   0x080009f8   0x0000000e   Code   RO         8395    i.__scatterload_zeroinit  mc_w.l(handlers.o)
    0x08000a06   0x08000a06   0x00000002   PAD
    0x08000a08   0x08000a08   0x00000184   Code   RO         8252    i._fp_digits        mc_w.l(printfa.o)
    0x08000b8c   0x08000b8c   0x000006dc   Code   RO         8253    i._printf_core      mc_w.l(printfa.o)
    0x08001268   0x08001268   0x00000024   Code   RO         8254    i._printf_post_padding  mc_w.l(printfa.o)
    0x0800128c   0x0800128c   0x0000002e   Code   RO         8255    i._printf_pre_padding  mc_w.l(printfa.o)
    0x080012ba   0x080012ba   0x00000002   PAD
    0x080012bc   0x080012bc   0x000000d0   Code   RO         4187    i.ad_da_init        dsp_test.o
    0x0800138c   0x0800138c   0x0000002a   Code   RO          367    i.adc_calibration_enable  gd32f10x_adc.o
    0x080013b6   0x080013b6   0x00000046   Code   RO          368    i.adc_channel_length_config  gd32f10x_adc.o
    0x080013fc   0x080013fc   0x00000016   Code   RO          369    i.adc_data_alignment_config  gd32f10x_adc.o
    0x08001412   0x08001412   0x00000012   Code   RO          375    i.adc_enable        gd32f10x_adc.o
    0x08001424   0x08001424   0x0000003e   Code   RO          376    i.adc_external_trigger_config  gd32f10x_adc.o
    0x08001462   0x08001462   0x00000008   Code   RO          378    i.adc_flag_clear    gd32f10x_adc.o
    0x0800146a   0x0800146a   0x0000000e   Code   RO          379    i.adc_flag_get      gd32f10x_adc.o
    0x08001478   0x08001478   0x000000ac   Code   RO          389    i.adc_regular_channel_config  gd32f10x_adc.o
    0x08001524   0x08001524   0x00000008   Code   RO          390    i.adc_regular_data_read  gd32f10x_adc.o
    0x0800152c   0x0800152c   0x0000001e   Code   RO          392    i.adc_software_trigger_enable  gd32f10x_adc.o
    0x0800154a   0x0800154a   0x0000005a   Code   RO          393    i.adc_special_function_config  gd32f10x_adc.o
    0x080015a4   0x080015a4   0x00000048   Code   RO         4940    i.arm_pid_init_f32  controllerfunctions.o
    0x080015ec   0x080015ec   0x00000058   Code   RO          976    i.dac_data_set      gd32f10x_dac.o
    0x08001644   0x08001644   0x00000024   Code   RO          981    i.dac_enable        gd32f10x_dac.o
    0x08001668   0x08001668   0x00000024   Code   RO          984    i.dac_output_buffer_enable  gd32f10x_dac.o
    0x0800168c   0x0800168c   0x00000024   Code   RO          987    i.dac_software_trigger_enable  gd32f10x_dac.o
    0x080016b0   0x080016b0   0x00000024   Code   RO          990    i.dac_trigger_enable  gd32f10x_dac.o
    0x080016d4   0x080016d4   0x00000034   Code   RO          991    i.dac_trigger_source_config  gd32f10x_dac.o
    0x08001708   0x08001708   0x00000034   Code   RO          993    i.dac_wave_mode_config  gd32f10x_dac.o
    0x0800173c   0x0800173c   0x0000002a   Code   RO         4089    i.delay_ms          systick.o
    0x08001766   0x08001766   0x00000002   PAD
    0x08001768   0x08001768   0x00000050   Code   RO         4090    i.delay_nms         systick.o
    0x080017b8   0x080017b8   0x0000011c   Code   RO         4188    i.dsp_test          dsp_test.o
    0x080018d4   0x080018d4   0x00000024   Code   RO         4154    i.fputc             print.o
    0x080018f8   0x080018f8   0x00000014   Code   RO         4059    i.get_mem_infor     bitband.o
    0x0800190c   0x0800190c   0x0000001c   Code   RO         4060    i.get_uid           bitband.o
    0x08001928   0x08001928   0x000000ac   Code   RO         1949    i.gpio_init         gd32f10x_gpio.o
    0x080019d4   0x080019d4   0x00000068   Code   RO         4017    i.led_init          led.o
    0x08001a3c   0x08001a3c   0x000000ac   Code   RO          174    i.main              main.o
    0x08001ae8   0x08001ae8   0x00000018   Code   RO         2267    i.nvic_vector_table_set  gd32f10x_misc.o
    0x08001b00   0x08001b00   0x00000080   Code   RO         4155    i.print_config      print.o
    0x08001b80   0x08001b80   0x00000048   Code   RO         2415    i.rcu_adc_clock_config  gd32f10x_rcu.o
    0x08001bc8   0x08001bc8   0x00000124   Code   RO         2423    i.rcu_clock_freq_get  gd32f10x_rcu.o
    0x08001cec   0x08001cec   0x00000020   Code   RO         2440    i.rcu_periph_clock_enable  gd32f10x_rcu.o
    0x08001d0c   0x08001d0c   0x000000bc   Code   RO          321    i.system_clock_96m_hxtal  system_gd32f10x.o
    0x08001dc8   0x08001dc8   0x00000008   Code   RO          322    i.system_clock_config  system_gd32f10x.o
    0x08001dd0   0x08001dd0   0x00000028   Code   RO         2270    i.systick_clksource_set  gd32f10x_misc.o
    0x08001df8   0x08001df8   0x00000024   Code   RO         4095    i.systick_set       systick.o
    0x08001e1c   0x08001e1c   0x00000090   Code   RO         3682    i.usart_baudrate_set  gd32f10x_usart.o
    0x08001eac   0x08001eac   0x00000008   Code   RO         3684    i.usart_data_transmit  gd32f10x_usart.o
    0x08001eb4   0x08001eb4   0x0000000a   Code   RO         3689    i.usart_enable      gd32f10x_usart.o
    0x08001ebe   0x08001ebe   0x0000001e   Code   RO         3691    i.usart_flag_get    gd32f10x_usart.o
    0x08001edc   0x08001edc   0x00000010   Code   RO         3695    i.usart_hardware_flow_cts_config  gd32f10x_usart.o
    0x08001eec   0x08001eec   0x00000010   Code   RO         3696    i.usart_hardware_flow_rts_config  gd32f10x_usart.o
    0x08001efc   0x08001efc   0x00000010   Code   RO         3710    i.usart_parity_config  gd32f10x_usart.o
    0x08001f0c   0x08001f0c   0x00000010   Code   RO         3712    i.usart_receive_config  gd32f10x_usart.o
    0x08001f1c   0x08001f1c   0x00000010   Code   RO         3718    i.usart_stop_bit_set  gd32f10x_usart.o
    0x08001f2c   0x08001f2c   0x00000010   Code   RO         3722    i.usart_transmit_config  gd32f10x_usart.o
    0x08001f3c   0x08001f3c   0x00000010   Code   RO         3723    i.usart_word_length_set  gd32f10x_usart.o
    0x08001f4c   0x08001f4c   0x00000020   Data   RO         8391    Region$$Table       anon$$obj.o


    Execution Region RW_IRAM1 (Exec base: 0x20000000, Load base: 0x08001f6c, Size: 0x00000448, Max: 0x00018000, ABSOLUTE)

    Exec Addr    Load Addr    Size         Type   Attr      Idx    E Section Name        Object

    0x20000000   0x08001f6c   0x00000004   Data   RW          176    .data               main.o
    0x20000004   0x08001f70   0x00000008   Data   RW         4096    .data               systick.o
    0x2000000c   0x08001f78   0x00000008   Data   RW         4190    .data               dsp_test.o
    0x20000014   0x08001f80   0x00000004   Data   RW         8354    .data               mc_w.l(stdout.o)
    0x20000018        -       0x0000000c   Zero   RW          175    .bss                main.o
    0x20000024        -       0x00000024   Zero   RW         4189    .bss                dsp_test.o
    0x20000048        -       0x00000400   Zero   RW          357    STACK               startup_gd32f10x_xd.o


==============================================================================

Image component sizes


      Code (inc. data)   RO Data    RW Data    ZI Data      Debug   Object Name

        48         10          0          0          0       1194   bitband.o
        72          0          0          0          0      18751   controllerfunctions.o
       492         58          0          8         36      19572   dsp_test.o
       536          0          0          0          0      10517   gd32f10x_adc.o
       336         38          0          0          0       3593   gd32f10x_dac.o
       172          0          0          0          0        796   gd32f10x_gpio.o
        24          0          0          0          0      26924   gd32f10x_it.o
        64          8          0          0          0       1016   gd32f10x_misc.o
       396         48          0          0          0       2110   gd32f10x_rcu.o
       304          8          0          0          0       6107   gd32f10x_usart.o
       104         12          0          0          0       2247   led.o
       172         94          0          4         12       4059   main.o
       164         12          0          0          0       1043   print.o
        36          8        304          0       1024        772   startup_gd32f10x_xd.o
       408         24          0          0          0       2153   system_gd32f10x.o
       158         16          0          8          0       1749   systick.o

    ----------------------------------------------------------------------
      3488        336        336         20       1072     102603   Object Totals
         0          0         32          0          0          0   (incl. Generated)
         2          0          0          0          0          0   (incl. Padding)

    ----------------------------------------------------------------------

      Code (inc. data)   RO Data    RW Data    ZI Data      Debug   Library Member Name

         0          0          0          0          0          0   entry.o
         0          0          0          0          0          0   entry10a.o
         0          0          0          0          0          0   entry11a.o
         8          4          0          0          0          0   entry2.o
         4          0          0          0          0          0   entry5.o
         0          0          0          0          0          0   entry7b.o
         0          0          0          0          0          0   entry8b.o
         8          4          0          0          0          0   entry9a.o
        30          0          0          0          0          0   handlers.o
        36          8          0          0          0         68   init.o
         0          0          0          0          0          0   iusefp.o
        30          0          0          0          0         68   llshl.o
        36          0          0          0          0         68   llsshr.o
        32          0          0          0          0         68   llushr.o
      2258         90          0          0          0        452   printfa.o
         0          0          0          4          0          0   stdout.o
        44          0          0          0          0         80   uidiv.o
        98          0          0          0          0         92   uldiv.o
        48          0          0          0          0         68   cdrcmple.o
        20          0          0          0          0         68   cfrcmple.o
        56          0          0          0          0         88   d2f.o
       334          0          0          0          0        148   dadd.o
       222          0          0          0          0        100   ddiv.o
       186          0          0          0          0        176   depilogue.o
        48          0          0          0          0         68   dfixul.o
        26          0          0          0          0         76   dfltui.o
       228          0          0          0          0         96   dmul.o
        38          0          0          0          0         68   f2d.o
       176          0          0          0          0        140   fadd.o
       110          0          0          0          0        168   fepilogue.o
        40          0          0          0          0         68   ffixui.o
       100          0          0          0          0         76   fmul.o

    ----------------------------------------------------------------------
      4220        106          0          4          0       2304   Library Totals
         4          0          0          0          0          0   (incl. Padding)

    ----------------------------------------------------------------------

      Code (inc. data)   RO Data    RW Data    ZI Data      Debug   Library Name

      2584        106          0          4          0        896   mc_w.l
      1632          0          0          0          0       1408   mf_w.l

    ----------------------------------------------------------------------
      4220        106          0          4          0       2304   Library Totals

    ----------------------------------------------------------------------

==============================================================================


      Code (inc. data)   RO Data    RW Data    ZI Data      Debug   

      7708        442        336         24       1072     101055   Grand Totals
      7708        442        336         24       1072     101055   ELF Image Totals
      7708        442        336         24          0          0   ROM Totals

==============================================================================

    Total RO  Size (Code + RO Data)                 8044 (   7.86kB)
    Total RW  Size (RW Data + ZI Data)              1096 (   1.07kB)
    Total ROM Size (Code + RO Data + RW Data)       8068 (   7.88kB)

==============================================================================

