Component: ARM Compiler 5.06 update 6 (build 750) Tool: armlink [4d35ed]

==============================================================================

Section Cross References

    main.o(i.main) refers to systick.o(i.systick_set) for systick_set
    main.o(i.main) refers to led.o(i.led_init) for led_init
    main.o(i.main) refers to print.o(i.print_config) for print_config
    main.o(i.main) refers to bitband.o(i.get_mem_infor) for get_mem_infor
    main.o(i.main) refers to printfa.o(i.__0printf) for __2printf
    main.o(i.main) refers to bitband.o(i.get_uid) for get_uid
    main.o(i.main) refers to dsp_test.o(i.dsp_test) for dsp_test
    main.o(i.main) refers to led.o(i.led_on) for led_on
    main.o(i.main) refers to systick.o(i.delay_ms) for delay_ms
    main.o(i.main) refers to led.o(i.led_off) for led_off
    main.o(i.main) refers to main.o(.data) for mem_infor
    main.o(i.main) refers to main.o(.bss) for uid
    system_gd32f10x.o(i.SystemInit) refers to system_gd32f10x.o(i.system_clock_config) for system_clock_config
    system_gd32f10x.o(i.SystemInit) refers to gd32f10x_misc.o(i.nvic_vector_table_set) for nvic_vector_table_set
    system_gd32f10x.o(i.system_clock_config) refers to system_gd32f10x.o(i.system_clock_96m_hxtal) for system_clock_96m_hxtal
    startup_gd32f10x_xd.o(RESET) refers to startup_gd32f10x_xd.o(STACK) for __initial_sp
    startup_gd32f10x_xd.o(RESET) refers to startup_gd32f10x_xd.o(.text) for Reset_Handler
    startup_gd32f10x_xd.o(RESET) refers to gd32f10x_it.o(i.NMI_Handler) for NMI_Handler
==============================================================================

Removing Unused input sections from the image.

    Removing gd32f10x_it.o(.rev16_text), (4 bytes).
    Removing gd32f10x_it.o(.revsh_text), (4 bytes).
    Removing gd32f10x_it.o(.rrx_text), (6 bytes).
    Removing main.o(.rev16_text), (4 bytes).
    Removing main.o(.revsh_text), (4 bytes).
    Removing main.o(.rrx_text), (6 bytes).
    Removing system_gd32f10x.o(.rev16_text), (4 bytes).
    Removing system_gd32f10x.o(.revsh_text), (4 bytes).
    Removing system_gd32f10x.o(.rrx_text), (6 bytes).
    Removing system_gd32f10x.o(.data), (4 bytes).
    Removing startup_gd32f10x_xd.o(HEAP), (512 bytes).
    Removing gd32f10x_adc.o(.rev16_text), (4 bytes).
    Removing gd32f10x_adc.o(.revsh_text), (4 bytes).
    Removing gd32f10x_adc.o(.rrx_text), (6 bytes).
    Removing gd32f10x_adc.o(i.adc_calibration_enable), (42 bytes).
    Removing gd32f10x_adc.o(i.adc_channel_length_config), (70 bytes).
    Removing gd32f10x_adc.o(i.adc_data_alignment_config), (22 bytes).
    Removing gd32f10x_adc.o(i.adc_deinit), (88 bytes).
==============================================================================

Image Symbol Table

    Local Symbols

    Symbol Name                              Value     Ov Type        Size  Object(Section)

    ../clib/microlib/division.c              0x00000000   Number         0  uldiv.o ABSOLUTE
    ../clib/microlib/division.c              0x00000000   Number         0  ldiv.o ABSOLUTE
    ../clib/microlib/division.c              0x00000000   Number         0  uidiv.o ABSOLUTE
    ../clib/microlib/errno.c                 0x00000000   Number         0  errno.o ABSOLUTE
    ../clib/microlib/init/entry.s            0x00000000   Number         0  entry.o ABSOLUTE
    ../clib/microlib/init/entry.s            0x00000000   Number         0  entry10a.o ABSOLUTE
    ../clib/microlib/init/entry.s            0x00000000   Number         0  entry10b.o ABSOLUTE
    ../clib/microlib/init/entry.s            0x00000000   Number         0  entry7a.o ABSOLUTE
    ../clib/microlib/init/entry.s            0x00000000   Number         0  entry8b.o ABSOLUTE
    ../clib/microlib/init/entry.s            0x00000000   Number         0  entry11a.o ABSOLUTE
    ../clib/microlib/init/entry.s            0x00000000   Number         0  entry8a.o ABSOLUTE
    ../clib/microlib/init/entry.s            0x00000000   Number         0  entry9a.o ABSOLUTE
    ../clib/microlib/init/entry.s            0x00000000   Number         0  entry11b.o ABSOLUTE
    ../clib/microlib/init/entry.s            0x00000000   Number         0  entry7b.o ABSOLUTE
    ../clib/microlib/init/entry.s            0x00000000   Number         0  entry5.o ABSOLUTE
    ../clib/microlib/init/entry.s            0x00000000   Number         0  entry2.o ABSOLUTE
    ../clib/microlib/init/entry.s            0x00000000   Number         0  entry9b.o ABSOLUTE
    ../clib/microlib/longlong.c              0x00000000   Number         0  llshl.o ABSOLUTE
    ../clib/microlib/longlong.c              0x00000000   Number         0  llsshr.o ABSOLUTE
    ../clib/microlib/longlong.c              0x00000000   Number         0  llushr.o ABSOLUTE
    ../clib/microlib/printf/printf.c         0x00000000   Number         0  printf1.o ABSOLUTE
    ../clib/microlib/printf/printf.c         0x00000000   Number         0  printf3.o ABSOLUTE
    ../clib/microlib/printf/printf.c         0x00000000   Number         0  printf4.o ABSOLUTE
    ../clib/microlib/printf/printf.c         0x00000000   Number         0  printf5.o ABSOLUTE
    ../clib/microlib/printf/printf.c         0x00000000   Number         0  printf6.o ABSOLUTE
    ../clib/microlib/printf/printf.c         0x00000000   Number         0  printf7.o ABSOLUTE
    ../clib/microlib/printf/printf.c         0x00000000   Number         0  printf8.o ABSOLUTE
    ../clib/microlib/printf/printf.c         0x00000000   Number         0  printfa.o ABSOLUTE
    ../clib/microlib/printf/printf.c         0x00000000   Number         0  printfb.o ABSOLUTE
    ../clib/microlib/printf/printf.c         0x00000000   Number         0  printf2.o ABSOLUTE
    ../clib/microlib/printf/printf.c         0x00000000   Number         0  printf0.o ABSOLUTE
    ../clib/microlib/printf/stubs.s          0x00000000   Number         0  stubs.o ABSOLUTE
    ../clib/microlib/stdio/streams.c         0x00000000   Number         0  stdout.o ABSOLUTE
    ../clib/microlib/string/memcpy.c         0x00000000   Number         0  memcpyb.o ABSOLUTE
    ../clib/microlib/string/memcpy.c         0x00000000   Number         0  memcpya.o ABSOLUTE
    ../clib/microlib/string/memset.c         0x00000000   Number         0  memseta.o ABSOLUTE
    ../clib/microlib/stubs.s                 0x00000000   Number         0  iusefp.o ABSOLUTE
    ../fplib/microlib/d2f.c                  0x00000000   Number         0  d2f.o ABSOLUTE
    ../fplib/microlib/f2d.c                  0x00000000   Number         0  f2d.o ABSOLUTE
    ../fplib/microlib/fpadd.c                0x00000000   Number         0  dadd.o ABSOLUTE
    ../fplib/microlib/fpadd.c                0x00000000   Number         0  fadd.o ABSOLUTE
    ../fplib/microlib/fpdiv.c                0x00000000   Number         0  fdiv.o ABSOLUTE
    ../fplib/microlib/fpdiv.c                0x00000000   Number         0  ddiv.o ABSOLUTE
    ../fplib/microlib/fpepilogue.c           0x00000000   Number         0  fepilogue.o ABSOLUTE
    ../fplib/microlib/fpepilogue.c           0x00000000   Number         0  depilogue.o ABSOLUTE
    ../fplib/microlib/fpfix.c                0x00000000   Number         0  ffixi.o ABSOLUTE
    ../fplib/microlib/fpfix.c                0x00000000   Number         0  ffixir.o ABSOLUTE
    ../fplib/microlib/fpfix.c                0x00000000   Number         0  dfixul.o ABSOLUTE
    ../fplib/microlib/fpfix.c                0x00000000   Number         0  ffixui.o ABSOLUTE
    ../fplib/microlib/fpfix.c                0x00000000   Number         0  ffixl.o ABSOLUTE
    ../fplib/microlib/fpflt.c                0x00000000   Number         0  dfltui.o ABSOLUTE
    ../fplib/microlib/fpflt.c                0x00000000   Number         0  ffltui.o ABSOLUTE
    ../fplib/microlib/fpflt.c                0x00000000   Number         0  dflti.o ABSOLUTE
    ../fplib/microlib/fpflt.c                0x00000000   Number         0  fflti.o ABSOLUTE
    ../fplib/microlib/fpmul.c                0x00000000   Number         0  dmul.o ABSOLUTE
    ../fplib/microlib/fpmul.c                0x00000000   Number         0  fmul.o ABSOLUTE
    ../fplib/microlib/fprnd.c                0x00000000   Number         0  frnd.o ABSOLUTE
    ../fplib/microlib/fpscalb.c              0x00000000   Number         0  dscalb.o ABSOLUTE
    ../fplib/microlib/fpscalb.c              0x00000000   Number         0  fscalb.o ABSOLUTE
    ../fplib/microlib/fpsqrt.c               0x00000000   Number         0  fsqrt.o ABSOLUTE
    ../fplib/microlib/fpstat.c               0x00000000   Number         0  fpstat.o ABSOLUTE
    ../mathlib/dunder.c                      0x00000000   Number         0  dunder.o ABSOLUTE
    ../mathlib/expf.c                        0x00000000   Number         0  expf.o ABSOLUTE
    ../mathlib/expf.c                        0x00000000   Number         0  expf_x.o ABSOLUTE
    ../mathlib/fpclassifyf.c                 0x00000000   Number         0  fpclassifyf.o ABSOLUTE
    ../mathlib/funder.c                      0x00000000   Number         0  funder.o ABSOLUTE
    ../mathlib/log.c                         0x00000000   Number         0  log_x.o ABSOLUTE
    ../mathlib/log.c                         0x00000000   Number         0  log.o ABSOLUTE
    ../mathlib/logf.c                        0x00000000   Number         0  logf.o ABSOLUTE
    ../mathlib/logf.c                        0x00000000   Number         0  logf_x.o ABSOLUTE
    ../mathlib/poly.c                        0x00000000   Number         0  poly.o ABSOLUTE
    ../mathlib/powf.c                        0x00000000   Number         0  powf_x.o ABSOLUTE
    ../mathlib/powf.c                        0x00000000   Number         0  powf.o ABSOLUTE
    ../mathlib/qnan.c                        0x00000000   Number         0  qnan.o ABSOLUTE
    ../mathlib/sqrtf.c                       0x00000000   Number         0  sqrtf.o ABSOLUTE
    ../mathlib/sqrtf.c                       0x00000000   Number         0  sqrtf_x.o ABSOLUTE
    ../mathlib/tanhf.c                       0x00000000   Number         0  tanhf.o ABSOLUTE
    ../mathlib/tanhf.c                       0x00000000   Number         0  tanhf_x.o ABSOLUTE
    F:\Keil_MDK\pack\ARM\CMSIS\5.7.0\CMSIS\DSP\Source\BasicMathFunctions\BasicMathFunctions.c 0x00000000   Number         0  basicmathfunctions.o ABSOLUTE
    F:\Keil_MDK\pack\ARM\CMSIS\5.7.0\CMSIS\DSP\Source\BayesFunctions\BayesFunctions.c 0x00000000   Number         0  bayesfunctions.o ABSOLUTE
    F:\Keil_MDK\pack\ARM\CMSIS\5.7.0\CMSIS\DSP\Source\CommonTables\CommonTables.c 0x00000000   Number         0  commontables.o ABSOLUTE
    F:\Keil_MDK\pack\ARM\CMSIS\5.7.0\CMSIS\DSP\Source\ComplexMathFunctions\ComplexMathFunctions.c 0x00000000   Number         0  complexmathfunctions.o ABSOLUTE
    F:\Keil_MDK\pack\ARM\CMSIS\5.7.0\CMSIS\DSP\Source\ControllerFunctions\ControllerFunctions.c 0x00000000   Number         0  controllerfunctions.o ABSOLUTE
    F:\Keil_MDK\pack\ARM\CMSIS\5.7.0\CMSIS\DSP\Source\DistanceFunctions\DistanceFunctions.c 0x00000000   Number         0  distancefunctions.o ABSOLUTE
    F:\Keil_MDK\pack\ARM\CMSIS\5.7.0\CMSIS\DSP\Source\FastMathFunctions\FastMathFunctions.c 0x00000000   Number         0  fastmathfunctions.o ABSOLUTE
    F:\Keil_MDK\pack\ARM\CMSIS\5.7.0\CMSIS\DSP\Source\FilteringFunctions\FilteringFunctions.c 0x00000000   Number         0  filteringfunctions.o ABSOLUTE
    F:\Keil_MDK\pack\ARM\CMSIS\5.7.0\CMSIS\DSP\Source\MatrixFunctions\MatrixFunctions.c 0x00000000   Number         0  matrixfunctions.o ABSOLUTE
    F:\Keil_MDK\pack\ARM\CMSIS\5.7.0\CMSIS\DSP\Source\SVMFunctions\SVMFunctions.c 0x00000000   Number         0  svmfunctions.o ABSOLUTE
    F:\Keil_MDK\pack\ARM\CMSIS\5.7.0\CMSIS\DSP\Source\StatisticsFunctions\StatisticsFunctions.c 0x00000000   Number         0  statisticsfunctions.o ABSOLUTE
    F:\Keil_MDK\pack\ARM\CMSIS\5.7.0\CMSIS\DSP\Source\SupportFunctions\SupportFunctions.c 0x00000000   Number         0  supportfunctions.o ABSOLUTE
    F:\Keil_MDK\pack\ARM\CMSIS\5.7.0\CMSIS\DSP\Source\TransformFunctions\TransformFunctions.c 0x00000000   Number         0  transformfunctions.o ABSOLUTE
    F:\\Keil_MDK\\pack\\ARM\\CMSIS\\5.7.0\\CMSIS\\DSP\\Source\\BasicMathFunctions\\BasicMathFunctions.c 0x00000000   Number         0  basicmathfunctions.o ABSOLUTE
    F:\\Keil_MDK\\pack\\ARM\\CMSIS\\5.7.0\\CMSIS\\DSP\\Source\\BayesFunctions\\BayesFunctions.c 0x00000000   Number         0  bayesfunctions.o ABSOLUTE
    F:\\Keil_MDK\\pack\\ARM\\CMSIS\\5.7.0\\CMSIS\\DSP\\Source\\CommonTables\\CommonTables.c 0x00000000   Number         0  commontables.o ABSOLUTE
    F:\\Keil_MDK\\pack\\ARM\\CMSIS\\5.7.0\\CMSIS\\DSP\\Source\\ComplexMathFunctions\\ComplexMathFunctions.c 0x00000000   Number         0  complexmathfunctions.o ABSOLUTE
    F:\\Keil_MDK\\pack\\ARM\\CMSIS\\5.7.0\\CMSIS\\DSP\\Source\\ControllerFunctions\\ControllerFunctions.c 0x00000000   Number         0  controllerfunctions.o ABSOLUTE
    F:\\Keil_MDK\\pack\\ARM\\CMSIS\\5.7.0\\CMSIS\\DSP\\Source\\DistanceFunctions\\DistanceFunctions.c 0x00000000   Number         0  distancefunctions.o ABSOLUTE
    F:\\Keil_MDK\\pack\\ARM\\CMSIS\\5.7.0\\CMSIS\\DSP\\Source\\FastMathFunctions\\FastMathFunctions.c 0x00000000   Number         0  fastmathfunctions.o ABSOLUTE
    F:\\Keil_MDK\\pack\\ARM\\CMSIS\\5.7.0\\CMSIS\\DSP\\Source\\FilteringFunctions\\FilteringFunctions.c 0x00000000   Number         0  filteringfunctions.o ABSOLUTE
    F:\\Keil_MDK\\pack\\ARM\\CMSIS\\5.7.0\\CMSIS\\DSP\\Source\\MatrixFunctions\\MatrixFunctions.c 0x00000000   Number         0  matrixfunctions.o ABSOLUTE
    F:\\Keil_MDK\\pack\\ARM\\CMSIS\\5.7.0\\CMSIS\\DSP\\Source\\SVMFunctions\\SVMFunctions.c 0x00000000   Number         0  svmfunctions.o ABSOLUTE
    F:\\Keil_MDK\\pack\\ARM\\CMSIS\\5.7.0\\CMSIS\\DSP\\Source\\StatisticsFunctions\\StatisticsFunctions.c 0x00000000   Number         0  statisticsfunctions.o ABSOLUTE
    F:\\Keil_MDK\\pack\\ARM\\CMSIS\\5.7.0\\CMSIS\\DSP\\Source\\SupportFunctions\\SupportFunctions.c 0x00000000   Number         0  supportfunctions.o ABSOLUTE
    F:\\Keil_MDK\\pack\\ARM\\CMSIS\\5.7.0\\CMSIS\\DSP\\Source\\TransformFunctions\\TransformFunctions.c 0x00000000   Number         0  transformfunctions.o ABSOLUTE
    cdcmple.s                                0x00000000   Number         0  cdcmple.o ABSOLUTE
    cdrcmple.s                               0x00000000   Number         0  cdrcmple.o ABSOLUTE
    cfcmple.s                                0x00000000   Number         0  cfcmple.o ABSOLUTE
    cfrcmple.s                               0x00000000   Number         0  cfrcmple.o ABSOLUTE
    dc.s                                     0x00000000   Number         0  dc.o ABSOLUTE
    driver\\bitband.c                        0x00000000   Number         0  bitband.o ABSOLUTE
    driver\\dsp_test.c                       0x00000000   Number         0  dsp_test.o ABSOLUTE
    driver\\led.c                            0x00000000   Number         0  led.o ABSOLUTE
    driver\\print.c                          0x00000000   Number         0  print.o ABSOLUTE
    driver\\systick.c                        0x00000000   Number         0  systick.o ABSOLUTE
    driver\bitband.c                         0x00000000   Number         0  bitband.o ABSOLUTE
    driver\dsp_test.c                        0x00000000   Number         0  dsp_test.o ABSOLUTE
    driver\led.c                             0x00000000   Number         0  led.o ABSOLUTE
    driver\print.c                           0x00000000   Number         0  print.o ABSOLUTE
    driver\systick.c                         0x00000000   Number         0  systick.o ABSOLUTE
    handlers.s                               0x00000000   Number         0  handlers.o ABSOLUTE
    init.s                                   0x00000000   Number         0  init.o ABSOLUTE
    std\Source\gd32f10x_adc.c                0x00000000   Number         0  gd32f10x_adc.o ABSOLUTE
    std\Source\gd32f10x_bkp.c                0x00000000   Number         0  gd32f10x_bkp.o ABSOLUTE
    std\Source\gd32f10x_can.c                0x00000000   Number         0  gd32f10x_can.o ABSOLUTE
    std\Source\gd32f10x_crc.c                0x00000000   Number         0  gd32f10x_crc.o ABSOLUTE
    std\Source\gd32f10x_dac.c                0x00000000   Number         0  gd32f10x_dac.o ABSOLUTE
    std\Source\gd32f10x_dbg.c                0x00000000   Number         0  gd32f10x_dbg.o ABSOLUTE
    std\Source\gd32f10x_dma.c                0x00000000   Number         0  gd32f10x_dma.o ABSOLUTE
    std\Source\gd32f10x_enet.c               0x00000000   Number         0  gd32f10x_enet.o ABSOLUTE
    std\Source\gd32f10x_exmc.c               0x00000000   Number         0  gd32f10x_exmc.o ABSOLUTE
    std\Source\gd32f10x_exti.c               0x00000000   Number         0  gd32f10x_exti.o ABSOLUTE
    std\Source\gd32f10x_fmc.c                0x00000000   Number         0  gd32f10x_fmc.o ABSOLUTE
    std\Source\gd32f10x_fwdgt.c              0x00000000   Number         0  gd32f10x_fwdgt.o ABSOLUTE
    std\Source\gd32f10x_gpio.c               0x00000000   Number         0  gd32f10x_gpio.o ABSOLUTE
    std\Source\gd32f10x_i2c.c                0x00000000   Number         0  gd32f10x_i2c.o ABSOLUTE
    std\Source\gd32f10x_misc.c               0x00000000   Number         0  gd32f10x_misc.o ABSOLUTE
    std\Source\gd32f10x_pmu.c                0x00000000   Number         0  gd32f10x_pmu.o ABSOLUTE
    std\Source\gd32f10x_rcu.c                0x00000000   Number         0  gd32f10x_rcu.o ABSOLUTE
    std\Source\gd32f10x_rtc.c                0x00000000   Number         0  gd32f10x_rtc.o ABSOLUTE
    std\Source\gd32f10x_sdio.c               0x00000000   Number         0  gd32f10x_sdio.o ABSOLUTE
    std\Source\gd32f10x_spi.c                0x00000000   Number         0  gd32f10x_spi.o ABSOLUTE
    std\Source\gd32f10x_timer.c              0x00000000   Number         0  gd32f10x_timer.o ABSOLUTE
    std\Source\gd32f10x_usart.c              0x00000000   Number         0  gd32f10x_usart.o ABSOLUTE
    std\Source\gd32f10x_wwdgt.c              0x00000000   Number         0  gd32f10x_wwdgt.o ABSOLUTE
    std\\Source\\gd32f10x_adc.c              0x00000000   Number         0  gd32f10x_adc.o ABSOLUTE
    std\\Source\\gd32f10x_bkp.c              0x00000000   Number         0  gd32f10x_bkp.o ABSOLUTE
    std\\Source\\gd32f10x_can.c              0x00000000   Number         0  gd32f10x_can.o ABSOLUTE
    std\\Source\\gd32f10x_crc.c              0x00000000   Number         0  gd32f10x_crc.o ABSOLUTE
    std\\Source\\gd32f10x_dac.c              0x00000000   Number         0  gd32f10x_dac.o ABSOLUTE
    std\\Source\\gd32f10x_dbg.c              0x00000000   Number         0  gd32f10x_dbg.o ABSOLUTE
    std\\Source\\gd32f10x_dma.c              0x00000000   Number         0  gd32f10x_dma.o ABSOLUTE
    std\\Source\\gd32f10x_enet.c             0x00000000   Number         0  gd32f10x_enet.o ABSOLUTE
    std\\Source\\gd32f10x_exmc.c             0x00000000   Number         0  gd32f10x_exmc.o ABSOLUTE
    std\\Source\\gd32f10x_exti.c             0x00000000   Number         0  gd32f10x_exti.o ABSOLUTE
    std\\Source\\gd32f10x_fmc.c              0x00000000   Number         0  gd32f10x_fmc.o ABSOLUTE
    std\\Source\\gd32f10x_fwdgt.c            0x00000000   Number         0  gd32f10x_fwdgt.o ABSOLUTE
    std\\Source\\gd32f10x_gpio.c             0x00000000   Number         0  gd32f10x_gpio.o ABSOLUTE
    std\\Source\\gd32f10x_i2c.c              0x00000000   Number         0  gd32f10x_i2c.o ABSOLUTE
    std\\Source\\gd32f10x_misc.c             0x00000000   Number         0  gd32f10x_misc.o ABSOLUTE
    std\\Source\\gd32f10x_pmu.c              0x00000000   Number         0  gd32f10x_pmu.o ABSOLUTE
    std\\Source\\gd32f10x_rcu.c              0x00000000   Number         0  gd32f10x_rcu.o ABSOLUTE
    std\\Source\\gd32f10x_rtc.c              0x00000000   Number         0  gd32f10x_rtc.o ABSOLUTE
    std\\Source\\gd32f10x_sdio.c             0x00000000   Number         0  gd32f10x_sdio.o ABSOLUTE
    std\\Source\\gd32f10x_spi.c              0x00000000   Number         0  gd32f10x_spi.o ABSOLUTE
    std\\Source\\gd32f10x_timer.c            0x00000000   Number         0  gd32f10x_timer.o ABSOLUTE
    std\\Source\\gd32f10x_usart.c            0x00000000   Number         0  gd32f10x_usart.o ABSOLUTE
    std\\Source\\gd32f10x_wwdgt.c            0x00000000   Number         0  gd32f10x_wwdgt.o ABSOLUTE
    user\\gd32f10x_it.c                      0x00000000   Number         0  gd32f10x_it.o ABSOLUTE
    user\\main.c                             0x00000000   Number         0  main.o ABSOLUTE
    user\\system_gd32f10x.c                  0x00000000   Number         0  system_gd32f10x.o ABSOLUTE
    user\gd32f10x_it.c                       0x00000000   Number         0  gd32f10x_it.o ABSOLUTE
    user\main.c                              0x00000000   Number         0  main.o ABSOLUTE
    user\startup_gd32f10x_xd.s               0x00000000   Number         0  startup_gd32f10x_xd.o ABSOLUTE
    user\system_gd32f10x.c                   0x00000000   Number         0  system_gd32f10x.o ABSOLUTE
    RESET                                    0x08000000   Section      304  startup_gd32f10x_xd.o(RESET)
    .ARM.Collect$$$$00000000                 0x08000130   Section        0  entry.o(.ARM.Collect$$$$00000000)
    .ARM.Collect$$$$00000001                 0x08000130   Section        4  entry2.o(.ARM.Collect$$$$00000001)
    .ARM.Collect$$$$00000004                 0x08000134   Section        4  entry5.o(.ARM.Collect$$$$00000004)
    .ARM.Collect$$$$00000008                 0x08000138   Section        0  entry7b.o(.ARM.Collect$$$$00000008)
    .ARM.Collect$$$$0000000A                 0x08000138   Section        0  entry8b.o(.ARM.Collect$$$$0000000A)
    .ARM.Collect$$$$0000000B                 0x08000138   Section        8  entry9a.o(.ARM.Collect$$$$0000000B)
    .ARM.Collect$$$$0000000D                 0x08000140   Section        0  entry10a.o(.ARM.Collect$$$$0000000D)
    .ARM.Collect$$$$0000000F                 0x08000140   Section        0  entry11a.o(.ARM.Collect$$$$0000000F)
    .ARM.Collect$$$$00002712                 0x08000140   Section        4  entry2.o(.ARM.Collect$$$$00002712)
    __lit__00000000                          0x08000140   Data           4  entry2.o(.ARM.Collect$$$$00002712)
    .text                                    0x08000144   Section       36  startup_gd32f10x_xd.o(.text)
    .text                                    0x08000168   Section        0  uldiv.o(.text)
    .text                                    0x080001ca   Section        0  llshl.o(.text)
    .text                                    0x080001e8   Section        0  llsshr.o(.text)
    .text                                    0x0800020c   Section        0  fadd.o(.text)
    .text                                    0x080002bc   Section        0  fmul.o(.text)
    .text                                    0x08000320   Section        0  fdiv.o(.text)
    .text                                    0x0800039c   Section        0  dadd.o(.text)
    .text                                    0x080004ea   Section        0  dmul.o(.text)
    .text                                    0x080005ce   Section        0  ddiv.o(.text)
    .text                                    0x080006ac   Section        0  fflti.o(.text)
    .text                                    0x080006be   Section        0  ffltui.o(.text)
    .text                                    0x080006c8   Section        0  ffixi.o(.text)
    .text                                    0x080006fa   Section        0  ffixui.o(.text)
    .text                                    0x08000722   Section        0  f2d.o(.text)
    .text                                    0x08000748   Section       20  cfcmple.o(.text)
    .text                                    0x0800075c   Section       20  cfrcmple.o(.text)
    .text                                    0x08000770   Section        0  uidiv.o(.text)
    .text                                    0x0800079c   Section        0  llushr.o(.text)
    .text                                    0x080007bc   Section        0  fepilogue.o(.text)
    .text                                    0x080007bc   Section        0  iusefp.o(.text)
    .text                                    0x0800082a   Section        0  fsqrt.o(.text)
    .text                                    0x08000888   Section        0  depilogue.o(.text)
    .text                                    0x08000942   Section        0  dfixul.o(.text)
    .text                                    0x08000974   Section       48  cdrcmple.o(.text)
    .text                                    0x080009a4   Section       36  init.o(.text)
    i.BusFault_Handler                       0x080009c8   Section        0  gd32f10x_it.o(i.BusFault_Handler)
    i.DebugMon_Handler                       0x080009cc   Section        0  gd32f10x_it.o(i.DebugMon_Handler)
    i.HardFault_Handler                      0x080009ce   Section        0  gd32f10x_it.o(i.HardFault_Handler)
    i.MemManage_Handler                      0x080009d2   Section        0  gd32f10x_it.o(i.MemManage_Handler)
    i.NMI_Handler                            0x080009d6   Section        0  gd32f10x_it.o(i.NMI_Handler)
    i.PendSV_Handler                         0x080009d8   Section        0  gd32f10x_it.o(i.PendSV_Handler)
    i.SVC_Handler                            0x080009da   Section        0  gd32f10x_it.o(i.SVC_Handler)
    i.SystemInit                             0x080009dc   Section        0  system_gd32f10x.o(i.SystemInit)
    i.UsageFault_Handler                     0x08000ab0   Section        0  gd32f10x_it.o(i.UsageFault_Handler)
    i.__0printf                              0x08000ab4   Section        0  printfa.o(i.__0printf)
    i.__scatterload_copy                     0x08000ad4   Section       14  handlers.o(i.__scatterload_copy)
    i.__scatterload_null                     0x08000ae2   Section        2  handlers.o(i.__scatterload_null)
    i.__scatterload_zeroinit                 0x08000ae4   Section       14  handlers.o(i.__scatterload_zeroinit)
    i.__set_errno                            0x08000af4   Section        0  errno.o(i.__set_errno)
    i._fp_digits                             0x08000b00   Section        0  printfa.o(i._fp_digits)
    _fp_digits                               0x08000b01   Thumb Code   366  printfa.o(i._fp_digits)
    i._printf_core                           0x08000c84   Section        0  printfa.o(i._printf_core)
    _printf_core                             0x08000c85   Thumb Code  1744  printfa.o(i._printf_core)
    i._printf_post_padding                   0x08001360   Section        0  printfa.o(i._printf_post_padding)
    _printf_post_padding                     0x08001361   Thumb Code    36  printfa.o(i._printf_post_padding)
    i._printf_pre_padding                    0x08001384   Section        0  printfa.o(i._printf_pre_padding)
    _printf_pre_padding                      0x08001385   Thumb Code    46  printfa.o(i._printf_pre_padding)
    i.arm_bitreversal_f32                    0x080013b2   Section        0  transformfunctions.o(i.arm_bitreversal_f32)
    i.arm_cfft_radix4_init_f32               0x0800151c   Section        0  transformfunctions.o(i.arm_cfft_radix4_init_f32)
    i.arm_radix4_butterfly_f32               0x080015c4   Section        0  transformfunctions.o(i.arm_radix4_butterfly_f32)
    i.arm_radix4_butterfly_inverse_f32       0x08001860   Section        0  transformfunctions.o(i.arm_radix4_butterfly_inverse_f32)
    i.arm_rfft_f32                           0x08001c96   Section        0  transformfunctions.o(i.arm_rfft_f32)
    i.arm_rfft_init_f32                      0x08001d14   Section        0  transformfunctions.o(i.arm_rfft_init_f32)
    i.arm_sin_f32                            0x08001da8   Section        0  fastmathfunctions.o(i.arm_sin_f32)
    i.arm_split_rfft_f32                     0x08001e5c   Section        0  transformfunctions.o(i.arm_split_rfft_f32)
    i.arm_split_rifft_f32                    0x08001f9a   Section        0  transformfunctions.o(i.arm_split_rifft_f32)
    i.delay_ms                               0x08002074   Section        0  systick.o(i.delay_ms)
    i.delay_nms                              0x080020a0   Section        0  systick.o(i.delay_nms)
    delay_nms                                0x080020a1   Thumb Code    74  systick.o(i.delay_nms)
    i.dsp_test                               0x080020f0   Section        0  dsp_test.o(i.dsp_test)
    i.fputc                                  0x0800228c   Section        0  print.o(i.fputc)
    i.get_mem_infor                          0x080022b0   Section        0  bitband.o(i.get_mem_infor)
    i.get_uid                                0x080022c4   Section        0  bitband.o(i.get_uid)
    i.gpio_init                              0x080022e0   Section        0  gd32f10x_gpio.o(i.gpio_init)
    i.led_init                               0x0800238c   Section        0  led.o(i.led_init)
    i.led_off                                0x080023f4   Section        0  led.o(i.led_off)
    i.led_on                                 0x08002418   Section        0  led.o(i.led_on)
    i.main                                   0x0800243c   Section        0  main.o(i.main)
    i.nvic_vector_table_set                  0x080024f4   Section        0  gd32f10x_misc.o(i.nvic_vector_table_set)
    i.print_config                           0x0800250c   Section        0  print.o(i.print_config)
    i.rcu_clock_freq_get                     0x0800258c   Section        0  gd32f10x_rcu.o(i.rcu_clock_freq_get)
    i.rcu_periph_clock_enable                0x080026b0   Section        0  gd32f10x_rcu.o(i.rcu_periph_clock_enable)
    i.sqrtf                                  0x080026d0   Section        0  sqrtf.o(i.sqrtf)
    i.system_clock_96m_hxtal                 0x080026fc   Section        0  system_gd32f10x.o(i.system_clock_96m_hxtal)
    system_clock_96m_hxtal                   0x080026fd   Thumb Code   180  system_gd32f10x.o(i.system_clock_96m_hxtal)
    i.system_clock_config                    0x080027b8   Section        0  system_gd32f10x.o(i.system_clock_config)
    system_clock_config                      0x080027b9   Thumb Code     8  system_gd32f10x.o(i.system_clock_config)
    i.systick_clksource_set                  0x080027c0   Section        0  gd32f10x_misc.o(i.systick_clksource_set)
    i.systick_set                            0x080027e8   Section        0  systick.o(i.systick_set)
    i.usart_baudrate_set                     0x0800280c   Section        0  gd32f10x_usart.o(i.usart_baudrate_set)
    i.usart_data_transmit                    0x0800289c   Section        0  gd32f10x_usart.o(i.usart_data_transmit)
    i.usart_enable                           0x080028a4   Section        0  gd32f10x_usart.o(i.usart_enable)
    i.usart_flag_get                         0x080028ae   Section        0  gd32f10x_usart.o(i.usart_flag_get)
    i.usart_hardware_flow_cts_config         0x080028cc   Section        0  gd32f10x_usart.o(i.usart_hardware_flow_cts_config)
    i.usart_hardware_flow_rts_config         0x080028dc   Section        0  gd32f10x_usart.o(i.usart_hardware_flow_rts_config)
    i.usart_parity_config                    0x080028ec   Section        0  gd32f10x_usart.o(i.usart_parity_config)
    i.usart_receive_config                   0x080028fc   Section        0  gd32f10x_usart.o(i.usart_receive_config)
    i.usart_stop_bit_set                     0x0800290c   Section        0  gd32f10x_usart.o(i.usart_stop_bit_set)
    i.usart_transmit_config                  0x0800291c   Section        0  gd32f10x_usart.o(i.usart_transmit_config)
    i.usart_word_length_set                  0x0800292c   Section        0  gd32f10x_usart.o(i.usart_word_length_set)
    .constdata                               0x08002940   Section    920372  commontables.o(.constdata)
    .data                                    0x20000000   Section        4  main.o(.data)
    .data                                    0x20000004   Section        8  systick.o(.data)
    .data                                    0x2000000c   Section        4  stdout.o(.data)
    .data                                    0x20000010   Section        4  errno.o(.data)
    _errno                                   0x20000010   Data           4  errno.o(.data)
    .bss                                     0x20000014   Section       12  main.o(.bss)
    .bss                                     0x20000020   Section     2092  dsp_test.o(.bss)
    pSrc                                     0x2000004c   Data         512  dsp_test.o(.bss)
    pDst                                     0x2000024c   Data        1024  dsp_test.o(.bss)
    out                                      0x2000064c   Data         512  dsp_test.o(.bss)
    STACK                                    0x20000850   Section     1024  startup_gd32f10x_xd.o(STACK)

    Global Symbols

    Symbol Name                              Value     Ov Type        Size  Object(Section)

    BuildAttributes$$THM_ISAv4$P$D$K$B$S$PE$A:L22UL41UL21$X:L11$S22US41US21$IEEE1$IW$USESV6$~STKCKD$USESV7$~SHL$OTIME$ROPI$IEEEX$EBA8$MICROLIB$REQ8$PRES8$EABIv2 0x00000000   Number         0  anon$$obj.o ABSOLUTE
    __ARM_use_no_argv                        0x00000000   Number         0  main.o ABSOLUTE
    _printf_a                                0x00000000   Number         0  stubs.o ABSOLUTE
    _printf_c                                0x00000000   Number         0  stubs.o ABSOLUTE
    _printf_charcount                        0x00000000   Number         0  stubs.o ABSOLUTE
    _printf_d                                0x00000000   Number         0  stubs.o ABSOLUTE
    _printf_e                                0x00000000   Number         0  stubs.o ABSOLUTE
    _printf_f                                0x00000000   Number         0  stubs.o ABSOLUTE
    _printf_flags                            0x00000000   Number         0  stubs.o ABSOLUTE
    _printf_fp_dec                           0x00000000   Number         0  stubs.o ABSOLUTE
    _printf_fp_hex                           0x00000000   Number         0  stubs.o ABSOLUTE
    _printf_g                                0x00000000   Number         0  stubs.o ABSOLUTE
    _printf_i                                0x00000000   Number         0  stubs.o ABSOLUTE
    _printf_int_dec                          0x00000000   Number         0  stubs.o ABSOLUTE
    _printf_l                                0x00000000   Number         0  stubs.o ABSOLUTE
    _printf_lc                               0x00000000   Number         0  stubs.o ABSOLUTE
    _printf_ll                               0x00000000   Number         0  stubs.o ABSOLUTE
    _printf_lld                              0x00000000   Number         0  stubs.o ABSOLUTE
    _printf_lli                              0x00000000   Number         0  stubs.o ABSOLUTE
    _printf_llo                              0x00000000   Number         0  stubs.o ABSOLUTE
    _printf_llu                              0x00000000   Number         0  stubs.o ABSOLUTE
    _printf_llx                              0x00000000   Number         0  stubs.o ABSOLUTE
    _printf_longlong_dec                     0x00000000   Number         0  stubs.o ABSOLUTE
    _printf_longlong_hex                     0x00000000   Number         0  stubs.o ABSOLUTE
    _printf_longlong_oct                     0x00000000   Number         0  stubs.o ABSOLUTE
    _printf_ls                               0x00000000   Number         0  stubs.o ABSOLUTE
    _printf_mbtowc                           0x00000000   Number         0  stubs.o ABSOLUTE
    _printf_n                                0x00000000   Number         0  stubs.o ABSOLUTE
    _printf_o                                0x00000000   Number         0  stubs.o ABSOLUTE
    _printf_p                                0x00000000   Number         0  stubs.o ABSOLUTE
    _printf_percent                          0x00000000   Number         0  stubs.o ABSOLUTE
    _printf_pre_padding                      0x00000000   Number         0  stubs.o ABSOLUTE
    _printf_return_value                     0x00000000   Number         0  stubs.o ABSOLUTE
    _printf_s                                0x00000000   Number         0  stubs.o ABSOLUTE
    _printf_sizespec                         0x00000000   Number         0  stubs.o ABSOLUTE
    _printf_str                              0x00000000   Number         0  stubs.o ABSOLUTE
    _printf_truncate_signed                  0x00000000   Number         0  stubs.o ABSOLUTE
    _printf_truncate_unsigned                0x00000000   Number         0  stubs.o ABSOLUTE
    _printf_u                                0x00000000   Number         0  stubs.o ABSOLUTE
    _printf_wc                               0x00000000   Number         0  stubs.o ABSOLUTE
    _printf_wctomb                           0x00000000   Number         0  stubs.o ABSOLUTE
    _printf_widthprec                        0x00000000   Number         0  stubs.o ABSOLUTE
    _printf_x                                0x00000000   Number         0  stubs.o ABSOLUTE
    __cpp_initialize__aeabi_                  - Undefined Weak Reference
    __cxa_finalize                            - Undefined Weak Reference
    __decompress                              - Undefined Weak Reference
    _clock_init                               - Undefined Weak Reference
    _microlib_exit                            - Undefined Weak Reference
    __Vectors_Size                           0x00000130   Number         0  startup_gd32f10x_xd.o ABSOLUTE
    __Vectors                                0x08000000   Data           4  startup_gd32f10x_xd.o(RESET)
    __Vectors_End                            0x08000130   Data           0  startup_gd32f10x_xd.o(RESET)
    __main                                   0x08000131   Thumb Code     0  entry.o(.ARM.Collect$$$$00000000)
    _main_stk                                0x08000131   Thumb Code     0  entry2.o(.ARM.Collect$$$$00000001)
    _main_scatterload                        0x08000135   Thumb Code     0  entry5.o(.ARM.Collect$$$$00000004)
    __main_after_scatterload                 0x08000139   Thumb Code     0  entry5.o(.ARM.Collect$$$$00000004)
    _main_clock                              0x08000139   Thumb Code     0  entry7b.o(.ARM.Collect$$$$00000008)
    _main_cpp_init                           0x08000139   Thumb Code     0  entry8b.o(.ARM.Collect$$$$0000000A)
    _main_init                               0x08000139   Thumb Code     0  entry9a.o(.ARM.Collect$$$$0000000B)
    __rt_final_cpp                           0x08000141   Thumb Code     0  entry10a.o(.ARM.Collect$$$$0000000D)
    __rt_final_exit                          0x08000141   Thumb Code     0  entry11a.o(.ARM.Collect$$$$0000000F)
    Reset_Handler                            0x08000145   Thumb Code     8  startup_gd32f10x_xd.o(.text)
    SysTick_Handler                          0x0800015d   Thumb Code     2  startup_gd32f10x_xd.o(.text)
    ADC0_1_IRQHandler                        0x0800015f   Thumb Code     0  startup_gd32f10x_xd.o(.text)
    ADC2_IRQHandler                          0x0800015f   Thumb Code     0  startup_gd32f10x_xd.o(.text)
    CAN0_EWMC_IRQHandler                     0x0800015f   Thumb Code     0  startup_gd32f10x_xd.o(.text)
    CAN0_RX1_IRQHandler                      0x0800015f   Thumb Code     0  startup_gd32f10x_xd.o(.text)
    DMA0_Channel0_IRQHandler                 0x0800015f   Thumb Code     0  startup_gd32f10x_xd.o(.text)
    DMA0_Channel1_IRQHandler                 0x0800015f   Thumb Code     0  startup_gd32f10x_xd.o(.text)
    DMA0_Channel2_IRQHandler                 0x0800015f   Thumb Code     0  startup_gd32f10x_xd.o(.text)
    DMA0_Channel3_IRQHandler                 0x0800015f   Thumb Code     0  startup_gd32f10x_xd.o(.text)
    DMA0_Channel4_IRQHandler                 0x0800015f   Thumb Code     0  startup_gd32f10x_xd.o(.text)
    DMA0_Channel5_IRQHandler                 0x0800015f   Thumb Code     0  startup_gd32f10x_xd.o(.text)
    DMA0_Channel6_IRQHandler                 0x0800015f   Thumb Code     0  startup_gd32f10x_xd.o(.text)
    DMA1_Channel0_IRQHandler                 0x0800015f   Thumb Code     0  startup_gd32f10x_xd.o(.text)
    DMA1_Channel1_IRQHandler                 0x0800015f   Thumb Code     0  startup_gd32f10x_xd.o(.text)
    DMA1_Channel2_IRQHandler                 0x0800015f   Thumb Code     0  startup_gd32f10x_xd.o(.text)
    DMA1_Channel3_4_IRQHandler               0x0800015f   Thumb Code     0  startup_gd32f10x_xd.o(.text)
    EXMC_IRQHandler                          0x0800015f   Thumb Code     0  startup_gd32f10x_xd.o(.text)
    EXTI0_IRQHandler                         0x0800015f   Thumb Code     0  startup_gd32f10x_xd.o(.text)
    EXTI10_15_IRQHandler                     0x0800015f   Thumb Code     0  startup_gd32f10x_xd.o(.text)
    EXTI1_IRQHandler                         0x0800015f   Thumb Code     0  startup_gd32f10x_xd.o(.text)
    EXTI2_IRQHandler                         0x0800015f   Thumb Code     0  startup_gd32f10x_xd.o(.text)
    EXTI3_IRQHandler                         0x0800015f   Thumb Code     0  startup_gd32f10x_xd.o(.text)
    EXTI4_IRQHandler                         0x0800015f   Thumb Code     0  startup_gd32f10x_xd.o(.text)
    EXTI5_9_IRQHandler                       0x0800015f   Thumb Code     0  startup_gd32f10x_xd.o(.text)
    FMC_IRQHandler                           0x0800015f   Thumb Code     0  startup_gd32f10x_xd.o(.text)
    I2C0_ER_IRQHandler                       0x0800015f   Thumb Code     0  startup_gd32f10x_xd.o(.text)
    I2C0_EV_IRQHandler                       0x0800015f   Thumb Code     0  startup_gd32f10x_xd.o(.text)
    I2C1_ER_IRQHandler                       0x0800015f   Thumb Code     0  startup_gd32f10x_xd.o(.text)
    I2C1_EV_IRQHandler                       0x0800015f   Thumb Code     0  startup_gd32f10x_xd.o(.text)
    LVD_IRQHandler                           0x0800015f   Thumb Code     0  startup_gd32f10x_xd.o(.text)
    RCU_IRQHandler                           0x0800015f   Thumb Code     0  startup_gd32f10x_xd.o(.text)
    RTC_Alarm_IRQHandler                     0x0800015f   Thumb Code     0  startup_gd32f10x_xd.o(.text)
    RTC_IRQHandler                           0x0800015f   Thumb Code     0  startup_gd32f10x_xd.o(.text)
    SDIO_IRQHandler                          0x0800015f   Thumb Code     0  startup_gd32f10x_xd.o(.text)
    SPI0_IRQHandler                          0x0800015f   Thumb Code     0  startup_gd32f10x_xd.o(.text)
    SPI1_IRQHandler                          0x0800015f   Thumb Code     0  startup_gd32f10x_xd.o(.text)
    SPI2_IRQHandler                          0x0800015f   Thumb Code     0  startup_gd32f10x_xd.o(.text)
    TAMPER_IRQHandler                        0x0800015f   Thumb Code     0  startup_gd32f10x_xd.o(.text)
    TIMER0_BRK_TIMER8_IRQHandler             0x0800015f   Thumb Code     0  startup_gd32f10x_xd.o(.text)
    TIMER0_Channel_IRQHandler                0x0800015f   Thumb Code     0  startup_gd32f10x_xd.o(.text)
    TIMER0_TRG_CMT_TIMER10_IRQHandler        0x0800015f   Thumb Code     0  startup_gd32f10x_xd.o(.text)
    TIMER0_UP_TIMER9_IRQHandler              0x0800015f   Thumb Code     0  startup_gd32f10x_xd.o(.text)
    TIMER1_IRQHandler                        0x0800015f   Thumb Code     0  startup_gd32f10x_xd.o(.text)
    TIMER2_IRQHandler                        0x0800015f   Thumb Code     0  startup_gd32f10x_xd.o(.text)
    TIMER3_IRQHandler                        0x0800015f   Thumb Code     0  startup_gd32f10x_xd.o(.text)
    TIMER4_IRQHandler                        0x0800015f   Thumb Code     0  startup_gd32f10x_xd.o(.text)
    TIMER5_IRQHandler                        0x0800015f   Thumb Code     0  startup_gd32f10x_xd.o(.text)
    TIMER6_IRQHandler                        0x0800015f   Thumb Code     0  startup_gd32f10x_xd.o(.text)
    TIMER7_BRK_TIMER11_IRQHandler            0x0800015f   Thumb Code     0  startup_gd32f10x_xd.o(.text)
    TIMER7_Channel_IRQHandler                0x0800015f   Thumb Code     0  startup_gd32f10x_xd.o(.text)
    TIMER7_TRG_CMT_TIMER13_IRQHandler        0x0800015f   Thumb Code     0  startup_gd32f10x_xd.o(.text)
    TIMER7_UP_TIMER12_IRQHandler             0x0800015f   Thumb Code     0  startup_gd32f10x_xd.o(.text)
    UART3_IRQHandler                         0x0800015f   Thumb Code     0  startup_gd32f10x_xd.o(.text)
    UART4_IRQHandler                         0x0800015f   Thumb Code     0  startup_gd32f10x_xd.o(.text)
    USART0_IRQHandler                        0x0800015f   Thumb Code     0  startup_gd32f10x_xd.o(.text)
    USART1_IRQHandler                        0x0800015f   Thumb Code     0  startup_gd32f10x_xd.o(.text)
    USART2_IRQHandler                        0x0800015f   Thumb Code     0  startup_gd32f10x_xd.o(.text)
    USBD_HP_CAN0_TX_IRQHandler               0x0800015f   Thumb Code     0  startup_gd32f10x_xd.o(.text)
    USBD_LP_CAN0_RX0_IRQHandler              0x0800015f   Thumb Code     0  startup_gd32f10x_xd.o(.text)
    USBD_WKUP_IRQHandler                     0x0800015f   Thumb Code     0  startup_gd32f10x_xd.o(.text)
    WWDGT_IRQHandler                         0x0800015f   Thumb Code     0  startup_gd32f10x_xd.o(.text)
    __aeabi_uldivmod                         0x08000169   Thumb Code    98  uldiv.o(.text)
    __aeabi_llsl                             0x080001cb   Thumb Code    30  llshl.o(.text)
    _ll_shift_l                              0x080001cb   Thumb Code     0  llshl.o(.text)
    __aeabi_lasr                             0x080001e9   Thumb Code    36  llsshr.o(.text)
    _ll_sshift_r                             0x080001e9   Thumb Code     0  llsshr.o(.text)
    __aeabi_fadd                             0x0800020d   Thumb Code   164  fadd.o(.text)
    __aeabi_fsub                             0x080002b1   Thumb Code     6  fadd.o(.text)
    __aeabi_frsub                            0x080002b7   Thumb Code     6  fadd.o(.text)
    __aeabi_fmul                             0x080002bd   Thumb Code   100  fmul.o(.text)
    __aeabi_fdiv                             0x08000321   Thumb Code   124  fdiv.o(.text)
    __aeabi_dadd                             0x0800039d   Thumb Code   322  dadd.o(.text)
    __aeabi_dsub                             0x080004df   Thumb Code     6  dadd.o(.text)
    __aeabi_drsub                            0x080004e5   Thumb Code     6  dadd.o(.text)
    __aeabi_dmul                             0x080004eb   Thumb Code   228  dmul.o(.text)
    __aeabi_ddiv                             0x080005cf   Thumb Code   222  ddiv.o(.text)
    __aeabi_i2f                              0x080006ad   Thumb Code    18  fflti.o(.text)
    __aeabi_ui2f                             0x080006bf   Thumb Code    10  ffltui.o(.text)
    __aeabi_f2iz                             0x080006c9   Thumb Code    50  ffixi.o(.text)
    __aeabi_f2uiz                            0x080006fb   Thumb Code    40  ffixui.o(.text)
    __aeabi_f2d                              0x08000723   Thumb Code    38  f2d.o(.text)
    __aeabi_cfcmpeq                          0x08000749   Thumb Code     0  cfcmple.o(.text)
    __aeabi_cfcmple                          0x08000749   Thumb Code    20  cfcmple.o(.text)
    __aeabi_cfrcmple                         0x0800075d   Thumb Code    20  cfrcmple.o(.text)
    __aeabi_uidiv                            0x08000771   Thumb Code     0  uidiv.o(.text)
    __aeabi_uidivmod                         0x08000771   Thumb Code    44  uidiv.o(.text)
    __aeabi_llsr                             0x0800079d   Thumb Code    32  llushr.o(.text)
    _ll_ushift_r                             0x0800079d   Thumb Code     0  llushr.o(.text)
    __I$use$fp                               0x080007bd   Thumb Code     0  iusefp.o(.text)
    _float_round                             0x080007bd   Thumb Code    18  fepilogue.o(.text)
    _float_epilogue                          0x080007cf   Thumb Code    92  fepilogue.o(.text)
    _fsqrt                                   0x0800082b   Thumb Code    94  fsqrt.o(.text)
    _double_round                            0x08000889   Thumb Code    30  depilogue.o(.text)
    _double_epilogue                         0x080008a7   Thumb Code   156  depilogue.o(.text)
    __aeabi_d2ulz                            0x08000943   Thumb Code    48  dfixul.o(.text)
    __aeabi_cdrcmple                         0x08000975   Thumb Code    48  cdrcmple.o(.text)
    __scatterload                            0x080009a5   Thumb Code    28  init.o(.text)
    __scatterload_rt2                        0x080009a5   Thumb Code     0  init.o(.text)
    BusFault_Handler                         0x080009c9   Thumb Code     4  gd32f10x_it.o(i.BusFault_Handler)
    DebugMon_Handler                         0x080009cd   Thumb Code     2  gd32f10x_it.o(i.DebugMon_Handler)
    HardFault_Handler                        0x080009cf   Thumb Code     4  gd32f10x_it.o(i.HardFault_Handler)
    MemManage_Handler                        0x080009d3   Thumb Code     4  gd32f10x_it.o(i.MemManage_Handler)
    NMI_Handler                              0x080009d7   Thumb Code     2  gd32f10x_it.o(i.NMI_Handler)
    PendSV_Handler                           0x080009d9   Thumb Code     2  gd32f10x_it.o(i.PendSV_Handler)
    SVC_Handler                              0x080009db   Thumb Code     2  gd32f10x_it.o(i.SVC_Handler)
    SystemInit                               0x080009dd   Thumb Code   196  system_gd32f10x.o(i.SystemInit)
    UsageFault_Handler                       0x08000ab1   Thumb Code     4  gd32f10x_it.o(i.UsageFault_Handler)
    __0printf                                0x08000ab5   Thumb Code    22  printfa.o(i.__0printf)
    __1printf                                0x08000ab5   Thumb Code     0  printfa.o(i.__0printf)
    __2printf                                0x08000ab5   Thumb Code     0  printfa.o(i.__0printf)
    __c89printf                              0x08000ab5   Thumb Code     0  printfa.o(i.__0printf)
    printf                                   0x08000ab5   Thumb Code     0  printfa.o(i.__0printf)
    __scatterload_copy                       0x08000ad5   Thumb Code    14  handlers.o(i.__scatterload_copy)
    __scatterload_null                       0x08000ae3   Thumb Code     2  handlers.o(i.__scatterload_null)
    __scatterload_zeroinit                   0x08000ae5   Thumb Code    14  handlers.o(i.__scatterload_zeroinit)
    __set_errno                              0x08000af5   Thumb Code     6  errno.o(i.__set_errno)
    arm_bitreversal_f32                      0x080013b3   Thumb Code   362  transformfunctions.o(i.arm_bitreversal_f32)
    arm_cfft_radix4_init_f32                 0x0800151d   Thumb Code   156  transformfunctions.o(i.arm_cfft_radix4_init_f32)
    arm_radix4_butterfly_f32                 0x080015c5   Thumb Code   668  transformfunctions.o(i.arm_radix4_butterfly_f32)
    arm_radix4_butterfly_inverse_f32         0x08001861   Thumb Code  1078  transformfunctions.o(i.arm_radix4_butterfly_inverse_f32)
    arm_rfft_f32                             0x08001c97   Thumb Code   124  transformfunctions.o(i.arm_rfft_f32)
    arm_rfft_init_f32                        0x08001d15   Thumb Code   138  transformfunctions.o(i.arm_rfft_init_f32)
    arm_sin_f32                              0x08001da9   Thumb Code   170  fastmathfunctions.o(i.arm_sin_f32)
    arm_split_rfft_f32                       0x08001e5d   Thumb Code   318  transformfunctions.o(i.arm_split_rfft_f32)
    arm_split_rifft_f32                      0x08001f9b   Thumb Code   218  transformfunctions.o(i.arm_split_rifft_f32)
    delay_ms                                 0x08002075   Thumb Code    42  systick.o(i.delay_ms)
    dsp_test                                 0x080020f1   Thumb Code   360  dsp_test.o(i.dsp_test)
    fputc                                    0x0800228d   Thumb Code    32  print.o(i.fputc)
    get_mem_infor                            0x080022b1   Thumb Code    14  bitband.o(i.get_mem_infor)
    get_uid                                  0x080022c5   Thumb Code    24  bitband.o(i.get_uid)
    gpio_init                                0x080022e1   Thumb Code   172  gd32f10x_gpio.o(i.gpio_init)
    led_init                                 0x0800238d   Thumb Code    92  led.o(i.led_init)
    led_off                                  0x080023f5   Thumb Code    26  led.o(i.led_off)
    led_on                                   0x08002419   Thumb Code    26  led.o(i.led_on)
    main                                     0x0800243d   Thumb Code    92  main.o(i.main)
    nvic_vector_table_set                    0x080024f5   Thumb Code    16  gd32f10x_misc.o(i.nvic_vector_table_set)
    print_config                             0x0800250d   Thumb Code   120  print.o(i.print_config)
    rcu_clock_freq_get                       0x0800258d   Thumb Code   264  gd32f10x_rcu.o(i.rcu_clock_freq_get)
    rcu_periph_clock_enable                  0x080026b1   Thumb Code    28  gd32f10x_rcu.o(i.rcu_periph_clock_enable)
    sqrtf                                    0x080026d1   Thumb Code    44  sqrtf.o(i.sqrtf)
    systick_clksource_set                    0x080027c1   Thumb Code    40  gd32f10x_misc.o(i.systick_clksource_set)
    systick_set                              0x080027e9   Thumb Code    26  systick.o(i.systick_set)
    usart_baudrate_set                       0x0800280d   Thumb Code   136  gd32f10x_usart.o(i.usart_baudrate_set)
    usart_data_transmit                      0x0800289d   Thumb Code     8  gd32f10x_usart.o(i.usart_data_transmit)
    usart_enable                             0x080028a5   Thumb Code    10  gd32f10x_usart.o(i.usart_enable)
    usart_flag_get                           0x080028af   Thumb Code    30  gd32f10x_usart.o(i.usart_flag_get)
    usart_hardware_flow_cts_config           0x080028cd   Thumb Code    16  gd32f10x_usart.o(i.usart_hardware_flow_cts_config)
    usart_hardware_flow_rts_config           0x080028dd   Thumb Code    16  gd32f10x_usart.o(i.usart_hardware_flow_rts_config)
    usart_parity_config                      0x080028ed   Thumb Code    16  gd32f10x_usart.o(i.usart_parity_config)
    usart_receive_config                     0x080028fd   Thumb Code    16  gd32f10x_usart.o(i.usart_receive_config)
    usart_stop_bit_set                       0x0800290d   Thumb Code    16  gd32f10x_usart.o(i.usart_stop_bit_set)
    usart_transmit_config                    0x0800291d   Thumb Code    16  gd32f10x_usart.o(i.usart_transmit_config)
    usart_word_length_set                    0x0800292d   Thumb Code    16  gd32f10x_usart.o(i.usart_word_length_set)
    armBitRevTable                           0x08002940   Data        2048  commontables.o(.constdata)
    twiddleCoefF64_16                        0x08003140   Data         256  commontables.o(.constdata)
    twiddleCoefF64_32                        0x08003240   Data         512  commontables.o(.constdata)
    twiddleCoefF64_64                        0x08003440   Data        1024  commontables.o(.constdata)
    twiddleCoefF64_128                       0x08003840   Data        2048  commontables.o(.constdata)
    twiddleCoefF64_256                       0x08004040   Data        4096  commontables.o(.constdata)
    twiddleCoefF64_512                       0x08005040   Data        8192  commontables.o(.constdata)
    twiddleCoefF64_1024                      0x08007040   Data       16384  commontables.o(.constdata)
    twiddleCoefF64_2048                      0x0800b040   Data       32768  commontables.o(.constdata)
    twiddleCoefF64_4096                      0x08013040   Data       65536  commontables.o(.constdata)
    twiddleCoef_16                           0x08023040   Data         128  commontables.o(.constdata)
    twiddleCoef_32                           0x080230c0   Data         256  commontables.o(.constdata)
    twiddleCoef_64                           0x080231c0   Data         512  commontables.o(.constdata)
    twiddleCoef_128                          0x080233c0   Data        1024  commontables.o(.constdata)
    twiddleCoef_256                          0x080237c0   Data        2048  commontables.o(.constdata)
    twiddleCoef_512                          0x08023fc0   Data        4096  commontables.o(.constdata)
    twiddleCoef_1024                         0x08024fc0   Data        8192  commontables.o(.constdata)
    twiddleCoef_2048                         0x08026fc0   Data       16384  commontables.o(.constdata)
    twiddleCoef_4096                         0x0802afc0   Data       32768  commontables.o(.constdata)
    twiddleCoef_16_q31                       0x08032fc0   Data          96  commontables.o(.constdata)
    twiddleCoef_32_q31                       0x08033020   Data         192  commontables.o(.constdata)
    twiddleCoef_64_q31                       0x080330e0   Data         384  commontables.o(.constdata)
    twiddleCoef_128_q31                      0x08033260   Data         768  commontables.o(.constdata)
    twiddleCoef_256_q31                      0x08033560   Data        1536  commontables.o(.constdata)
    twiddleCoef_512_q31                      0x08033b60   Data        3072  commontables.o(.constdata)
    twiddleCoef_1024_q31                     0x08034760   Data        6144  commontables.o(.constdata)
    twiddleCoef_2048_q31                     0x08035f60   Data       12288  commontables.o(.constdata)
    twiddleCoef_4096_q31                     0x08038f60   Data       24576  commontables.o(.constdata)
    twiddleCoef_16_q15                       0x0803ef60   Data          48  commontables.o(.constdata)
    twiddleCoef_32_q15                       0x0803ef90   Data          96  commontables.o(.constdata)
    twiddleCoef_64_q15                       0x0803eff0   Data         192  commontables.o(.constdata)
    twiddleCoef_128_q15                      0x0803f0b0   Data         384  commontables.o(.constdata)
    twiddleCoef_256_q15                      0x0803f230   Data         768  commontables.o(.constdata)
    twiddleCoef_512_q15                      0x0803f530   Data        1536  commontables.o(.constdata)
    twiddleCoef_1024_q15                     0x0803fb30   Data        3072  commontables.o(.constdata)
    twiddleCoef_2048_q15                     0x08040730   Data        6144  commontables.o(.constdata)
    twiddleCoef_4096_q15                     0x08041f30   Data       12288  commontables.o(.constdata)
    armBitRevIndexTableF64_16                0x08044f30   Data          24  commontables.o(.constdata)
    armBitRevIndexTableF64_32                0x08044f48   Data          48  commontables.o(.constdata)
    armBitRevIndexTableF64_64                0x08044f78   Data         112  commontables.o(.constdata)
    armBitRevIndexTableF64_128               0x08044fe8   Data         224  commontables.o(.constdata)
    armBitRevIndexTableF64_256               0x080450c8   Data         480  commontables.o(.constdata)
    armBitRevIndexTableF64_512               0x080452a8   Data         960  commontables.o(.constdata)
    armBitRevIndexTableF64_1024              0x08045668   Data        1984  commontables.o(.constdata)
    armBitRevIndexTableF64_2048              0x08045e28   Data        3968  commontables.o(.constdata)
    armBitRevIndexTableF64_4096              0x08046da8   Data        8064  commontables.o(.constdata)
    armBitRevIndexTable16                    0x08048d28   Data          40  commontables.o(.constdata)
    armBitRevIndexTable32                    0x08048d50   Data          96  commontables.o(.constdata)
    armBitRevIndexTable64                    0x08048db0   Data         112  commontables.o(.constdata)
    armBitRevIndexTable128                   0x08048e20   Data         416  commontables.o(.constdata)
    armBitRevIndexTable256                   0x08048fc0   Data         880  commontables.o(.constdata)
    armBitRevIndexTable512                   0x08049330   Data         896  commontables.o(.constdata)
    armBitRevIndexTable1024                  0x080496b0   Data        3600  commontables.o(.constdata)
    armBitRevIndexTable2048                  0x0804a4c0   Data        7616  commontables.o(.constdata)
    armBitRevIndexTable4096                  0x0804c280   Data        8064  commontables.o(.constdata)
    armBitRevIndexTable_fixed_16             0x0804e200   Data          24  commontables.o(.constdata)
    armBitRevIndexTable_fixed_32             0x0804e218   Data          48  commontables.o(.constdata)
    armBitRevIndexTable_fixed_64             0x0804e248   Data         112  commontables.o(.constdata)
    armBitRevIndexTable_fixed_128            0x0804e2b8   Data         224  commontables.o(.constdata)
    armBitRevIndexTable_fixed_256            0x0804e398   Data         480  commontables.o(.constdata)
    armBitRevIndexTable_fixed_512            0x0804e578   Data         960  commontables.o(.constdata)
    armBitRevIndexTable_fixed_1024           0x0804e938   Data        1984  commontables.o(.constdata)
    armBitRevIndexTable_fixed_2048           0x0804f0f8   Data        3968  commontables.o(.constdata)
    armBitRevIndexTable_fixed_4096           0x08050078   Data        8064  commontables.o(.constdata)
    twiddleCoefF64_rfft_32                   0x08051ff8   Data         256  commontables.o(.constdata)
    twiddleCoefF64_rfft_64                   0x080520f8   Data         512  commontables.o(.constdata)
    twiddleCoefF64_rfft_128                  0x080522f8   Data        1024  commontables.o(.constdata)
    twiddleCoefF64_rfft_256                  0x080526f8   Data        2048  commontables.o(.constdata)
    twiddleCoefF64_rfft_512                  0x08052ef8   Data        4096  commontables.o(.constdata)
    twiddleCoefF64_rfft_1024                 0x08053ef8   Data        8192  commontables.o(.constdata)
    twiddleCoefF64_rfft_2048                 0x08055ef8   Data       16384  commontables.o(.constdata)
    twiddleCoefF64_rfft_4096                 0x08059ef8   Data       32768  commontables.o(.constdata)
    twiddleCoef_rfft_32                      0x08061ef8   Data         128  commontables.o(.constdata)
    twiddleCoef_rfft_64                      0x08061f78   Data         256  commontables.o(.constdata)
    twiddleCoef_rfft_128                     0x08062078   Data         512  commontables.o(.constdata)
    twiddleCoef_rfft_256                     0x08062278   Data        1024  commontables.o(.constdata)
    twiddleCoef_rfft_512                     0x08062678   Data        2048  commontables.o(.constdata)
    twiddleCoef_rfft_1024                    0x08062e78   Data        4096  commontables.o(.constdata)
    twiddleCoef_rfft_2048                    0x08063e78   Data        8192  commontables.o(.constdata)
    twiddleCoef_rfft_4096                    0x08065e78   Data       16384  commontables.o(.constdata)
    realCoefA                                0x08069e78   Data       32768  commontables.o(.constdata)
    realCoefB                                0x08071e78   Data       32768  commontables.o(.constdata)
    realCoefAQ31                             0x08079e78   Data       32768  commontables.o(.constdata)
    realCoefBQ31                             0x08081e78   Data       32768  commontables.o(.constdata)
    realCoefAQ15                             0x08089e78   Data       16384  commontables.o(.constdata)
    realCoefBQ15                             0x0808de78   Data       16384  commontables.o(.constdata)
    Weights_128                              0x08091e78   Data        1024  commontables.o(.constdata)
    cos_factors_128                          0x08092278   Data         512  commontables.o(.constdata)
    Weights_512                              0x08092478   Data        4096  commontables.o(.constdata)
    cos_factors_512                          0x08093478   Data        2048  commontables.o(.constdata)
    Weights_2048                             0x08093c78   Data       16384  commontables.o(.constdata)
    cos_factors_2048                         0x08097c78   Data        8192  commontables.o(.constdata)
    Weights_8192                             0x08099c78   Data       65536  commontables.o(.constdata)
    cos_factors_8192                         0x080a9c78   Data       32768  commontables.o(.constdata)
    WeightsQ15_128                           0x080b1c78   Data         512  commontables.o(.constdata)
    cos_factorsQ15_128                       0x080b1e78   Data         256  commontables.o(.constdata)
    WeightsQ15_512                           0x080b1f78   Data        2048  commontables.o(.constdata)
    cos_factorsQ15_512                       0x080b2778   Data        1024  commontables.o(.constdata)
    WeightsQ15_2048                          0x080b2b78   Data        8192  commontables.o(.constdata)
    cos_factorsQ15_2048                      0x080b4b78   Data        4096  commontables.o(.constdata)
    WeightsQ15_8192                          0x080b5b78   Data       32768  commontables.o(.constdata)
    cos_factorsQ15_8192                      0x080bdb78   Data       16384  commontables.o(.constdata)
    WeightsQ31_128                           0x080c1b78   Data        1024  commontables.o(.constdata)
    cos_factorsQ31_128                       0x080c1f78   Data         512  commontables.o(.constdata)
    WeightsQ31_512                           0x080c2178   Data        4096  commontables.o(.constdata)
    cos_factorsQ31_512                       0x080c3178   Data        2048  commontables.o(.constdata)
    WeightsQ31_2048                          0x080c3978   Data       16384  commontables.o(.constdata)
    cos_factorsQ31_2048                      0x080c7978   Data        8192  commontables.o(.constdata)
    WeightsQ31_8192                          0x080c9978   Data       65536  commontables.o(.constdata)
    cos_factorsQ31_8192                      0x080d9978   Data       32768  commontables.o(.constdata)
    armRecipTableQ15                         0x080e1978   Data         128  commontables.o(.constdata)
    armRecipTableQ31                         0x080e19f8   Data         256  commontables.o(.constdata)
    sinTable_f32                             0x080e1af8   Data        2052  commontables.o(.constdata)
    sinTable_q31                             0x080e22fc   Data        2052  commontables.o(.constdata)
    sinTable_q15                             0x080e2b00   Data        1026  commontables.o(.constdata)
    arm_cfft_sR_f64_len16                    0x080e2f04   Data          16  commontables.o(.constdata)
    arm_cfft_sR_f64_len32                    0x080e2f14   Data          16  commontables.o(.constdata)
    arm_cfft_sR_f64_len64                    0x080e2f24   Data          16  commontables.o(.constdata)
    arm_cfft_sR_f64_len128                   0x080e2f34   Data          16  commontables.o(.constdata)
    arm_cfft_sR_f64_len256                   0x080e2f44   Data          16  commontables.o(.constdata)
    arm_cfft_sR_f64_len512                   0x080e2f54   Data          16  commontables.o(.constdata)
    arm_cfft_sR_f64_len1024                  0x080e2f64   Data          16  commontables.o(.constdata)
    arm_cfft_sR_f64_len2048                  0x080e2f74   Data          16  commontables.o(.constdata)
    arm_cfft_sR_f64_len4096                  0x080e2f84   Data          16  commontables.o(.constdata)
    arm_cfft_sR_f32_len16                    0x080e2f94   Data          16  commontables.o(.constdata)
    arm_cfft_sR_f32_len32                    0x080e2fa4   Data          16  commontables.o(.constdata)
    arm_cfft_sR_f32_len64                    0x080e2fb4   Data          16  commontables.o(.constdata)
    arm_cfft_sR_f32_len128                   0x080e2fc4   Data          16  commontables.o(.constdata)
    arm_cfft_sR_f32_len256                   0x080e2fd4   Data          16  commontables.o(.constdata)
    arm_cfft_sR_f32_len512                   0x080e2fe4   Data          16  commontables.o(.constdata)
    arm_cfft_sR_f32_len1024                  0x080e2ff4   Data          16  commontables.o(.constdata)
    arm_cfft_sR_f32_len2048                  0x080e3004   Data          16  commontables.o(.constdata)
    arm_cfft_sR_f32_len4096                  0x080e3014   Data          16  commontables.o(.constdata)
    arm_cfft_sR_q31_len16                    0x080e3024   Data          16  commontables.o(.constdata)
    arm_cfft_sR_q31_len32                    0x080e3034   Data          16  commontables.o(.constdata)
    arm_cfft_sR_q31_len64                    0x080e3044   Data          16  commontables.o(.constdata)
    arm_cfft_sR_q31_len128                   0x080e3054   Data          16  commontables.o(.constdata)
    arm_cfft_sR_q31_len256                   0x080e3064   Data          16  commontables.o(.constdata)
    arm_cfft_sR_q31_len512                   0x080e3074   Data          16  commontables.o(.constdata)
    arm_cfft_sR_q31_len1024                  0x080e3084   Data          16  commontables.o(.constdata)
    arm_cfft_sR_q31_len2048                  0x080e3094   Data          16  commontables.o(.constdata)
    arm_cfft_sR_q31_len4096                  0x080e30a4   Data          16  commontables.o(.constdata)
    arm_cfft_sR_q15_len16                    0x080e30b4   Data          16  commontables.o(.constdata)
    arm_cfft_sR_q15_len32                    0x080e30c4   Data          16  commontables.o(.constdata)
    arm_cfft_sR_q15_len64                    0x080e30d4   Data          16  commontables.o(.constdata)
    arm_cfft_sR_q15_len128                   0x080e30e4   Data          16  commontables.o(.constdata)
    arm_cfft_sR_q15_len256                   0x080e30f4   Data          16  commontables.o(.constdata)
    arm_cfft_sR_q15_len512                   0x080e3104   Data          16  commontables.o(.constdata)
    arm_cfft_sR_q15_len1024                  0x080e3114   Data          16  commontables.o(.constdata)
    arm_cfft_sR_q15_len2048                  0x080e3124   Data          16  commontables.o(.constdata)
    arm_cfft_sR_q15_len4096                  0x080e3134   Data          16  commontables.o(.constdata)
    arm_rfft_fast_sR_f64_len32               0x080e3144   Data          24  commontables.o(.constdata)
    arm_rfft_fast_sR_f64_len64               0x080e315c   Data          24  commontables.o(.constdata)
    arm_rfft_fast_sR_f64_len128              0x080e3174   Data          24  commontables.o(.constdata)
    arm_rfft_fast_sR_f64_len256              0x080e318c   Data          24  commontables.o(.constdata)
    arm_rfft_fast_sR_f64_len512              0x080e31a4   Data          24  commontables.o(.constdata)
    arm_rfft_fast_sR_f64_len1024             0x080e31bc   Data          24  commontables.o(.constdata)
    arm_rfft_fast_sR_f64_len2048             0x080e31d4   Data          24  commontables.o(.constdata)
    arm_rfft_fast_sR_f64_len4096             0x080e31ec   Data          24  commontables.o(.constdata)
    arm_rfft_fast_sR_f32_len32               0x080e3204   Data          24  commontables.o(.constdata)
    arm_rfft_fast_sR_f32_len64               0x080e321c   Data          24  commontables.o(.constdata)
    arm_rfft_fast_sR_f32_len128              0x080e3234   Data          24  commontables.o(.constdata)
    arm_rfft_fast_sR_f32_len256              0x080e324c   Data          24  commontables.o(.constdata)
    arm_rfft_fast_sR_f32_len512              0x080e3264   Data          24  commontables.o(.constdata)
    arm_rfft_fast_sR_f32_len1024             0x080e327c   Data          24  commontables.o(.constdata)
    arm_rfft_fast_sR_f32_len2048             0x080e3294   Data          24  commontables.o(.constdata)
    arm_rfft_fast_sR_f32_len4096             0x080e32ac   Data          24  commontables.o(.constdata)
    arm_rfft_sR_q31_len32                    0x080e32c4   Data          24  commontables.o(.constdata)
    arm_rfft_sR_q31_len64                    0x080e32dc   Data          24  commontables.o(.constdata)
    arm_rfft_sR_q31_len128                   0x080e32f4   Data          24  commontables.o(.constdata)
    arm_rfft_sR_q31_len256                   0x080e330c   Data          24  commontables.o(.constdata)
    arm_rfft_sR_q31_len512                   0x080e3324   Data          24  commontables.o(.constdata)
    arm_rfft_sR_q31_len1024                  0x080e333c   Data          24  commontables.o(.constdata)
    arm_rfft_sR_q31_len2048                  0x080e3354   Data          24  commontables.o(.constdata)
    arm_rfft_sR_q31_len4096                  0x080e336c   Data          24  commontables.o(.constdata)
    arm_rfft_sR_q31_len8192                  0x080e3384   Data          24  commontables.o(.constdata)
    arm_rfft_sR_q15_len32                    0x080e339c   Data          24  commontables.o(.constdata)
    arm_rfft_sR_q15_len64                    0x080e33b4   Data          24  commontables.o(.constdata)
    arm_rfft_sR_q15_len128                   0x080e33cc   Data          24  commontables.o(.constdata)
    arm_rfft_sR_q15_len256                   0x080e33e4   Data          24  commontables.o(.constdata)
    arm_rfft_sR_q15_len512                   0x080e33fc   Data          24  commontables.o(.constdata)
    arm_rfft_sR_q15_len1024                  0x080e3414   Data          24  commontables.o(.constdata)
    arm_rfft_sR_q15_len2048                  0x080e342c   Data          24  commontables.o(.constdata)
    arm_rfft_sR_q15_len4096                  0x080e3444   Data          24  commontables.o(.constdata)
    arm_rfft_sR_q15_len8192                  0x080e345c   Data          24  commontables.o(.constdata)
    Region$$Table$$Base                      0x080e3474   Number         0  anon$$obj.o(Region$$Table)
    Region$$Table$$Limit                     0x080e3494   Number         0  anon$$obj.o(Region$$Table)
    mem_infor                                0x20000000   Data           4  main.o(.data)
    fac_us                                   0x20000004   Data           1  systick.o(.data)
    fac_ms                                   0x20000008   Data           4  systick.o(.data)
    __stdout                                 0x2000000c   Data           4  stdout.o(.data)
    uid                                      0x20000014   Data          12  main.o(.bss)
    S                                        0x20000020   Data          24  dsp_test.o(.bss)
    S_CFFT                                   0x20000038   Data          20  dsp_test.o(.bss)
    __initial_sp                             0x20000c50   Data           0  startup_gd32f10x_xd.o(STACK)



==============================================================================

Memory Map of the image

  Image Entry point : 0x08000131

  Load Region LR_IROM1 (Base: 0x08000000, Size: 0x000e34a8, Max: 0x00300000, ABSOLUTE)

    Execution Region ER_IROM1 (Exec base: 0x08000000, Load base: 0x08000000, Size: 0x000e3494, Max: 0x00300000, ABSOLUTE)

    Exec Addr    Load Addr    Size         Type   Attr      Idx    E Section Name        Object

    0x08000000   0x08000000   0x00000130   Data   RO          296    RESET               startup_gd32f10x_xd.o
    0x08000130   0x08000130   0x00000000   Code   RO         7982  * .ARM.Collect$$$$00000000  mc_w.l(entry.o)
    0x08000130   0x08000130   0x00000004   Code   RO         8327    .ARM.Collect$$$$00000001  mc_w.l(entry2.o)
    0x08000134   0x08000134   0x00000004   Code   RO         8330    .ARM.Collect$$$$00000004  mc_w.l(entry5.o)
    0x08000138   0x08000138   0x00000000   Code   RO         8332    .ARM.Collect$$$$00000008  mc_w.l(entry7b.o)
    0x08000138   0x08000138   0x00000000   Code   RO         8334    .ARM.Collect$$$$0000000A  mc_w.l(entry8b.o)
    0x08000138   0x08000138   0x00000008   Code   RO         8335    .ARM.Collect$$$$0000000B  mc_w.l(entry9a.o)
    0x08000140   0x08000140   0x00000000   Code   RO         8337    .ARM.Collect$$$$0000000D  mc_w.l(entry10a.o)
    0x08000140   0x08000140   0x00000000   Code   RO         8339    .ARM.Collect$$$$0000000F  mc_w.l(entry11a.o)
    0x08000140   0x08000140   0x00000004   Code   RO         8328    .ARM.Collect$$$$00002712  mc_w.l(entry2.o)
    0x08000144   0x08000144   0x00000024   Code   RO          297    .text               startup_gd32f10x_xd.o
    0x08000168   0x08000168   0x00000062   Code   RO         7985    .text               mc_w.l(uldiv.o)
    0x080001ca   0x080001ca   0x0000001e   Code   RO         7989    .text               mc_w.l(llshl.o)
    0x080001e8   0x080001e8   0x00000024   Code   RO         7991    .text               mc_w.l(llsshr.o)
    0x0800020c   0x0800020c   0x000000b0   Code   RO         8260    .text               mf_w.l(fadd.o)
    0x080002bc   0x080002bc   0x00000064   Code   RO         8262    .text               mf_w.l(fmul.o)
    0x08000320   0x08000320   0x0000007c   Code   RO         8264    .text               mf_w.l(fdiv.o)
    0x0800039c   0x0800039c   0x0000014e   Code   RO         8266    .text               mf_w.l(dadd.o)
    0x080004ea   0x080004ea   0x000000e4   Code   RO         8268    .text               mf_w.l(dmul.o)
    0x080005ce   0x080005ce   0x000000de   Code   RO         8270    .text               mf_w.l(ddiv.o)
    0x080006ac   0x080006ac   0x00000012   Code   RO         8272    .text               mf_w.l(fflti.o)
    0x080006be   0x080006be   0x0000000a   Code   RO         8274    .text               mf_w.l(ffltui.o)
    0x080006c8   0x080006c8   0x00000032   Code   RO         8278    .text               mf_w.l(ffixi.o)
    0x080006fa   0x080006fa   0x00000028   Code   RO         8280    .text               mf_w.l(ffixui.o)
    0x08000722   0x08000722   0x00000026   Code   RO         8284    .text               mf_w.l(f2d.o)
    0x08000748   0x08000748   0x00000014   Code   RO         8290    .text               mf_w.l(cfcmple.o)
    0x0800075c   0x0800075c   0x00000014   Code   RO         8292    .text               mf_w.l(cfrcmple.o)
    0x08000770   0x08000770   0x0000002c   Code   RO         8342    .text               mc_w.l(uidiv.o)
    0x0800079c   0x0800079c   0x00000020   Code   RO         8344    .text               mc_w.l(llushr.o)
    0x080007bc   0x080007bc   0x00000000   Code   RO         8353    .text               mc_w.l(iusefp.o)
    0x080007bc   0x080007bc   0x0000006e   Code   RO         8354    .text               mf_w.l(fepilogue.o)
    0x0800082a   0x0800082a   0x0000005e   Code   RO         8358    .text               mf_w.l(fsqrt.o)
    0x08000888   0x08000888   0x000000ba   Code   RO         8362    .text               mf_w.l(depilogue.o)
    0x08000942   0x08000942   0x00000030   Code   RO         8368    .text               mf_w.l(dfixul.o)
    0x08000972   0x08000972   0x00000002   PAD
    0x08000974   0x08000974   0x00000030   Code   RO         8372    .text               mf_w.l(cdrcmple.o)
    0x080009a4   0x080009a4   0x00000024   Code   RO         8376    .text               mc_w.l(init.o)
    0x080009c8   0x080009c8   0x00000004   Code   RO            4    i.BusFault_Handler  gd32f10x_it.o
    0x080009cc   0x080009cc   0x00000002   Code   RO            5    i.DebugMon_Handler  gd32f10x_it.o
    0x080009ce   0x080009ce   0x00000004   Code   RO            6    i.HardFault_Handler  gd32f10x_it.o
    0x080009d2   0x080009d2   0x00000004   Code   RO            7    i.MemManage_Handler  gd32f10x_it.o
    0x080009d6   0x080009d6   0x00000002   Code   RO            8    i.NMI_Handler       gd32f10x_it.o
    0x080009d8   0x080009d8   0x00000002   Code   RO            9    i.PendSV_Handler    gd32f10x_it.o
    0x080009da   0x080009da   0x00000002   Code   RO           10    i.SVC_Handler       gd32f10x_it.o
    0x080009dc   0x080009dc   0x000000d4   Code   RO          257    i.SystemInit        system_gd32f10x.o
    0x08000ab0   0x08000ab0   0x00000004   Code   RO           11    i.UsageFault_Handler  gd32f10x_it.o
    0x08000ab4   0x08000ab4   0x00000020   Code   RO         8232    i.__0printf         mc_w.l(printfa.o)
    0x08000ad4   0x08000ad4   0x0000000e   Code   RO         8380    i.__scatterload_copy  mc_w.l(handlers.o)
    0x08000ae2   0x08000ae2   0x00000002   Code   RO         8381    i.__scatterload_null  mc_w.l(handlers.o)
    0x08000ae4   0x08000ae4   0x0000000e   Code   RO         8382    i.__scatterload_zeroinit  mc_w.l(handlers.o)
    0x08000af2   0x08000af2   0x00000002   PAD
    0x08000af4   0x08000af4   0x0000000c   Code   RO         8348    i.__set_errno       mc_w.l(errno.o)
    0x08000b00   0x08000b00   0x00000184   Code   RO         8239    i._fp_digits        mc_w.l(printfa.o)
    0x08000c84   0x08000c84   0x000006dc   Code   RO         8240    i._printf_core      mc_w.l(printfa.o)
    0x08001360   0x08001360   0x00000024   Code   RO         8241    i._printf_post_padding  mc_w.l(printfa.o)
    0x08001384   0x08001384   0x0000002e   Code   RO         8242    i._printf_pre_padding  mc_w.l(printfa.o)
    0x080013b2   0x080013b2   0x0000016a   Code   RO         7275    i.arm_bitreversal_f32  transformfunctions.o
    0x0800151c   0x0800151c   0x000000a8   Code   RO         7293    i.arm_cfft_radix4_init_f32  transformfunctions.o
    0x080015c4   0x080015c4   0x0000029c   Code   RO         7317    i.arm_radix4_butterfly_f32  transformfunctions.o
    0x08001860   0x08001860   0x00000436   Code   RO         7319    i.arm_radix4_butterfly_inverse_f32  transformfunctions.o
    0x08001c96   0x08001c96   0x0000007c   Code   RO         7341    i.arm_rfft_f32      transformfunctions.o
    0x08001d12   0x08001d12   0x00000002   PAD
    0x08001d14   0x08001d14   0x00000094   Code   RO         7346    i.arm_rfft_init_f32  transformfunctions.o
    0x08001da8   0x08001da8   0x000000b4   Code   RO         5245    i.arm_sin_f32       fastmathfunctions.o
    0x08001e5c   0x08001e5c   0x0000013e   Code   RO         7351    i.arm_split_rfft_f32  transformfunctions.o
    0x08001f9a   0x08001f9a   0x000000da   Code   RO         7354    i.arm_split_rifft_f32  transformfunctions.o
    0x08002074   0x08002074   0x0000002a   Code   RO         4006    i.delay_ms          systick.o
    0x0800209e   0x0800209e   0x00000002   PAD
    0x080020a0   0x080020a0   0x00000050   Code   RO         4007    i.delay_nms         systick.o
    0x080020f0   0x080020f0   0x0000019c   Code   RO         4104    i.dsp_test          dsp_test.o
    0x0800228c   0x0800228c   0x00000024   Code   RO         4071    i.fputc             print.o
    0x080022b0   0x080022b0   0x00000014   Code   RO         3976    i.get_mem_infor     bitband.o
    0x080022c4   0x080022c4   0x0000001c   Code   RO         3977    i.get_uid           bitband.o
    0x080022e0   0x080022e0   0x000000ac   Code   RO         1866    i.gpio_init         gd32f10x_gpio.o
    0x0800238c   0x0800238c   0x00000068   Code   RO         3934    i.led_init          led.o
    0x080023f4   0x080023f4   0x00000024   Code   RO         3935    i.led_off           led.o
    0x08002418   0x08002418   0x00000024   Code   RO         3936    i.led_on            led.o
    0x0800243c   0x0800243c   0x000000b8   Code   RO          174    i.main              main.o
    0x080024f4   0x080024f4   0x00000018   Code   RO         2184    i.nvic_vector_table_set  gd32f10x_misc.o
    0x0800250c   0x0800250c   0x00000080   Code   RO         4072    i.print_config      print.o
    0x0800258c   0x0800258c   0x00000124   Code   RO         2340    i.rcu_clock_freq_get  gd32f10x_rcu.o
    0x080026b0   0x080026b0   0x00000020   Code   RO         2357    i.rcu_periph_clock_enable  gd32f10x_rcu.o
    0x080026d0   0x080026d0   0x0000002c   Code   RO         7967    i.sqrtf             m_ws.l(sqrtf.o)
    0x080026fc   0x080026fc   0x000000bc   Code   RO          258    i.system_clock_96m_hxtal  system_gd32f10x.o
    0x080027b8   0x080027b8   0x00000008   Code   RO          259    i.system_clock_config  system_gd32f10x.o
    0x080027c0   0x080027c0   0x00000028   Code   RO         2187    i.systick_clksource_set  gd32f10x_misc.o
    0x080027e8   0x080027e8   0x00000024   Code   RO         4012    i.systick_set       systick.o
    0x0800280c   0x0800280c   0x00000090   Code   RO         3599    i.usart_baudrate_set  gd32f10x_usart.o
    0x0800289c   0x0800289c   0x00000008   Code   RO         3601    i.usart_data_transmit  gd32f10x_usart.o
    0x080028a4   0x080028a4   0x0000000a   Code   RO         3606    i.usart_enable      gd32f10x_usart.o
    0x080028ae   0x080028ae   0x0000001e   Code   RO         3608    i.usart_flag_get    gd32f10x_usart.o
    0x080028cc   0x080028cc   0x00000010   Code   RO         3612    i.usart_hardware_flow_cts_config  gd32f10x_usart.o
    0x080028dc   0x080028dc   0x00000010   Code   RO         3613    i.usart_hardware_flow_rts_config  gd32f10x_usart.o
    0x080028ec   0x080028ec   0x00000010   Code   RO         3627    i.usart_parity_config  gd32f10x_usart.o
    0x080028fc   0x080028fc   0x00000010   Code   RO         3629    i.usart_receive_config  gd32f10x_usart.o
    0x0800290c   0x0800290c   0x00000010   Code   RO         3635    i.usart_stop_bit_set  gd32f10x_usart.o
    0x0800291c   0x0800291c   0x00000010   Code   RO         3639    i.usart_transmit_config  gd32f10x_usart.o
    0x0800292c   0x0800292c   0x00000010   Code   RO         3640    i.usart_word_length_set  gd32f10x_usart.o
    0x0800293c   0x0800293c   0x00000004   PAD
    0x08002940   0x08002940   0x000e0b34   Data   RO         4711    .constdata          commontables.o
    0x080e3474   0x080e3474   0x00000020   Data   RO         8378    Region$$Table       anon$$obj.o


    Execution Region RW_IRAM1 (Exec base: 0x20000000, Load base: 0x080e3494, Size: 0x00000c50, Max: 0x00018000, ABSOLUTE)

    Exec Addr    Load Addr    Size         Type   Attr      Idx    E Section Name        Object

    0x20000000   0x080e3494   0x00000004   Data   RW          176    .data               main.o
    0x20000004   0x080e3498   0x00000008   Data   RW         4013    .data               systick.o
    0x2000000c   0x080e34a0   0x00000004   Data   RW         8341    .data               mc_w.l(stdout.o)
    0x20000010   0x080e34a4   0x00000004   Data   RW         8349    .data               mc_w.l(errno.o)
    0x20000014        -       0x0000000c   Zero   RW          175    .bss                main.o
    0x20000020        -       0x0000082c   Zero   RW         4105    .bss                dsp_test.o
    0x2000084c   0x080e34a8   0x00000004   PAD
    0x20000850        -       0x00000400   Zero   RW          294    STACK               startup_gd32f10x_xd.o


==============================================================================

Image component sizes


      Code (inc. data)   RO Data    RW Data    ZI Data      Debug   Object Name

        48         10          0          0          0       1194   bitband.o
         0          0     920372          0          0      13459   commontables.o
       412         52          0          0       2092      21198   dsp_test.o
       180         10          0          0          0        782   fastmathfunctions.o
       172          0          0          0          0        796   gd32f10x_gpio.o
        24          0          0          0          0      26924   gd32f10x_it.o
        64          8          0          0          0       1016   gd32f10x_misc.o
       324         32          0          0          0       1575   gd32f10x_rcu.o
       304          8          0          0          0       6107   gd32f10x_usart.o
       176         32          0          0          0       3034   led.o
       184         92          0          4         12      26391   main.o
       164         12          0          0          0       1043   print.o
        36          8        304          0       1024        772   startup_gd32f10x_xd.o
       408         24          0          0          0       2153   system_gd32f10x.o
       158         16          0          8          0       1749   systick.o
      3084         22          0          0          0      10221   transformfunctions.o

    ----------------------------------------------------------------------
      5746        326     920708         12       3132     118414   Object Totals
         0          0         32          0          0          0   (incl. Generated)
         8          0          0          0          4          0   (incl. Padding)

    ----------------------------------------------------------------------

      Code (inc. data)   RO Data    RW Data    ZI Data      Debug   Library Member Name

        44          0          0          0          0         80   sqrtf.o
         0          0          0          0          0          0   entry.o
         0          0          0          0          0          0   entry10a.o
         0          0          0          0          0          0   entry11a.o
         8          4          0          0          0          0   entry2.o
         4          0          0          0          0          0   entry5.o
         0          0          0          0          0          0   entry7b.o
         0          0          0          0          0          0   entry8b.o
         8          4          0          0          0          0   entry9a.o
        12          6          0          4          0         68   errno.o
        30          0          0          0          0          0   handlers.o
        36          8          0          0          0         68   init.o
         0          0          0          0          0          0   iusefp.o
        30          0          0          0          0         68   llshl.o
        36          0          0          0          0         68   llsshr.o
        32          0          0          0          0         68   llushr.o
      2258         90          0          0          0        452   printfa.o
         0          0          0          4          0          0   stdout.o
        44          0          0          0          0         80   uidiv.o
        98          0          0          0          0         92   uldiv.o
        48          0          0          0          0         68   cdrcmple.o
        20          0          0          0          0         68   cfcmple.o
        20          0          0          0          0         68   cfrcmple.o
       334          0          0          0          0        148   dadd.o
       222          0          0          0          0        100   ddiv.o
       186          0          0          0          0        176   depilogue.o
        48          0          0          0          0         68   dfixul.o
       228          0          0          0          0         96   dmul.o
        38          0          0          0          0         68   f2d.o
       176          0          0          0          0        140   fadd.o
       124          0          0          0          0         88   fdiv.o
       110          0          0          0          0        168   fepilogue.o
        50          0          0          0          0         68   ffixi.o
        40          0          0          0          0         68   ffixui.o
        18          0          0          0          0         68   fflti.o
        10          0          0          0          0         68   ffltui.o
       100          0          0          0          0         76   fmul.o
        94          0          0          0          0         96   fsqrt.o

    ----------------------------------------------------------------------
      4510        112          0          8          0       2744   Library Totals
         4          0          0          0          0          0   (incl. Padding)

    ----------------------------------------------------------------------

      Code (inc. data)   RO Data    RW Data    ZI Data      Debug   Library Name

        44          0          0          0          0         80   m_ws.l
      2596        112          0          8          0        964   mc_w.l
      1866          0          0          0          0       1700   mf_w.l

    ----------------------------------------------------------------------
      4510        112          0          8          0       2744   Library Totals

    ----------------------------------------------------------------------

==============================================================================


      Code (inc. data)   RO Data    RW Data    ZI Data      Debug   

     10256        438     920708         20       3132     117514   Grand Totals
     10256        438     920708         20       3132     117514   ELF Image Totals
     10256        438     920708         20          0          0   ROM Totals

==============================================================================

    Total RO  Size (Code + RO Data)               930964 ( 909.14kB)
    Total RW  Size (RW Data + ZI Data)              3152 (   3.08kB)
    Total ROM Size (Code + RO Data + RW Data)     930984 ( 909.16kB)

==============================================================================

