Component: ARM Compiler 5.06 update 6 (build 750) Tool: armlink [4d35ed]

==============================================================================

Section Cross References

    main.o(i.main) refers to systick.o(i.systick_set) for systick_set
    main.o(i.main) refers to led.o(i.led_init) for led_init
    main.o(i.main) refers to print.o(i.print_config) for print_config
    main.o(i.main) refers to bitband.o(i.get_mem_infor) for get_mem_infor
    main.o(i.main) refers to printfa.o(i.__0printf) for __2printf
    main.o(i.main) refers to bitband.o(i.get_uid) for get_uid
    main.o(i.main) refers to dsp_test.o(i.dsp_test) for dsp_test
    main.o(i.main) refers to led.o(i.led_on) for led_on
    main.o(i.main) refers to systick.o(i.delay_ms) for delay_ms
    main.o(i.main) refers to led.o(i.led_off) for led_off
    main.o(i.main) refers to main.o(.data) for mem_infor
    main.o(i.main) refers to main.o(.bss) for uid
    system_gd32f10x.o(i.SystemInit) refers to system_gd32f10x.o(i.system_clock_config) for system_clock_config
    system_gd32f10x.o(i.SystemInit) refers to gd32f10x_misc.o(i.nvic_vector_table_set) for nvic_vector_table_set
    system_gd32f10x.o(i.system_clock_config) refers to system_gd32f10x.o(i.system_clock_96m_hxtal) for system_clock_96m_hxtal
    startup_gd32f10x_xd.o(RESET) refers to startup_gd32f10x_xd.o(STACK) for __initial_sp
    startup_gd32f10x_xd.o(RESET) refers to startup_gd32f10x_xd.o(.text) for Reset_Handler
    startup_gd32f10x_xd.o(RESET) refers to gd32f10x_it.o(i.NMI_Handler) for NMI_Handler
==============================================================================

Removing Unused input sections from the image.

    Removing gd32f10x_it.o(.rev16_text), (4 bytes).
    Removing gd32f10x_it.o(.revsh_text), (4 bytes).
    Removing gd32f10x_it.o(.rrx_text), (6 bytes).
    Removing main.o(.rev16_text), (4 bytes).
    Removing main.o(.revsh_text), (4 bytes).
    Removing main.o(.rrx_text), (6 bytes).
    Removing system_gd32f10x.o(.rev16_text), (4 bytes).
    Removing system_gd32f10x.o(.revsh_text), (4 bytes).
    Removing system_gd32f10x.o(.rrx_text), (6 bytes).
    Removing system_gd32f10x.o(.data), (4 bytes).
    Removing startup_gd32f10x_xd.o(HEAP), (512 bytes).
    Removing gd32f10x_adc.o(.rev16_text), (4 bytes).
    Removing gd32f10x_adc.o(.revsh_text), (4 bytes).
    Removing gd32f10x_adc.o(.rrx_text), (6 bytes).
    Removing gd32f10x_adc.o(i.adc_calibration_enable), (42 bytes).
    Removing gd32f10x_adc.o(i.adc_channel_length_config), (70 bytes).
    Removing gd32f10x_adc.o(i.adc_data_alignment_config), (22 bytes).
    Removing gd32f10x_adc.o(i.adc_deinit), (88 bytes).
==============================================================================

Image Symbol Table

    Local Symbols

    Symbol Name                              Value     Ov Type        Size  Object(Section)

    ../clib/microlib/division.c              0x00000000   Number         0  uidiv.o ABSOLUTE
    ../clib/microlib/division.c              0x00000000   Number         0  ldiv.o ABSOLUTE
    ../clib/microlib/division.c              0x00000000   Number         0  uldiv.o ABSOLUTE
    ../clib/microlib/errno.c                 0x00000000   Number         0  errno.o ABSOLUTE
    ../clib/microlib/init/entry.s            0x00000000   Number         0  entry.o ABSOLUTE
    ../clib/microlib/init/entry.s            0x00000000   Number         0  entry2.o ABSOLUTE
    ../clib/microlib/init/entry.s            0x00000000   Number         0  entry5.o ABSOLUTE
    ../clib/microlib/init/entry.s            0x00000000   Number         0  entry7b.o ABSOLUTE
    ../clib/microlib/init/entry.s            0x00000000   Number         0  entry8a.o ABSOLUTE
    ../clib/microlib/init/entry.s            0x00000000   Number         0  entry8b.o ABSOLUTE
    ../clib/microlib/init/entry.s            0x00000000   Number         0  entry9a.o ABSOLUTE
    ../clib/microlib/init/entry.s            0x00000000   Number         0  entry9b.o ABSOLUTE
    ../clib/microlib/init/entry.s            0x00000000   Number         0  entry10b.o ABSOLUTE
    ../clib/microlib/init/entry.s            0x00000000   Number         0  entry11a.o ABSOLUTE
    ../clib/microlib/init/entry.s            0x00000000   Number         0  entry11b.o ABSOLUTE
    ../clib/microlib/init/entry.s            0x00000000   Number         0  entry7a.o ABSOLUTE
    ../clib/microlib/init/entry.s            0x00000000   Number         0  entry10a.o ABSOLUTE
    ../clib/microlib/longlong.c              0x00000000   Number         0  llushr.o ABSOLUTE
    ../clib/microlib/longlong.c              0x00000000   Number         0  llshl.o ABSOLUTE
    ../clib/microlib/longlong.c              0x00000000   Number         0  llsshr.o ABSOLUTE
    ../clib/microlib/printf/printf.c         0x00000000   Number         0  printf8.o ABSOLUTE
    ../clib/microlib/printf/printf.c         0x00000000   Number         0  printf7.o ABSOLUTE
    ../clib/microlib/printf/printf.c         0x00000000   Number         0  printf6.o ABSOLUTE
    ../clib/microlib/printf/printf.c         0x00000000   Number         0  printf4.o ABSOLUTE
    ../clib/microlib/printf/printf.c         0x00000000   Number         0  printf3.o ABSOLUTE
    ../clib/microlib/printf/printf.c         0x00000000   Number         0  printf2.o ABSOLUTE
    ../clib/microlib/printf/printf.c         0x00000000   Number         0  printf1.o ABSOLUTE
    ../clib/microlib/printf/printf.c         0x00000000   Number         0  printf0.o ABSOLUTE
    ../clib/microlib/printf/printf.c         0x00000000   Number         0  printfb.o ABSOLUTE
    ../clib/microlib/printf/printf.c         0x00000000   Number         0  printf5.o ABSOLUTE
    ../clib/microlib/printf/printf.c         0x00000000   Number         0  printfa.o ABSOLUTE
    ../clib/microlib/printf/stubs.s          0x00000000   Number         0  stubs.o ABSOLUTE
    ../clib/microlib/stdio/streams.c         0x00000000   Number         0  stdout.o ABSOLUTE
    ../clib/microlib/string/memcpy.c         0x00000000   Number         0  memcpyb.o ABSOLUTE
    ../clib/microlib/string/memcpy.c         0x00000000   Number         0  memcpya.o ABSOLUTE
    ../clib/microlib/string/memset.c         0x00000000   Number         0  memseta.o ABSOLUTE
    ../clib/microlib/stubs.s                 0x00000000   Number         0  iusefp.o ABSOLUTE
    ../fplib/microlib/d2f.c                  0x00000000   Number         0  d2f.o ABSOLUTE
    ../fplib/microlib/f2d.c                  0x00000000   Number         0  f2d.o ABSOLUTE
    ../fplib/microlib/fpadd.c                0x00000000   Number         0  fadd.o ABSOLUTE
    ../fplib/microlib/fpadd.c                0x00000000   Number         0  dadd.o ABSOLUTE
    ../fplib/microlib/fpdiv.c                0x00000000   Number         0  ddiv.o ABSOLUTE
    ../fplib/microlib/fpdiv.c                0x00000000   Number         0  fdiv.o ABSOLUTE
    ../fplib/microlib/fpepilogue.c           0x00000000   Number         0  depilogue.o ABSOLUTE
    ../fplib/microlib/fpepilogue.c           0x00000000   Number         0  fepilogue.o ABSOLUTE
    ../fplib/microlib/fpfix.c                0x00000000   Number         0  dfixul.o ABSOLUTE
    ../fplib/microlib/fpfix.c                0x00000000   Number         0  ffixir.o ABSOLUTE
    ../fplib/microlib/fpfix.c                0x00000000   Number         0  ffixl.o ABSOLUTE
    ../fplib/microlib/fpfix.c                0x00000000   Number         0  ffixui.o ABSOLUTE
    ../fplib/microlib/fpfix.c                0x00000000   Number         0  ffixi.o ABSOLUTE
    ../fplib/microlib/fpflt.c                0x00000000   Number         0  fflti.o ABSOLUTE
    ../fplib/microlib/fpflt.c                0x00000000   Number         0  dfltui.o ABSOLUTE
    ../fplib/microlib/fpflt.c                0x00000000   Number         0  dflti.o ABSOLUTE
    ../fplib/microlib/fpflt.c                0x00000000   Number         0  ffltui.o ABSOLUTE
    ../fplib/microlib/fpmul.c                0x00000000   Number         0  dmul.o ABSOLUTE
    ../fplib/microlib/fpmul.c                0x00000000   Number         0  fmul.o ABSOLUTE
    ../fplib/microlib/fprnd.c                0x00000000   Number         0  frnd.o ABSOLUTE
    ../fplib/microlib/fpscalb.c              0x00000000   Number         0  dscalb.o ABSOLUTE
    ../fplib/microlib/fpscalb.c              0x00000000   Number         0  fscalb.o ABSOLUTE
    ../fplib/microlib/fpsqrt.c               0x00000000   Number         0  fsqrt.o ABSOLUTE
    ../fplib/microlib/fpstat.c               0x00000000   Number         0  fpstat.o ABSOLUTE
    ../mathlib/dunder.c                      0x00000000   Number         0  dunder.o ABSOLUTE
    ../mathlib/expf.c                        0x00000000   Number         0  expf_x.o ABSOLUTE
    ../mathlib/expf.c                        0x00000000   Number         0  expf.o ABSOLUTE
    ../mathlib/fpclassifyf.c                 0x00000000   Number         0  fpclassifyf.o ABSOLUTE
    ../mathlib/funder.c                      0x00000000   Number         0  funder.o ABSOLUTE
    ../mathlib/log.c                         0x00000000   Number         0  log.o ABSOLUTE
    ../mathlib/log.c                         0x00000000   Number         0  log_x.o ABSOLUTE
    ../mathlib/logf.c                        0x00000000   Number         0  logf.o ABSOLUTE
    ../mathlib/logf.c                        0x00000000   Number         0  logf_x.o ABSOLUTE
    ../mathlib/poly.c                        0x00000000   Number         0  poly.o ABSOLUTE
    ../mathlib/powf.c                        0x00000000   Number         0  powf.o ABSOLUTE
    ../mathlib/powf.c                        0x00000000   Number         0  powf_x.o ABSOLUTE
    ../mathlib/qnan.c                        0x00000000   Number         0  qnan.o ABSOLUTE
    ../mathlib/sqrtf.c                       0x00000000   Number         0  sqrtf.o ABSOLUTE
    ../mathlib/sqrtf.c                       0x00000000   Number         0  sqrtf_x.o ABSOLUTE
    ../mathlib/tanhf.c                       0x00000000   Number         0  tanhf.o ABSOLUTE
    ../mathlib/tanhf.c                       0x00000000   Number         0  tanhf_x.o ABSOLUTE
    F:\Keil_MDK\pack\ARM\CMSIS\5.7.0\CMSIS\DSP\Source\BasicMathFunctions\BasicMathFunctions.c 0x00000000   Number         0  basicmathfunctions.o ABSOLUTE
    F:\Keil_MDK\pack\ARM\CMSIS\5.7.0\CMSIS\DSP\Source\BayesFunctions\BayesFunctions.c 0x00000000   Number         0  bayesfunctions.o ABSOLUTE
    F:\Keil_MDK\pack\ARM\CMSIS\5.7.0\CMSIS\DSP\Source\CommonTables\CommonTables.c 0x00000000   Number         0  commontables.o ABSOLUTE
    F:\Keil_MDK\pack\ARM\CMSIS\5.7.0\CMSIS\DSP\Source\ComplexMathFunctions\ComplexMathFunctions.c 0x00000000   Number         0  complexmathfunctions.o ABSOLUTE
    F:\Keil_MDK\pack\ARM\CMSIS\5.7.0\CMSIS\DSP\Source\ControllerFunctions\ControllerFunctions.c 0x00000000   Number         0  controllerfunctions.o ABSOLUTE
    F:\Keil_MDK\pack\ARM\CMSIS\5.7.0\CMSIS\DSP\Source\DistanceFunctions\DistanceFunctions.c 0x00000000   Number         0  distancefunctions.o ABSOLUTE
    F:\Keil_MDK\pack\ARM\CMSIS\5.7.0\CMSIS\DSP\Source\FastMathFunctions\FastMathFunctions.c 0x00000000   Number         0  fastmathfunctions.o ABSOLUTE
    F:\Keil_MDK\pack\ARM\CMSIS\5.7.0\CMSIS\DSP\Source\FilteringFunctions\FilteringFunctions.c 0x00000000   Number         0  filteringfunctions.o ABSOLUTE
    F:\Keil_MDK\pack\ARM\CMSIS\5.7.0\CMSIS\DSP\Source\MatrixFunctions\MatrixFunctions.c 0x00000000   Number         0  matrixfunctions.o ABSOLUTE
    F:\Keil_MDK\pack\ARM\CMSIS\5.7.0\CMSIS\DSP\Source\SVMFunctions\SVMFunctions.c 0x00000000   Number         0  svmfunctions.o ABSOLUTE
    F:\Keil_MDK\pack\ARM\CMSIS\5.7.0\CMSIS\DSP\Source\StatisticsFunctions\StatisticsFunctions.c 0x00000000   Number         0  statisticsfunctions.o ABSOLUTE
    F:\Keil_MDK\pack\ARM\CMSIS\5.7.0\CMSIS\DSP\Source\SupportFunctions\SupportFunctions.c 0x00000000   Number         0  supportfunctions.o ABSOLUTE
    F:\Keil_MDK\pack\ARM\CMSIS\5.7.0\CMSIS\DSP\Source\TransformFunctions\TransformFunctions.c 0x00000000   Number         0  transformfunctions.o ABSOLUTE
    F:\\Keil_MDK\\pack\\ARM\\CMSIS\\5.7.0\\CMSIS\\DSP\\Source\\BasicMathFunctions\\BasicMathFunctions.c 0x00000000   Number         0  basicmathfunctions.o ABSOLUTE
    F:\\Keil_MDK\\pack\\ARM\\CMSIS\\5.7.0\\CMSIS\\DSP\\Source\\BayesFunctions\\BayesFunctions.c 0x00000000   Number         0  bayesfunctions.o ABSOLUTE
    F:\\Keil_MDK\\pack\\ARM\\CMSIS\\5.7.0\\CMSIS\\DSP\\Source\\CommonTables\\CommonTables.c 0x00000000   Number         0  commontables.o ABSOLUTE
    F:\\Keil_MDK\\pack\\ARM\\CMSIS\\5.7.0\\CMSIS\\DSP\\Source\\ComplexMathFunctions\\ComplexMathFunctions.c 0x00000000   Number         0  complexmathfunctions.o ABSOLUTE
    F:\\Keil_MDK\\pack\\ARM\\CMSIS\\5.7.0\\CMSIS\\DSP\\Source\\ControllerFunctions\\ControllerFunctions.c 0x00000000   Number         0  controllerfunctions.o ABSOLUTE
    F:\\Keil_MDK\\pack\\ARM\\CMSIS\\5.7.0\\CMSIS\\DSP\\Source\\DistanceFunctions\\DistanceFunctions.c 0x00000000   Number         0  distancefunctions.o ABSOLUTE
    F:\\Keil_MDK\\pack\\ARM\\CMSIS\\5.7.0\\CMSIS\\DSP\\Source\\FastMathFunctions\\FastMathFunctions.c 0x00000000   Number         0  fastmathfunctions.o ABSOLUTE
    F:\\Keil_MDK\\pack\\ARM\\CMSIS\\5.7.0\\CMSIS\\DSP\\Source\\FilteringFunctions\\FilteringFunctions.c 0x00000000   Number         0  filteringfunctions.o ABSOLUTE
    F:\\Keil_MDK\\pack\\ARM\\CMSIS\\5.7.0\\CMSIS\\DSP\\Source\\MatrixFunctions\\MatrixFunctions.c 0x00000000   Number         0  matrixfunctions.o ABSOLUTE
    F:\\Keil_MDK\\pack\\ARM\\CMSIS\\5.7.0\\CMSIS\\DSP\\Source\\SVMFunctions\\SVMFunctions.c 0x00000000   Number         0  svmfunctions.o ABSOLUTE
    F:\\Keil_MDK\\pack\\ARM\\CMSIS\\5.7.0\\CMSIS\\DSP\\Source\\StatisticsFunctions\\StatisticsFunctions.c 0x00000000   Number         0  statisticsfunctions.o ABSOLUTE
    F:\\Keil_MDK\\pack\\ARM\\CMSIS\\5.7.0\\CMSIS\\DSP\\Source\\SupportFunctions\\SupportFunctions.c 0x00000000   Number         0  supportfunctions.o ABSOLUTE
    F:\\Keil_MDK\\pack\\ARM\\CMSIS\\5.7.0\\CMSIS\\DSP\\Source\\TransformFunctions\\TransformFunctions.c 0x00000000   Number         0  transformfunctions.o ABSOLUTE
    cdcmple.s                                0x00000000   Number         0  cdcmple.o ABSOLUTE
    cdrcmple.s                               0x00000000   Number         0  cdrcmple.o ABSOLUTE
    cfcmple.s                                0x00000000   Number         0  cfcmple.o ABSOLUTE
    cfrcmple.s                               0x00000000   Number         0  cfrcmple.o ABSOLUTE
    dc.s                                     0x00000000   Number         0  dc.o ABSOLUTE
    driver\\bitband.c                        0x00000000   Number         0  bitband.o ABSOLUTE
    driver\\dsp_test.c                       0x00000000   Number         0  dsp_test.o ABSOLUTE
    driver\\led.c                            0x00000000   Number         0  led.o ABSOLUTE
    driver\\print.c                          0x00000000   Number         0  print.o ABSOLUTE
    driver\\systick.c                        0x00000000   Number         0  systick.o ABSOLUTE
    driver\bitband.c                         0x00000000   Number         0  bitband.o ABSOLUTE
    driver\dsp_test.c                        0x00000000   Number         0  dsp_test.o ABSOLUTE
    driver\led.c                             0x00000000   Number         0  led.o ABSOLUTE
    driver\print.c                           0x00000000   Number         0  print.o ABSOLUTE
    driver\systick.c                         0x00000000   Number         0  systick.o ABSOLUTE
    handlers.s                               0x00000000   Number         0  handlers.o ABSOLUTE
    init.s                                   0x00000000   Number         0  init.o ABSOLUTE
    std\Source\gd32f10x_adc.c                0x00000000   Number         0  gd32f10x_adc.o ABSOLUTE
    std\Source\gd32f10x_bkp.c                0x00000000   Number         0  gd32f10x_bkp.o ABSOLUTE
    std\Source\gd32f10x_can.c                0x00000000   Number         0  gd32f10x_can.o ABSOLUTE
    std\Source\gd32f10x_crc.c                0x00000000   Number         0  gd32f10x_crc.o ABSOLUTE
    std\Source\gd32f10x_dac.c                0x00000000   Number         0  gd32f10x_dac.o ABSOLUTE
    std\Source\gd32f10x_dbg.c                0x00000000   Number         0  gd32f10x_dbg.o ABSOLUTE
    std\Source\gd32f10x_dma.c                0x00000000   Number         0  gd32f10x_dma.o ABSOLUTE
    std\Source\gd32f10x_enet.c               0x00000000   Number         0  gd32f10x_enet.o ABSOLUTE
    std\Source\gd32f10x_exmc.c               0x00000000   Number         0  gd32f10x_exmc.o ABSOLUTE
    std\Source\gd32f10x_exti.c               0x00000000   Number         0  gd32f10x_exti.o ABSOLUTE
    std\Source\gd32f10x_fmc.c                0x00000000   Number         0  gd32f10x_fmc.o ABSOLUTE
    std\Source\gd32f10x_fwdgt.c              0x00000000   Number         0  gd32f10x_fwdgt.o ABSOLUTE
    std\Source\gd32f10x_gpio.c               0x00000000   Number         0  gd32f10x_gpio.o ABSOLUTE
    std\Source\gd32f10x_i2c.c                0x00000000   Number         0  gd32f10x_i2c.o ABSOLUTE
    std\Source\gd32f10x_misc.c               0x00000000   Number         0  gd32f10x_misc.o ABSOLUTE
    std\Source\gd32f10x_pmu.c                0x00000000   Number         0  gd32f10x_pmu.o ABSOLUTE
    std\Source\gd32f10x_rcu.c                0x00000000   Number         0  gd32f10x_rcu.o ABSOLUTE
    std\Source\gd32f10x_rtc.c                0x00000000   Number         0  gd32f10x_rtc.o ABSOLUTE
    std\Source\gd32f10x_sdio.c               0x00000000   Number         0  gd32f10x_sdio.o ABSOLUTE
    std\Source\gd32f10x_spi.c                0x00000000   Number         0  gd32f10x_spi.o ABSOLUTE
    std\Source\gd32f10x_timer.c              0x00000000   Number         0  gd32f10x_timer.o ABSOLUTE
    std\Source\gd32f10x_usart.c              0x00000000   Number         0  gd32f10x_usart.o ABSOLUTE
    std\Source\gd32f10x_wwdgt.c              0x00000000   Number         0  gd32f10x_wwdgt.o ABSOLUTE
    std\\Source\\gd32f10x_adc.c              0x00000000   Number         0  gd32f10x_adc.o ABSOLUTE
    std\\Source\\gd32f10x_bkp.c              0x00000000   Number         0  gd32f10x_bkp.o ABSOLUTE
    std\\Source\\gd32f10x_can.c              0x00000000   Number         0  gd32f10x_can.o ABSOLUTE
    std\\Source\\gd32f10x_crc.c              0x00000000   Number         0  gd32f10x_crc.o ABSOLUTE
    std\\Source\\gd32f10x_dac.c              0x00000000   Number         0  gd32f10x_dac.o ABSOLUTE
    std\\Source\\gd32f10x_dbg.c              0x00000000   Number         0  gd32f10x_dbg.o ABSOLUTE
    std\\Source\\gd32f10x_dma.c              0x00000000   Number         0  gd32f10x_dma.o ABSOLUTE
    std\\Source\\gd32f10x_enet.c             0x00000000   Number         0  gd32f10x_enet.o ABSOLUTE
    std\\Source\\gd32f10x_exmc.c             0x00000000   Number         0  gd32f10x_exmc.o ABSOLUTE
    std\\Source\\gd32f10x_exti.c             0x00000000   Number         0  gd32f10x_exti.o ABSOLUTE
    std\\Source\\gd32f10x_fmc.c              0x00000000   Number         0  gd32f10x_fmc.o ABSOLUTE
    std\\Source\\gd32f10x_fwdgt.c            0x00000000   Number         0  gd32f10x_fwdgt.o ABSOLUTE
    std\\Source\\gd32f10x_gpio.c             0x00000000   Number         0  gd32f10x_gpio.o ABSOLUTE
    std\\Source\\gd32f10x_i2c.c              0x00000000   Number         0  gd32f10x_i2c.o ABSOLUTE
    std\\Source\\gd32f10x_misc.c             0x00000000   Number         0  gd32f10x_misc.o ABSOLUTE
    std\\Source\\gd32f10x_pmu.c              0x00000000   Number         0  gd32f10x_pmu.o ABSOLUTE
    std\\Source\\gd32f10x_rcu.c              0x00000000   Number         0  gd32f10x_rcu.o ABSOLUTE
    std\\Source\\gd32f10x_rtc.c              0x00000000   Number         0  gd32f10x_rtc.o ABSOLUTE
    std\\Source\\gd32f10x_sdio.c             0x00000000   Number         0  gd32f10x_sdio.o ABSOLUTE
    std\\Source\\gd32f10x_spi.c              0x00000000   Number         0  gd32f10x_spi.o ABSOLUTE
    std\\Source\\gd32f10x_timer.c            0x00000000   Number         0  gd32f10x_timer.o ABSOLUTE
    std\\Source\\gd32f10x_usart.c            0x00000000   Number         0  gd32f10x_usart.o ABSOLUTE
    std\\Source\\gd32f10x_wwdgt.c            0x00000000   Number         0  gd32f10x_wwdgt.o ABSOLUTE
    user\\gd32f10x_it.c                      0x00000000   Number         0  gd32f10x_it.o ABSOLUTE
    user\\main.c                             0x00000000   Number         0  main.o ABSOLUTE
    user\\system_gd32f10x.c                  0x00000000   Number         0  system_gd32f10x.o ABSOLUTE
    user\gd32f10x_it.c                       0x00000000   Number         0  gd32f10x_it.o ABSOLUTE
    user\main.c                              0x00000000   Number         0  main.o ABSOLUTE
    user\startup_gd32f10x_xd.s               0x00000000   Number         0  startup_gd32f10x_xd.o ABSOLUTE
    user\system_gd32f10x.c                   0x00000000   Number         0  system_gd32f10x.o ABSOLUTE
    RESET                                    0x08000000   Section      304  startup_gd32f10x_xd.o(RESET)
    .ARM.Collect$$$$00000000                 0x08000130   Section        0  entry.o(.ARM.Collect$$$$00000000)
    .ARM.Collect$$$$00000001                 0x08000130   Section        4  entry2.o(.ARM.Collect$$$$00000001)
    .ARM.Collect$$$$00000004                 0x08000134   Section        4  entry5.o(.ARM.Collect$$$$00000004)
    .ARM.Collect$$$$00000008                 0x08000138   Section        0  entry7b.o(.ARM.Collect$$$$00000008)
    .ARM.Collect$$$$0000000A                 0x08000138   Section        0  entry8b.o(.ARM.Collect$$$$0000000A)
    .ARM.Collect$$$$0000000B                 0x08000138   Section        8  entry9a.o(.ARM.Collect$$$$0000000B)
    .ARM.Collect$$$$0000000D                 0x08000140   Section        0  entry10a.o(.ARM.Collect$$$$0000000D)
    .ARM.Collect$$$$0000000F                 0x08000140   Section        0  entry11a.o(.ARM.Collect$$$$0000000F)
    .ARM.Collect$$$$00002712                 0x08000140   Section        4  entry2.o(.ARM.Collect$$$$00002712)
    __lit__00000000                          0x08000140   Data           4  entry2.o(.ARM.Collect$$$$00002712)
    .text                                    0x08000144   Section       36  startup_gd32f10x_xd.o(.text)
    .text                                    0x08000168   Section        0  uldiv.o(.text)
    .text                                    0x080001ca   Section        0  llshl.o(.text)
    .text                                    0x080001e8   Section        0  llsshr.o(.text)
    .text                                    0x0800020c   Section        0  fadd.o(.text)
    .text                                    0x080002bc   Section        0  fmul.o(.text)
    .text                                    0x08000320   Section        0  fdiv.o(.text)
    .text                                    0x0800039c   Section        0  dadd.o(.text)
    .text                                    0x080004ea   Section        0  dmul.o(.text)
    .text                                    0x080005ce   Section        0  ddiv.o(.text)
    .text                                    0x080006ac   Section        0  fflti.o(.text)
    .text                                    0x080006be   Section        0  ffltui.o(.text)
    .text                                    0x080006c8   Section        0  ffixi.o(.text)
    .text                                    0x080006fa   Section        0  ffixui.o(.text)
    .text                                    0x08000722   Section        0  f2d.o(.text)
    .text                                    0x08000748   Section       20  cfcmple.o(.text)
    .text                                    0x0800075c   Section        0  uidiv.o(.text)
    .text                                    0x08000788   Section        0  llushr.o(.text)
    .text                                    0x080007a8   Section        0  iusefp.o(.text)
    .text                                    0x080007a8   Section        0  fepilogue.o(.text)
    .text                                    0x08000816   Section        0  depilogue.o(.text)
    .text                                    0x080008d0   Section        0  dfixul.o(.text)
    .text                                    0x08000900   Section       48  cdrcmple.o(.text)
    .text                                    0x08000930   Section       36  init.o(.text)
    i.BusFault_Handler                       0x08000954   Section        0  gd32f10x_it.o(i.BusFault_Handler)
    i.DebugMon_Handler                       0x08000958   Section        0  gd32f10x_it.o(i.DebugMon_Handler)
    i.HardFault_Handler                      0x0800095a   Section        0  gd32f10x_it.o(i.HardFault_Handler)
    i.MemManage_Handler                      0x0800095e   Section        0  gd32f10x_it.o(i.MemManage_Handler)
    i.NMI_Handler                            0x08000962   Section        0  gd32f10x_it.o(i.NMI_Handler)
    i.PendSV_Handler                         0x08000964   Section        0  gd32f10x_it.o(i.PendSV_Handler)
    i.SVC_Handler                            0x08000966   Section        0  gd32f10x_it.o(i.SVC_Handler)
    i.SystemInit                             0x08000968   Section        0  system_gd32f10x.o(i.SystemInit)
    i.UsageFault_Handler                     0x08000a3c   Section        0  gd32f10x_it.o(i.UsageFault_Handler)
    i.__0printf                              0x08000a40   Section        0  printfa.o(i.__0printf)
    i.__scatterload_copy                     0x08000a60   Section       14  handlers.o(i.__scatterload_copy)
    i.__scatterload_null                     0x08000a6e   Section        2  handlers.o(i.__scatterload_null)
    i.__scatterload_zeroinit                 0x08000a70   Section       14  handlers.o(i.__scatterload_zeroinit)
    i._fp_digits                             0x08000a80   Section        0  printfa.o(i._fp_digits)
    _fp_digits                               0x08000a81   Thumb Code   366  printfa.o(i._fp_digits)
    i._printf_core                           0x08000c04   Section        0  printfa.o(i._printf_core)
    _printf_core                             0x08000c05   Thumb Code  1744  printfa.o(i._printf_core)
    i._printf_post_padding                   0x080012e0   Section        0  printfa.o(i._printf_post_padding)
    _printf_post_padding                     0x080012e1   Thumb Code    36  printfa.o(i._printf_post_padding)
    i._printf_pre_padding                    0x08001304   Section        0  printfa.o(i._printf_pre_padding)
    _printf_pre_padding                      0x08001305   Thumb Code    46  printfa.o(i._printf_pre_padding)
    i.arm_bitreversal_f32                    0x08001332   Section        0  transformfunctions.o(i.arm_bitreversal_f32)
    i.arm_cfft_radix4_init_f32               0x0800149c   Section        0  transformfunctions.o(i.arm_cfft_radix4_init_f32)
    i.arm_cmplx_mult_cmplx_f32               0x08001544   Section        0  complexmathfunctions.o(i.arm_cmplx_mult_cmplx_f32)
    i.arm_dct4_f32                           0x080015aa   Section        0  transformfunctions.o(i.arm_dct4_f32)
    i.arm_dct4_init_f32                      0x08001688   Section        0  transformfunctions.o(i.arm_dct4_init_f32)
    i.arm_mult_f32                           0x08001728   Section        0  basicmathfunctions.o(i.arm_mult_f32)
    i.arm_radix4_butterfly_f32               0x08001750   Section        0  transformfunctions.o(i.arm_radix4_butterfly_f32)
    i.arm_radix4_butterfly_inverse_f32       0x080019ec   Section        0  transformfunctions.o(i.arm_radix4_butterfly_inverse_f32)
    i.arm_rfft_f32                           0x08001e22   Section        0  transformfunctions.o(i.arm_rfft_f32)
    i.arm_rfft_init_f32                      0x08001ea0   Section        0  transformfunctions.o(i.arm_rfft_init_f32)
    i.arm_scale_f32                          0x08001f34   Section        0  basicmathfunctions.o(i.arm_scale_f32)
    i.arm_sin_f32                            0x08001f58   Section        0  fastmathfunctions.o(i.arm_sin_f32)
    i.arm_split_rfft_f32                     0x0800200c   Section        0  transformfunctions.o(i.arm_split_rfft_f32)
    i.arm_split_rifft_f32                    0x0800214a   Section        0  transformfunctions.o(i.arm_split_rifft_f32)
    i.delay_ms                               0x08002224   Section        0  systick.o(i.delay_ms)
    i.delay_nms                              0x08002250   Section        0  systick.o(i.delay_nms)
    delay_nms                                0x08002251   Thumb Code    74  systick.o(i.delay_nms)
    i.dsp_test                               0x080022a0   Section        0  dsp_test.o(i.dsp_test)
    i.fputc                                  0x08002370   Section        0  print.o(i.fputc)
    i.get_mem_infor                          0x08002394   Section        0  bitband.o(i.get_mem_infor)
    i.get_uid                                0x080023a8   Section        0  bitband.o(i.get_uid)
    i.gpio_init                              0x080023c4   Section        0  gd32f10x_gpio.o(i.gpio_init)
    i.led_init                               0x08002470   Section        0  led.o(i.led_init)
    i.led_off                                0x080024d8   Section        0  led.o(i.led_off)
    i.led_on                                 0x080024fc   Section        0  led.o(i.led_on)
    i.main                                   0x08002520   Section        0  main.o(i.main)
    i.nvic_vector_table_set                  0x080025d8   Section        0  gd32f10x_misc.o(i.nvic_vector_table_set)
    i.print_config                           0x080025f0   Section        0  print.o(i.print_config)
    i.rcu_clock_freq_get                     0x08002670   Section        0  gd32f10x_rcu.o(i.rcu_clock_freq_get)
    i.rcu_periph_clock_enable                0x08002794   Section        0  gd32f10x_rcu.o(i.rcu_periph_clock_enable)
    i.system_clock_96m_hxtal                 0x080027b4   Section        0  system_gd32f10x.o(i.system_clock_96m_hxtal)
    system_clock_96m_hxtal                   0x080027b5   Thumb Code   180  system_gd32f10x.o(i.system_clock_96m_hxtal)
    i.system_clock_config                    0x08002870   Section        0  system_gd32f10x.o(i.system_clock_config)
    system_clock_config                      0x08002871   Thumb Code     8  system_gd32f10x.o(i.system_clock_config)
    i.systick_clksource_set                  0x08002878   Section        0  gd32f10x_misc.o(i.systick_clksource_set)
    i.systick_set                            0x080028a0   Section        0  systick.o(i.systick_set)
    i.usart_baudrate_set                     0x080028c4   Section        0  gd32f10x_usart.o(i.usart_baudrate_set)
    i.usart_data_transmit                    0x08002954   Section        0  gd32f10x_usart.o(i.usart_data_transmit)
    i.usart_enable                           0x0800295c   Section        0  gd32f10x_usart.o(i.usart_enable)
    i.usart_flag_get                         0x08002966   Section        0  gd32f10x_usart.o(i.usart_flag_get)
    i.usart_hardware_flow_cts_config         0x08002984   Section        0  gd32f10x_usart.o(i.usart_hardware_flow_cts_config)
    i.usart_hardware_flow_rts_config         0x08002994   Section        0  gd32f10x_usart.o(i.usart_hardware_flow_rts_config)
    i.usart_parity_config                    0x080029a4   Section        0  gd32f10x_usart.o(i.usart_parity_config)
    i.usart_receive_config                   0x080029b4   Section        0  gd32f10x_usart.o(i.usart_receive_config)
    i.usart_stop_bit_set                     0x080029c4   Section        0  gd32f10x_usart.o(i.usart_stop_bit_set)
    i.usart_transmit_config                  0x080029d4   Section        0  gd32f10x_usart.o(i.usart_transmit_config)
    i.usart_word_length_set                  0x080029e4   Section        0  gd32f10x_usart.o(i.usart_word_length_set)
    .constdata                               0x080029f8   Section    920372  commontables.o(.constdata)
    .data                                    0x20000000   Section        4  main.o(.data)
    .data                                    0x20000004   Section        8  systick.o(.data)
    .data                                    0x2000000c   Section        4  dsp_test.o(.data)
    .data                                    0x20000010   Section        4  stdout.o(.data)
    .bss                                     0x20000014   Section       12  main.o(.bss)
    .bss                                     0x20000020   Section     1604  dsp_test.o(.bss)
    STACK                                    0x20000668   Section     1024  startup_gd32f10x_xd.o(STACK)

    Global Symbols

    Symbol Name                              Value     Ov Type        Size  Object(Section)

    BuildAttributes$$THM_ISAv4$P$D$K$B$S$PE$A:L22UL41UL21$X:L11$S22US41US21$IEEE1$IW$USESV6$~STKCKD$USESV7$~SHL$OTIME$ROPI$IEEEX$EBA8$MICROLIB$REQ8$PRES8$EABIv2 0x00000000   Number         0  anon$$obj.o ABSOLUTE
    __ARM_use_no_argv                        0x00000000   Number         0  main.o ABSOLUTE
    _printf_a                                0x00000000   Number         0  stubs.o ABSOLUTE
    _printf_c                                0x00000000   Number         0  stubs.o ABSOLUTE
    _printf_charcount                        0x00000000   Number         0  stubs.o ABSOLUTE
    _printf_d                                0x00000000   Number         0  stubs.o ABSOLUTE
    _printf_e                                0x00000000   Number         0  stubs.o ABSOLUTE
    _printf_f                                0x00000000   Number         0  stubs.o ABSOLUTE
    _printf_flags                            0x00000000   Number         0  stubs.o ABSOLUTE
    _printf_fp_dec                           0x00000000   Number         0  stubs.o ABSOLUTE
    _printf_fp_hex                           0x00000000   Number         0  stubs.o ABSOLUTE
    _printf_g                                0x00000000   Number         0  stubs.o ABSOLUTE
    _printf_i                                0x00000000   Number         0  stubs.o ABSOLUTE
    _printf_int_dec                          0x00000000   Number         0  stubs.o ABSOLUTE
    _printf_l                                0x00000000   Number         0  stubs.o ABSOLUTE
    _printf_lc                               0x00000000   Number         0  stubs.o ABSOLUTE
    _printf_ll                               0x00000000   Number         0  stubs.o ABSOLUTE
    _printf_lld                              0x00000000   Number         0  stubs.o ABSOLUTE
    _printf_lli                              0x00000000   Number         0  stubs.o ABSOLUTE
    _printf_llo                              0x00000000   Number         0  stubs.o ABSOLUTE
    _printf_llu                              0x00000000   Number         0  stubs.o ABSOLUTE
    _printf_llx                              0x00000000   Number         0  stubs.o ABSOLUTE
    _printf_longlong_dec                     0x00000000   Number         0  stubs.o ABSOLUTE
    _printf_longlong_hex                     0x00000000   Number         0  stubs.o ABSOLUTE
    _printf_longlong_oct                     0x00000000   Number         0  stubs.o ABSOLUTE
    _printf_ls                               0x00000000   Number         0  stubs.o ABSOLUTE
    _printf_mbtowc                           0x00000000   Number         0  stubs.o ABSOLUTE
    _printf_n                                0x00000000   Number         0  stubs.o ABSOLUTE
    _printf_o                                0x00000000   Number         0  stubs.o ABSOLUTE
    _printf_p                                0x00000000   Number         0  stubs.o ABSOLUTE
    _printf_percent                          0x00000000   Number         0  stubs.o ABSOLUTE
    _printf_pre_padding                      0x00000000   Number         0  stubs.o ABSOLUTE
    _printf_return_value                     0x00000000   Number         0  stubs.o ABSOLUTE
    _printf_s                                0x00000000   Number         0  stubs.o ABSOLUTE
    _printf_sizespec                         0x00000000   Number         0  stubs.o ABSOLUTE
    _printf_str                              0x00000000   Number         0  stubs.o ABSOLUTE
    _printf_truncate_signed                  0x00000000   Number         0  stubs.o ABSOLUTE
    _printf_truncate_unsigned                0x00000000   Number         0  stubs.o ABSOLUTE
    _printf_u                                0x00000000   Number         0  stubs.o ABSOLUTE
    _printf_wc                               0x00000000   Number         0  stubs.o ABSOLUTE
    _printf_wctomb                           0x00000000   Number         0  stubs.o ABSOLUTE
    _printf_widthprec                        0x00000000   Number         0  stubs.o ABSOLUTE
    _printf_x                                0x00000000   Number         0  stubs.o ABSOLUTE
    __cpp_initialize__aeabi_                  - Undefined Weak Reference
    __cxa_finalize                            - Undefined Weak Reference
    __decompress                              - Undefined Weak Reference
    _clock_init                               - Undefined Weak Reference
    _microlib_exit                            - Undefined Weak Reference
    __Vectors_Size                           0x00000130   Number         0  startup_gd32f10x_xd.o ABSOLUTE
    __Vectors                                0x08000000   Data           4  startup_gd32f10x_xd.o(RESET)
    __Vectors_End                            0x08000130   Data           0  startup_gd32f10x_xd.o(RESET)
    __main                                   0x08000131   Thumb Code     0  entry.o(.ARM.Collect$$$$00000000)
    _main_stk                                0x08000131   Thumb Code     0  entry2.o(.ARM.Collect$$$$00000001)
    _main_scatterload                        0x08000135   Thumb Code     0  entry5.o(.ARM.Collect$$$$00000004)
    __main_after_scatterload                 0x08000139   Thumb Code     0  entry5.o(.ARM.Collect$$$$00000004)
    _main_clock                              0x08000139   Thumb Code     0  entry7b.o(.ARM.Collect$$$$00000008)
    _main_cpp_init                           0x08000139   Thumb Code     0  entry8b.o(.ARM.Collect$$$$0000000A)
    _main_init                               0x08000139   Thumb Code     0  entry9a.o(.ARM.Collect$$$$0000000B)
    __rt_final_cpp                           0x08000141   Thumb Code     0  entry10a.o(.ARM.Collect$$$$0000000D)
    __rt_final_exit                          0x08000141   Thumb Code     0  entry11a.o(.ARM.Collect$$$$0000000F)
    Reset_Handler                            0x08000145   Thumb Code     8  startup_gd32f10x_xd.o(.text)
    SysTick_Handler                          0x0800015d   Thumb Code     2  startup_gd32f10x_xd.o(.text)
    ADC0_1_IRQHandler                        0x0800015f   Thumb Code     0  startup_gd32f10x_xd.o(.text)
    ADC2_IRQHandler                          0x0800015f   Thumb Code     0  startup_gd32f10x_xd.o(.text)
    CAN0_EWMC_IRQHandler                     0x0800015f   Thumb Code     0  startup_gd32f10x_xd.o(.text)
    CAN0_RX1_IRQHandler                      0x0800015f   Thumb Code     0  startup_gd32f10x_xd.o(.text)
    DMA0_Channel0_IRQHandler                 0x0800015f   Thumb Code     0  startup_gd32f10x_xd.o(.text)
    DMA0_Channel1_IRQHandler                 0x0800015f   Thumb Code     0  startup_gd32f10x_xd.o(.text)
    DMA0_Channel2_IRQHandler                 0x0800015f   Thumb Code     0  startup_gd32f10x_xd.o(.text)
    DMA0_Channel3_IRQHandler                 0x0800015f   Thumb Code     0  startup_gd32f10x_xd.o(.text)
    DMA0_Channel4_IRQHandler                 0x0800015f   Thumb Code     0  startup_gd32f10x_xd.o(.text)
    DMA0_Channel5_IRQHandler                 0x0800015f   Thumb Code     0  startup_gd32f10x_xd.o(.text)
    DMA0_Channel6_IRQHandler                 0x0800015f   Thumb Code     0  startup_gd32f10x_xd.o(.text)
    DMA1_Channel0_IRQHandler                 0x0800015f   Thumb Code     0  startup_gd32f10x_xd.o(.text)
    DMA1_Channel1_IRQHandler                 0x0800015f   Thumb Code     0  startup_gd32f10x_xd.o(.text)
    DMA1_Channel2_IRQHandler                 0x0800015f   Thumb Code     0  startup_gd32f10x_xd.o(.text)
    DMA1_Channel3_4_IRQHandler               0x0800015f   Thumb Code     0  startup_gd32f10x_xd.o(.text)
    EXMC_IRQHandler                          0x0800015f   Thumb Code     0  startup_gd32f10x_xd.o(.text)
    EXTI0_IRQHandler                         0x0800015f   Thumb Code     0  startup_gd32f10x_xd.o(.text)
    EXTI10_15_IRQHandler                     0x0800015f   Thumb Code     0  startup_gd32f10x_xd.o(.text)
    EXTI1_IRQHandler                         0x0800015f   Thumb Code     0  startup_gd32f10x_xd.o(.text)
    EXTI2_IRQHandler                         0x0800015f   Thumb Code     0  startup_gd32f10x_xd.o(.text)
    EXTI3_IRQHandler                         0x0800015f   Thumb Code     0  startup_gd32f10x_xd.o(.text)
    EXTI4_IRQHandler                         0x0800015f   Thumb Code     0  startup_gd32f10x_xd.o(.text)
    EXTI5_9_IRQHandler                       0x0800015f   Thumb Code     0  startup_gd32f10x_xd.o(.text)
    FMC_IRQHandler                           0x0800015f   Thumb Code     0  startup_gd32f10x_xd.o(.text)
    I2C0_ER_IRQHandler                       0x0800015f   Thumb Code     0  startup_gd32f10x_xd.o(.text)
    I2C0_EV_IRQHandler                       0x0800015f   Thumb Code     0  startup_gd32f10x_xd.o(.text)
    I2C1_ER_IRQHandler                       0x0800015f   Thumb Code     0  startup_gd32f10x_xd.o(.text)
    I2C1_EV_IRQHandler                       0x0800015f   Thumb Code     0  startup_gd32f10x_xd.o(.text)
    LVD_IRQHandler                           0x0800015f   Thumb Code     0  startup_gd32f10x_xd.o(.text)
    RCU_IRQHandler                           0x0800015f   Thumb Code     0  startup_gd32f10x_xd.o(.text)
    RTC_Alarm_IRQHandler                     0x0800015f   Thumb Code     0  startup_gd32f10x_xd.o(.text)
    RTC_IRQHandler                           0x0800015f   Thumb Code     0  startup_gd32f10x_xd.o(.text)
    SDIO_IRQHandler                          0x0800015f   Thumb Code     0  startup_gd32f10x_xd.o(.text)
    SPI0_IRQHandler                          0x0800015f   Thumb Code     0  startup_gd32f10x_xd.o(.text)
    SPI1_IRQHandler                          0x0800015f   Thumb Code     0  startup_gd32f10x_xd.o(.text)
    SPI2_IRQHandler                          0x0800015f   Thumb Code     0  startup_gd32f10x_xd.o(.text)
    TAMPER_IRQHandler                        0x0800015f   Thumb Code     0  startup_gd32f10x_xd.o(.text)
    TIMER0_BRK_TIMER8_IRQHandler             0x0800015f   Thumb Code     0  startup_gd32f10x_xd.o(.text)
    TIMER0_Channel_IRQHandler                0x0800015f   Thumb Code     0  startup_gd32f10x_xd.o(.text)
    TIMER0_TRG_CMT_TIMER10_IRQHandler        0x0800015f   Thumb Code     0  startup_gd32f10x_xd.o(.text)
    TIMER0_UP_TIMER9_IRQHandler              0x0800015f   Thumb Code     0  startup_gd32f10x_xd.o(.text)
    TIMER1_IRQHandler                        0x0800015f   Thumb Code     0  startup_gd32f10x_xd.o(.text)
    TIMER2_IRQHandler                        0x0800015f   Thumb Code     0  startup_gd32f10x_xd.o(.text)
    TIMER3_IRQHandler                        0x0800015f   Thumb Code     0  startup_gd32f10x_xd.o(.text)
    TIMER4_IRQHandler                        0x0800015f   Thumb Code     0  startup_gd32f10x_xd.o(.text)
    TIMER5_IRQHandler                        0x0800015f   Thumb Code     0  startup_gd32f10x_xd.o(.text)
    TIMER6_IRQHandler                        0x0800015f   Thumb Code     0  startup_gd32f10x_xd.o(.text)
    TIMER7_BRK_TIMER11_IRQHandler            0x0800015f   Thumb Code     0  startup_gd32f10x_xd.o(.text)
    TIMER7_Channel_IRQHandler                0x0800015f   Thumb Code     0  startup_gd32f10x_xd.o(.text)
    TIMER7_TRG_CMT_TIMER13_IRQHandler        0x0800015f   Thumb Code     0  startup_gd32f10x_xd.o(.text)
    TIMER7_UP_TIMER12_IRQHandler             0x0800015f   Thumb Code     0  startup_gd32f10x_xd.o(.text)
    UART3_IRQHandler                         0x0800015f   Thumb Code     0  startup_gd32f10x_xd.o(.text)
    UART4_IRQHandler                         0x0800015f   Thumb Code     0  startup_gd32f10x_xd.o(.text)
    USART0_IRQHandler                        0x0800015f   Thumb Code     0  startup_gd32f10x_xd.o(.text)
    USART1_IRQHandler                        0x0800015f   Thumb Code     0  startup_gd32f10x_xd.o(.text)
    USART2_IRQHandler                        0x0800015f   Thumb Code     0  startup_gd32f10x_xd.o(.text)
    USBD_HP_CAN0_TX_IRQHandler               0x0800015f   Thumb Code     0  startup_gd32f10x_xd.o(.text)
    USBD_LP_CAN0_RX0_IRQHandler              0x0800015f   Thumb Code     0  startup_gd32f10x_xd.o(.text)
    USBD_WKUP_IRQHandler                     0x0800015f   Thumb Code     0  startup_gd32f10x_xd.o(.text)
    WWDGT_IRQHandler                         0x0800015f   Thumb Code     0  startup_gd32f10x_xd.o(.text)
    __aeabi_uldivmod                         0x08000169   Thumb Code    98  uldiv.o(.text)
    __aeabi_llsl                             0x080001cb   Thumb Code    30  llshl.o(.text)
    _ll_shift_l                              0x080001cb   Thumb Code     0  llshl.o(.text)
    __aeabi_lasr                             0x080001e9   Thumb Code    36  llsshr.o(.text)
    _ll_sshift_r                             0x080001e9   Thumb Code     0  llsshr.o(.text)
    __aeabi_fadd                             0x0800020d   Thumb Code   164  fadd.o(.text)
    __aeabi_fsub                             0x080002b1   Thumb Code     6  fadd.o(.text)
    __aeabi_frsub                            0x080002b7   Thumb Code     6  fadd.o(.text)
    __aeabi_fmul                             0x080002bd   Thumb Code   100  fmul.o(.text)
    __aeabi_fdiv                             0x08000321   Thumb Code   124  fdiv.o(.text)
    __aeabi_dadd                             0x0800039d   Thumb Code   322  dadd.o(.text)
    __aeabi_dsub                             0x080004df   Thumb Code     6  dadd.o(.text)
    __aeabi_drsub                            0x080004e5   Thumb Code     6  dadd.o(.text)
    __aeabi_dmul                             0x080004eb   Thumb Code   228  dmul.o(.text)
    __aeabi_ddiv                             0x080005cf   Thumb Code   222  ddiv.o(.text)
    __aeabi_i2f                              0x080006ad   Thumb Code    18  fflti.o(.text)
    __aeabi_ui2f                             0x080006bf   Thumb Code    10  ffltui.o(.text)
    __aeabi_f2iz                             0x080006c9   Thumb Code    50  ffixi.o(.text)
    __aeabi_f2uiz                            0x080006fb   Thumb Code    40  ffixui.o(.text)
    __aeabi_f2d                              0x08000723   Thumb Code    38  f2d.o(.text)
    __aeabi_cfcmpeq                          0x08000749   Thumb Code     0  cfcmple.o(.text)
    __aeabi_cfcmple                          0x08000749   Thumb Code    20  cfcmple.o(.text)
    __aeabi_uidiv                            0x0800075d   Thumb Code     0  uidiv.o(.text)
    __aeabi_uidivmod                         0x0800075d   Thumb Code    44  uidiv.o(.text)
    __aeabi_llsr                             0x08000789   Thumb Code    32  llushr.o(.text)
    _ll_ushift_r                             0x08000789   Thumb Code     0  llushr.o(.text)
    __I$use$fp                               0x080007a9   Thumb Code     0  iusefp.o(.text)
    _float_round                             0x080007a9   Thumb Code    18  fepilogue.o(.text)
    _float_epilogue                          0x080007bb   Thumb Code    92  fepilogue.o(.text)
    _double_round                            0x08000817   Thumb Code    30  depilogue.o(.text)
    _double_epilogue                         0x08000835   Thumb Code   156  depilogue.o(.text)
    __aeabi_d2ulz                            0x080008d1   Thumb Code    48  dfixul.o(.text)
    __aeabi_cdrcmple                         0x08000901   Thumb Code    48  cdrcmple.o(.text)
    __scatterload                            0x08000931   Thumb Code    28  init.o(.text)
    __scatterload_rt2                        0x08000931   Thumb Code     0  init.o(.text)
    BusFault_Handler                         0x08000955   Thumb Code     4  gd32f10x_it.o(i.BusFault_Handler)
    DebugMon_Handler                         0x08000959   Thumb Code     2  gd32f10x_it.o(i.DebugMon_Handler)
    HardFault_Handler                        0x0800095b   Thumb Code     4  gd32f10x_it.o(i.HardFault_Handler)
    MemManage_Handler                        0x0800095f   Thumb Code     4  gd32f10x_it.o(i.MemManage_Handler)
    NMI_Handler                              0x08000963   Thumb Code     2  gd32f10x_it.o(i.NMI_Handler)
    PendSV_Handler                           0x08000965   Thumb Code     2  gd32f10x_it.o(i.PendSV_Handler)
    SVC_Handler                              0x08000967   Thumb Code     2  gd32f10x_it.o(i.SVC_Handler)
    SystemInit                               0x08000969   Thumb Code   196  system_gd32f10x.o(i.SystemInit)
    UsageFault_Handler                       0x08000a3d   Thumb Code     4  gd32f10x_it.o(i.UsageFault_Handler)
    __0printf                                0x08000a41   Thumb Code    22  printfa.o(i.__0printf)
    __1printf                                0x08000a41   Thumb Code     0  printfa.o(i.__0printf)
    __2printf                                0x08000a41   Thumb Code     0  printfa.o(i.__0printf)
    __c89printf                              0x08000a41   Thumb Code     0  printfa.o(i.__0printf)
    printf                                   0x08000a41   Thumb Code     0  printfa.o(i.__0printf)
    __scatterload_copy                       0x08000a61   Thumb Code    14  handlers.o(i.__scatterload_copy)
    __scatterload_null                       0x08000a6f   Thumb Code     2  handlers.o(i.__scatterload_null)
    __scatterload_zeroinit                   0x08000a71   Thumb Code    14  handlers.o(i.__scatterload_zeroinit)
    arm_bitreversal_f32                      0x08001333   Thumb Code   362  transformfunctions.o(i.arm_bitreversal_f32)
    arm_cfft_radix4_init_f32                 0x0800149d   Thumb Code   156  transformfunctions.o(i.arm_cfft_radix4_init_f32)
    arm_cmplx_mult_cmplx_f32                 0x08001545   Thumb Code   102  complexmathfunctions.o(i.arm_cmplx_mult_cmplx_f32)
    arm_dct4_f32                             0x080015ab   Thumb Code   220  transformfunctions.o(i.arm_dct4_f32)
    arm_dct4_init_f32                        0x08001689   Thumb Code   126  transformfunctions.o(i.arm_dct4_init_f32)
    arm_mult_f32                             0x08001729   Thumb Code    40  basicmathfunctions.o(i.arm_mult_f32)
    arm_radix4_butterfly_f32                 0x08001751   Thumb Code   668  transformfunctions.o(i.arm_radix4_butterfly_f32)
    arm_radix4_butterfly_inverse_f32         0x080019ed   Thumb Code  1078  transformfunctions.o(i.arm_radix4_butterfly_inverse_f32)
    arm_rfft_f32                             0x08001e23   Thumb Code   124  transformfunctions.o(i.arm_rfft_f32)
    arm_rfft_init_f32                        0x08001ea1   Thumb Code   138  transformfunctions.o(i.arm_rfft_init_f32)
    arm_scale_f32                            0x08001f35   Thumb Code    36  basicmathfunctions.o(i.arm_scale_f32)
    arm_sin_f32                              0x08001f59   Thumb Code   170  fastmathfunctions.o(i.arm_sin_f32)
    arm_split_rfft_f32                       0x0800200d   Thumb Code   318  transformfunctions.o(i.arm_split_rfft_f32)
    arm_split_rifft_f32                      0x0800214b   Thumb Code   218  transformfunctions.o(i.arm_split_rifft_f32)
    delay_ms                                 0x08002225   Thumb Code    42  systick.o(i.delay_ms)
    dsp_test                                 0x080022a1   Thumb Code   164  dsp_test.o(i.dsp_test)
    fputc                                    0x08002371   Thumb Code    32  print.o(i.fputc)
    get_mem_infor                            0x08002395   Thumb Code    14  bitband.o(i.get_mem_infor)
    get_uid                                  0x080023a9   Thumb Code    24  bitband.o(i.get_uid)
    gpio_init                                0x080023c5   Thumb Code   172  gd32f10x_gpio.o(i.gpio_init)
    led_init                                 0x08002471   Thumb Code    92  led.o(i.led_init)
    led_off                                  0x080024d9   Thumb Code    26  led.o(i.led_off)
    led_on                                   0x080024fd   Thumb Code    26  led.o(i.led_on)
    main                                     0x08002521   Thumb Code    92  main.o(i.main)
    nvic_vector_table_set                    0x080025d9   Thumb Code    16  gd32f10x_misc.o(i.nvic_vector_table_set)
    print_config                             0x080025f1   Thumb Code   120  print.o(i.print_config)
    rcu_clock_freq_get                       0x08002671   Thumb Code   264  gd32f10x_rcu.o(i.rcu_clock_freq_get)
    rcu_periph_clock_enable                  0x08002795   Thumb Code    28  gd32f10x_rcu.o(i.rcu_periph_clock_enable)
    systick_clksource_set                    0x08002879   Thumb Code    40  gd32f10x_misc.o(i.systick_clksource_set)
    systick_set                              0x080028a1   Thumb Code    26  systick.o(i.systick_set)
    usart_baudrate_set                       0x080028c5   Thumb Code   136  gd32f10x_usart.o(i.usart_baudrate_set)
    usart_data_transmit                      0x08002955   Thumb Code     8  gd32f10x_usart.o(i.usart_data_transmit)
    usart_enable                             0x0800295d   Thumb Code    10  gd32f10x_usart.o(i.usart_enable)
    usart_flag_get                           0x08002967   Thumb Code    30  gd32f10x_usart.o(i.usart_flag_get)
    usart_hardware_flow_cts_config           0x08002985   Thumb Code    16  gd32f10x_usart.o(i.usart_hardware_flow_cts_config)
    usart_hardware_flow_rts_config           0x08002995   Thumb Code    16  gd32f10x_usart.o(i.usart_hardware_flow_rts_config)
    usart_parity_config                      0x080029a5   Thumb Code    16  gd32f10x_usart.o(i.usart_parity_config)
    usart_receive_config                     0x080029b5   Thumb Code    16  gd32f10x_usart.o(i.usart_receive_config)
    usart_stop_bit_set                       0x080029c5   Thumb Code    16  gd32f10x_usart.o(i.usart_stop_bit_set)
    usart_transmit_config                    0x080029d5   Thumb Code    16  gd32f10x_usart.o(i.usart_transmit_config)
    usart_word_length_set                    0x080029e5   Thumb Code    16  gd32f10x_usart.o(i.usart_word_length_set)
    armBitRevTable                           0x080029f8   Data        2048  commontables.o(.constdata)
    twiddleCoefF64_16                        0x080031f8   Data         256  commontables.o(.constdata)
    twiddleCoefF64_32                        0x080032f8   Data         512  commontables.o(.constdata)
    twiddleCoefF64_64                        0x080034f8   Data        1024  commontables.o(.constdata)
    twiddleCoefF64_128                       0x080038f8   Data        2048  commontables.o(.constdata)
    twiddleCoefF64_256                       0x080040f8   Data        4096  commontables.o(.constdata)
    twiddleCoefF64_512                       0x080050f8   Data        8192  commontables.o(.constdata)
    twiddleCoefF64_1024                      0x080070f8   Data       16384  commontables.o(.constdata)
    twiddleCoefF64_2048                      0x0800b0f8   Data       32768  commontables.o(.constdata)
    twiddleCoefF64_4096                      0x080130f8   Data       65536  commontables.o(.constdata)
    twiddleCoef_16                           0x080230f8   Data         128  commontables.o(.constdata)
    twiddleCoef_32                           0x08023178   Data         256  commontables.o(.constdata)
    twiddleCoef_64                           0x08023278   Data         512  commontables.o(.constdata)
    twiddleCoef_128                          0x08023478   Data        1024  commontables.o(.constdata)
    twiddleCoef_256                          0x08023878   Data        2048  commontables.o(.constdata)
    twiddleCoef_512                          0x08024078   Data        4096  commontables.o(.constdata)
    twiddleCoef_1024                         0x08025078   Data        8192  commontables.o(.constdata)
    twiddleCoef_2048                         0x08027078   Data       16384  commontables.o(.constdata)
    twiddleCoef_4096                         0x0802b078   Data       32768  commontables.o(.constdata)
    twiddleCoef_16_q31                       0x08033078   Data          96  commontables.o(.constdata)
    twiddleCoef_32_q31                       0x080330d8   Data         192  commontables.o(.constdata)
    twiddleCoef_64_q31                       0x08033198   Data         384  commontables.o(.constdata)
    twiddleCoef_128_q31                      0x08033318   Data         768  commontables.o(.constdata)
    twiddleCoef_256_q31                      0x08033618   Data        1536  commontables.o(.constdata)
    twiddleCoef_512_q31                      0x08033c18   Data        3072  commontables.o(.constdata)
    twiddleCoef_1024_q31                     0x08034818   Data        6144  commontables.o(.constdata)
    twiddleCoef_2048_q31                     0x08036018   Data       12288  commontables.o(.constdata)
    twiddleCoef_4096_q31                     0x08039018   Data       24576  commontables.o(.constdata)
    twiddleCoef_16_q15                       0x0803f018   Data          48  commontables.o(.constdata)
    twiddleCoef_32_q15                       0x0803f048   Data          96  commontables.o(.constdata)
    twiddleCoef_64_q15                       0x0803f0a8   Data         192  commontables.o(.constdata)
    twiddleCoef_128_q15                      0x0803f168   Data         384  commontables.o(.constdata)
    twiddleCoef_256_q15                      0x0803f2e8   Data         768  commontables.o(.constdata)
    twiddleCoef_512_q15                      0x0803f5e8   Data        1536  commontables.o(.constdata)
    twiddleCoef_1024_q15                     0x0803fbe8   Data        3072  commontables.o(.constdata)
    twiddleCoef_2048_q15                     0x080407e8   Data        6144  commontables.o(.constdata)
    twiddleCoef_4096_q15                     0x08041fe8   Data       12288  commontables.o(.constdata)
    armBitRevIndexTableF64_16                0x08044fe8   Data          24  commontables.o(.constdata)
    armBitRevIndexTableF64_32                0x08045000   Data          48  commontables.o(.constdata)
    armBitRevIndexTableF64_64                0x08045030   Data         112  commontables.o(.constdata)
    armBitRevIndexTableF64_128               0x080450a0   Data         224  commontables.o(.constdata)
    armBitRevIndexTableF64_256               0x08045180   Data         480  commontables.o(.constdata)
    armBitRevIndexTableF64_512               0x08045360   Data         960  commontables.o(.constdata)
    armBitRevIndexTableF64_1024              0x08045720   Data        1984  commontables.o(.constdata)
    armBitRevIndexTableF64_2048              0x08045ee0   Data        3968  commontables.o(.constdata)
    armBitRevIndexTableF64_4096              0x08046e60   Data        8064  commontables.o(.constdata)
    armBitRevIndexTable16                    0x08048de0   Data          40  commontables.o(.constdata)
    armBitRevIndexTable32                    0x08048e08   Data          96  commontables.o(.constdata)
    armBitRevIndexTable64                    0x08048e68   Data         112  commontables.o(.constdata)
    armBitRevIndexTable128                   0x08048ed8   Data         416  commontables.o(.constdata)
    armBitRevIndexTable256                   0x08049078   Data         880  commontables.o(.constdata)
    armBitRevIndexTable512                   0x080493e8   Data         896  commontables.o(.constdata)
    armBitRevIndexTable1024                  0x08049768   Data        3600  commontables.o(.constdata)
    armBitRevIndexTable2048                  0x0804a578   Data        7616  commontables.o(.constdata)
    armBitRevIndexTable4096                  0x0804c338   Data        8064  commontables.o(.constdata)
    armBitRevIndexTable_fixed_16             0x0804e2b8   Data          24  commontables.o(.constdata)
    armBitRevIndexTable_fixed_32             0x0804e2d0   Data          48  commontables.o(.constdata)
    armBitRevIndexTable_fixed_64             0x0804e300   Data         112  commontables.o(.constdata)
    armBitRevIndexTable_fixed_128            0x0804e370   Data         224  commontables.o(.constdata)
    armBitRevIndexTable_fixed_256            0x0804e450   Data         480  commontables.o(.constdata)
    armBitRevIndexTable_fixed_512            0x0804e630   Data         960  commontables.o(.constdata)
    armBitRevIndexTable_fixed_1024           0x0804e9f0   Data        1984  commontables.o(.constdata)
    armBitRevIndexTable_fixed_2048           0x0804f1b0   Data        3968  commontables.o(.constdata)
    armBitRevIndexTable_fixed_4096           0x08050130   Data        8064  commontables.o(.constdata)
    twiddleCoefF64_rfft_32                   0x080520b0   Data         256  commontables.o(.constdata)
    twiddleCoefF64_rfft_64                   0x080521b0   Data         512  commontables.o(.constdata)
    twiddleCoefF64_rfft_128                  0x080523b0   Data        1024  commontables.o(.constdata)
    twiddleCoefF64_rfft_256                  0x080527b0   Data        2048  commontables.o(.constdata)
    twiddleCoefF64_rfft_512                  0x08052fb0   Data        4096  commontables.o(.constdata)
    twiddleCoefF64_rfft_1024                 0x08053fb0   Data        8192  commontables.o(.constdata)
    twiddleCoefF64_rfft_2048                 0x08055fb0   Data       16384  commontables.o(.constdata)
    twiddleCoefF64_rfft_4096                 0x08059fb0   Data       32768  commontables.o(.constdata)
    twiddleCoef_rfft_32                      0x08061fb0   Data         128  commontables.o(.constdata)
    twiddleCoef_rfft_64                      0x08062030   Data         256  commontables.o(.constdata)
    twiddleCoef_rfft_128                     0x08062130   Data         512  commontables.o(.constdata)
    twiddleCoef_rfft_256                     0x08062330   Data        1024  commontables.o(.constdata)
    twiddleCoef_rfft_512                     0x08062730   Data        2048  commontables.o(.constdata)
    twiddleCoef_rfft_1024                    0x08062f30   Data        4096  commontables.o(.constdata)
    twiddleCoef_rfft_2048                    0x08063f30   Data        8192  commontables.o(.constdata)
    twiddleCoef_rfft_4096                    0x08065f30   Data       16384  commontables.o(.constdata)
    realCoefA                                0x08069f30   Data       32768  commontables.o(.constdata)
    realCoefB                                0x08071f30   Data       32768  commontables.o(.constdata)
    realCoefAQ31                             0x08079f30   Data       32768  commontables.o(.constdata)
    realCoefBQ31                             0x08081f30   Data       32768  commontables.o(.constdata)
    realCoefAQ15                             0x08089f30   Data       16384  commontables.o(.constdata)
    realCoefBQ15                             0x0808df30   Data       16384  commontables.o(.constdata)
    Weights_128                              0x08091f30   Data        1024  commontables.o(.constdata)
    cos_factors_128                          0x08092330   Data         512  commontables.o(.constdata)
    Weights_512                              0x08092530   Data        4096  commontables.o(.constdata)
    cos_factors_512                          0x08093530   Data        2048  commontables.o(.constdata)
    Weights_2048                             0x08093d30   Data       16384  commontables.o(.constdata)
    cos_factors_2048                         0x08097d30   Data        8192  commontables.o(.constdata)
    Weights_8192                             0x08099d30   Data       65536  commontables.o(.constdata)
    cos_factors_8192                         0x080a9d30   Data       32768  commontables.o(.constdata)
    WeightsQ15_128                           0x080b1d30   Data         512  commontables.o(.constdata)
    cos_factorsQ15_128                       0x080b1f30   Data         256  commontables.o(.constdata)
    WeightsQ15_512                           0x080b2030   Data        2048  commontables.o(.constdata)
    cos_factorsQ15_512                       0x080b2830   Data        1024  commontables.o(.constdata)
    WeightsQ15_2048                          0x080b2c30   Data        8192  commontables.o(.constdata)
    cos_factorsQ15_2048                      0x080b4c30   Data        4096  commontables.o(.constdata)
    WeightsQ15_8192                          0x080b5c30   Data       32768  commontables.o(.constdata)
    cos_factorsQ15_8192                      0x080bdc30   Data       16384  commontables.o(.constdata)
    WeightsQ31_128                           0x080c1c30   Data        1024  commontables.o(.constdata)
    cos_factorsQ31_128                       0x080c2030   Data         512  commontables.o(.constdata)
    WeightsQ31_512                           0x080c2230   Data        4096  commontables.o(.constdata)
    cos_factorsQ31_512                       0x080c3230   Data        2048  commontables.o(.constdata)
    WeightsQ31_2048                          0x080c3a30   Data       16384  commontables.o(.constdata)
    cos_factorsQ31_2048                      0x080c7a30   Data        8192  commontables.o(.constdata)
    WeightsQ31_8192                          0x080c9a30   Data       65536  commontables.o(.constdata)
    cos_factorsQ31_8192                      0x080d9a30   Data       32768  commontables.o(.constdata)
    armRecipTableQ15                         0x080e1a30   Data         128  commontables.o(.constdata)
    armRecipTableQ31                         0x080e1ab0   Data         256  commontables.o(.constdata)
    sinTable_f32                             0x080e1bb0   Data        2052  commontables.o(.constdata)
    sinTable_q31                             0x080e23b4   Data        2052  commontables.o(.constdata)
    sinTable_q15                             0x080e2bb8   Data        1026  commontables.o(.constdata)
    arm_cfft_sR_f64_len16                    0x080e2fbc   Data          16  commontables.o(.constdata)
    arm_cfft_sR_f64_len32                    0x080e2fcc   Data          16  commontables.o(.constdata)
    arm_cfft_sR_f64_len64                    0x080e2fdc   Data          16  commontables.o(.constdata)
    arm_cfft_sR_f64_len128                   0x080e2fec   Data          16  commontables.o(.constdata)
    arm_cfft_sR_f64_len256                   0x080e2ffc   Data          16  commontables.o(.constdata)
    arm_cfft_sR_f64_len512                   0x080e300c   Data          16  commontables.o(.constdata)
    arm_cfft_sR_f64_len1024                  0x080e301c   Data          16  commontables.o(.constdata)
    arm_cfft_sR_f64_len2048                  0x080e302c   Data          16  commontables.o(.constdata)
    arm_cfft_sR_f64_len4096                  0x080e303c   Data          16  commontables.o(.constdata)
    arm_cfft_sR_f32_len16                    0x080e304c   Data          16  commontables.o(.constdata)
    arm_cfft_sR_f32_len32                    0x080e305c   Data          16  commontables.o(.constdata)
    arm_cfft_sR_f32_len64                    0x080e306c   Data          16  commontables.o(.constdata)
    arm_cfft_sR_f32_len128                   0x080e307c   Data          16  commontables.o(.constdata)
    arm_cfft_sR_f32_len256                   0x080e308c   Data          16  commontables.o(.constdata)
    arm_cfft_sR_f32_len512                   0x080e309c   Data          16  commontables.o(.constdata)
    arm_cfft_sR_f32_len1024                  0x080e30ac   Data          16  commontables.o(.constdata)
    arm_cfft_sR_f32_len2048                  0x080e30bc   Data          16  commontables.o(.constdata)
    arm_cfft_sR_f32_len4096                  0x080e30cc   Data          16  commontables.o(.constdata)
    arm_cfft_sR_q31_len16                    0x080e30dc   Data          16  commontables.o(.constdata)
    arm_cfft_sR_q31_len32                    0x080e30ec   Data          16  commontables.o(.constdata)
    arm_cfft_sR_q31_len64                    0x080e30fc   Data          16  commontables.o(.constdata)
    arm_cfft_sR_q31_len128                   0x080e310c   Data          16  commontables.o(.constdata)
    arm_cfft_sR_q31_len256                   0x080e311c   Data          16  commontables.o(.constdata)
    arm_cfft_sR_q31_len512                   0x080e312c   Data          16  commontables.o(.constdata)
    arm_cfft_sR_q31_len1024                  0x080e313c   Data          16  commontables.o(.constdata)
    arm_cfft_sR_q31_len2048                  0x080e314c   Data          16  commontables.o(.constdata)
    arm_cfft_sR_q31_len4096                  0x080e315c   Data          16  commontables.o(.constdata)
    arm_cfft_sR_q15_len16                    0x080e316c   Data          16  commontables.o(.constdata)
    arm_cfft_sR_q15_len32                    0x080e317c   Data          16  commontables.o(.constdata)
    arm_cfft_sR_q15_len64                    0x080e318c   Data          16  commontables.o(.constdata)
    arm_cfft_sR_q15_len128                   0x080e319c   Data          16  commontables.o(.constdata)
    arm_cfft_sR_q15_len256                   0x080e31ac   Data          16  commontables.o(.constdata)
    arm_cfft_sR_q15_len512                   0x080e31bc   Data          16  commontables.o(.constdata)
    arm_cfft_sR_q15_len1024                  0x080e31cc   Data          16  commontables.o(.constdata)
    arm_cfft_sR_q15_len2048                  0x080e31dc   Data          16  commontables.o(.constdata)
    arm_cfft_sR_q15_len4096                  0x080e31ec   Data          16  commontables.o(.constdata)
    arm_rfft_fast_sR_f64_len32               0x080e31fc   Data          24  commontables.o(.constdata)
    arm_rfft_fast_sR_f64_len64               0x080e3214   Data          24  commontables.o(.constdata)
    arm_rfft_fast_sR_f64_len128              0x080e322c   Data          24  commontables.o(.constdata)
    arm_rfft_fast_sR_f64_len256              0x080e3244   Data          24  commontables.o(.constdata)
    arm_rfft_fast_sR_f64_len512              0x080e325c   Data          24  commontables.o(.constdata)
    arm_rfft_fast_sR_f64_len1024             0x080e3274   Data          24  commontables.o(.constdata)
    arm_rfft_fast_sR_f64_len2048             0x080e328c   Data          24  commontables.o(.constdata)
    arm_rfft_fast_sR_f64_len4096             0x080e32a4   Data          24  commontables.o(.constdata)
    arm_rfft_fast_sR_f32_len32               0x080e32bc   Data          24  commontables.o(.constdata)
    arm_rfft_fast_sR_f32_len64               0x080e32d4   Data          24  commontables.o(.constdata)
    arm_rfft_fast_sR_f32_len128              0x080e32ec   Data          24  commontables.o(.constdata)
    arm_rfft_fast_sR_f32_len256              0x080e3304   Data          24  commontables.o(.constdata)
    arm_rfft_fast_sR_f32_len512              0x080e331c   Data          24  commontables.o(.constdata)
    arm_rfft_fast_sR_f32_len1024             0x080e3334   Data          24  commontables.o(.constdata)
    arm_rfft_fast_sR_f32_len2048             0x080e334c   Data          24  commontables.o(.constdata)
    arm_rfft_fast_sR_f32_len4096             0x080e3364   Data          24  commontables.o(.constdata)
    arm_rfft_sR_q31_len32                    0x080e337c   Data          24  commontables.o(.constdata)
    arm_rfft_sR_q31_len64                    0x080e3394   Data          24  commontables.o(.constdata)
    arm_rfft_sR_q31_len128                   0x080e33ac   Data          24  commontables.o(.constdata)
    arm_rfft_sR_q31_len256                   0x080e33c4   Data          24  commontables.o(.constdata)
    arm_rfft_sR_q31_len512                   0x080e33dc   Data          24  commontables.o(.constdata)
    arm_rfft_sR_q31_len1024                  0x080e33f4   Data          24  commontables.o(.constdata)
    arm_rfft_sR_q31_len2048                  0x080e340c   Data          24  commontables.o(.constdata)
    arm_rfft_sR_q31_len4096                  0x080e3424   Data          24  commontables.o(.constdata)
    arm_rfft_sR_q31_len8192                  0x080e343c   Data          24  commontables.o(.constdata)
    arm_rfft_sR_q15_len32                    0x080e3454   Data          24  commontables.o(.constdata)
    arm_rfft_sR_q15_len64                    0x080e346c   Data          24  commontables.o(.constdata)
    arm_rfft_sR_q15_len128                   0x080e3484   Data          24  commontables.o(.constdata)
    arm_rfft_sR_q15_len256                   0x080e349c   Data          24  commontables.o(.constdata)
    arm_rfft_sR_q15_len512                   0x080e34b4   Data          24  commontables.o(.constdata)
    arm_rfft_sR_q15_len1024                  0x080e34cc   Data          24  commontables.o(.constdata)
    arm_rfft_sR_q15_len2048                  0x080e34e4   Data          24  commontables.o(.constdata)
    arm_rfft_sR_q15_len4096                  0x080e34fc   Data          24  commontables.o(.constdata)
    arm_rfft_sR_q15_len8192                  0x080e3514   Data          24  commontables.o(.constdata)
    Region$$Table$$Base                      0x080e352c   Number         0  anon$$obj.o(Region$$Table)
    Region$$Table$$Limit                     0x080e354c   Number         0  anon$$obj.o(Region$$Table)
    mem_infor                                0x20000000   Data           4  main.o(.data)
    fac_us                                   0x20000004   Data           1  systick.o(.data)
    fac_ms                                   0x20000008   Data           4  systick.o(.data)
    normalize                                0x2000000c   Data           4  dsp_test.o(.data)
    __stdout                                 0x20000010   Data           4  stdout.o(.data)
    uid                                      0x20000014   Data          12  main.o(.bss)
    S                                        0x20000020   Data          24  dsp_test.o(.bss)
    S_RFFT                                   0x20000038   Data          24  dsp_test.o(.bss)
    S_CFFT                                   0x20000050   Data          20  dsp_test.o(.bss)
    pInlineBuffer                            0x20000064   Data         512  dsp_test.o(.bss)
    pState                                   0x20000264   Data         512  dsp_test.o(.bss)
    data                                     0x20000464   Data         512  dsp_test.o(.bss)
    __initial_sp                             0x20000a68   Data           0  startup_gd32f10x_xd.o(STACK)



==============================================================================

Memory Map of the image

  Image Entry point : 0x08000131

  Load Region LR_IROM1 (Base: 0x08000000, Size: 0x000e3560, Max: 0x00300000, ABSOLUTE)

    Execution Region ER_IROM1 (Exec base: 0x08000000, Load base: 0x08000000, Size: 0x000e354c, Max: 0x00300000, ABSOLUTE)

    Exec Addr    Load Addr    Size         Type   Attr      Idx    E Section Name        Object

    0x08000000   0x08000000   0x00000130   Data   RO          296    RESET               startup_gd32f10x_xd.o
    0x08000130   0x08000130   0x00000000   Code   RO         7983  * .ARM.Collect$$$$00000000  mc_w.l(entry.o)
    0x08000130   0x08000130   0x00000004   Code   RO         8328    .ARM.Collect$$$$00000001  mc_w.l(entry2.o)
    0x08000134   0x08000134   0x00000004   Code   RO         8331    .ARM.Collect$$$$00000004  mc_w.l(entry5.o)
    0x08000138   0x08000138   0x00000000   Code   RO         8333    .ARM.Collect$$$$00000008  mc_w.l(entry7b.o)
    0x08000138   0x08000138   0x00000000   Code   RO         8335    .ARM.Collect$$$$0000000A  mc_w.l(entry8b.o)
    0x08000138   0x08000138   0x00000008   Code   RO         8336    .ARM.Collect$$$$0000000B  mc_w.l(entry9a.o)
    0x08000140   0x08000140   0x00000000   Code   RO         8338    .ARM.Collect$$$$0000000D  mc_w.l(entry10a.o)
    0x08000140   0x08000140   0x00000000   Code   RO         8340    .ARM.Collect$$$$0000000F  mc_w.l(entry11a.o)
    0x08000140   0x08000140   0x00000004   Code   RO         8329    .ARM.Collect$$$$00002712  mc_w.l(entry2.o)
    0x08000144   0x08000144   0x00000024   Code   RO          297    .text               startup_gd32f10x_xd.o
    0x08000168   0x08000168   0x00000062   Code   RO         7986    .text               mc_w.l(uldiv.o)
    0x080001ca   0x080001ca   0x0000001e   Code   RO         7990    .text               mc_w.l(llshl.o)
    0x080001e8   0x080001e8   0x00000024   Code   RO         7992    .text               mc_w.l(llsshr.o)
    0x0800020c   0x0800020c   0x000000b0   Code   RO         8261    .text               mf_w.l(fadd.o)
    0x080002bc   0x080002bc   0x00000064   Code   RO         8263    .text               mf_w.l(fmul.o)
    0x08000320   0x08000320   0x0000007c   Code   RO         8265    .text               mf_w.l(fdiv.o)
    0x0800039c   0x0800039c   0x0000014e   Code   RO         8267    .text               mf_w.l(dadd.o)
    0x080004ea   0x080004ea   0x000000e4   Code   RO         8269    .text               mf_w.l(dmul.o)
    0x080005ce   0x080005ce   0x000000de   Code   RO         8271    .text               mf_w.l(ddiv.o)
    0x080006ac   0x080006ac   0x00000012   Code   RO         8273    .text               mf_w.l(fflti.o)
    0x080006be   0x080006be   0x0000000a   Code   RO         8275    .text               mf_w.l(ffltui.o)
    0x080006c8   0x080006c8   0x00000032   Code   RO         8279    .text               mf_w.l(ffixi.o)
    0x080006fa   0x080006fa   0x00000028   Code   RO         8281    .text               mf_w.l(ffixui.o)
    0x08000722   0x08000722   0x00000026   Code   RO         8285    .text               mf_w.l(f2d.o)
    0x08000748   0x08000748   0x00000014   Code   RO         8291    .text               mf_w.l(cfcmple.o)
    0x0800075c   0x0800075c   0x0000002c   Code   RO         8343    .text               mc_w.l(uidiv.o)
    0x08000788   0x08000788   0x00000020   Code   RO         8345    .text               mc_w.l(llushr.o)
    0x080007a8   0x080007a8   0x00000000   Code   RO         8354    .text               mc_w.l(iusefp.o)
    0x080007a8   0x080007a8   0x0000006e   Code   RO         8355    .text               mf_w.l(fepilogue.o)
    0x08000816   0x08000816   0x000000ba   Code   RO         8363    .text               mf_w.l(depilogue.o)
    0x080008d0   0x080008d0   0x00000030   Code   RO         8369    .text               mf_w.l(dfixul.o)
    0x08000900   0x08000900   0x00000030   Code   RO         8373    .text               mf_w.l(cdrcmple.o)
    0x08000930   0x08000930   0x00000024   Code   RO         8377    .text               mc_w.l(init.o)
    0x08000954   0x08000954   0x00000004   Code   RO            4    i.BusFault_Handler  gd32f10x_it.o
    0x08000958   0x08000958   0x00000002   Code   RO            5    i.DebugMon_Handler  gd32f10x_it.o
    0x0800095a   0x0800095a   0x00000004   Code   RO            6    i.HardFault_Handler  gd32f10x_it.o
    0x0800095e   0x0800095e   0x00000004   Code   RO            7    i.MemManage_Handler  gd32f10x_it.o
    0x08000962   0x08000962   0x00000002   Code   RO            8    i.NMI_Handler       gd32f10x_it.o
    0x08000964   0x08000964   0x00000002   Code   RO            9    i.PendSV_Handler    gd32f10x_it.o
    0x08000966   0x08000966   0x00000002   Code   RO           10    i.SVC_Handler       gd32f10x_it.o
    0x08000968   0x08000968   0x000000d4   Code   RO          257    i.SystemInit        system_gd32f10x.o
    0x08000a3c   0x08000a3c   0x00000004   Code   RO           11    i.UsageFault_Handler  gd32f10x_it.o
    0x08000a40   0x08000a40   0x00000020   Code   RO         8233    i.__0printf         mc_w.l(printfa.o)
    0x08000a60   0x08000a60   0x0000000e   Code   RO         8381    i.__scatterload_copy  mc_w.l(handlers.o)
    0x08000a6e   0x08000a6e   0x00000002   Code   RO         8382    i.__scatterload_null  mc_w.l(handlers.o)
    0x08000a70   0x08000a70   0x0000000e   Code   RO         8383    i.__scatterload_zeroinit  mc_w.l(handlers.o)
    0x08000a7e   0x08000a7e   0x00000002   PAD
    0x08000a80   0x08000a80   0x00000184   Code   RO         8240    i._fp_digits        mc_w.l(printfa.o)
    0x08000c04   0x08000c04   0x000006dc   Code   RO         8241    i._printf_core      mc_w.l(printfa.o)
    0x080012e0   0x080012e0   0x00000024   Code   RO         8242    i._printf_post_padding  mc_w.l(printfa.o)
    0x08001304   0x08001304   0x0000002e   Code   RO         8243    i._printf_pre_padding  mc_w.l(printfa.o)
    0x08001332   0x08001332   0x0000016a   Code   RO         7276    i.arm_bitreversal_f32  transformfunctions.o
    0x0800149c   0x0800149c   0x000000a8   Code   RO         7294    i.arm_cfft_radix4_init_f32  transformfunctions.o
    0x08001544   0x08001544   0x00000066   Code   RO         4757    i.arm_cmplx_mult_cmplx_f32  complexmathfunctions.o
    0x080015aa   0x080015aa   0x000000dc   Code   RO         7306    i.arm_dct4_f32      transformfunctions.o
    0x08001686   0x08001686   0x00000002   PAD
    0x08001688   0x08001688   0x000000a0   Code   RO         7307    i.arm_dct4_init_f32  transformfunctions.o
    0x08001728   0x08001728   0x00000028   Code   RO         4246    i.arm_mult_f32      basicmathfunctions.o
    0x08001750   0x08001750   0x0000029c   Code   RO         7318    i.arm_radix4_butterfly_f32  transformfunctions.o
    0x080019ec   0x080019ec   0x00000436   Code   RO         7320    i.arm_radix4_butterfly_inverse_f32  transformfunctions.o
    0x08001e22   0x08001e22   0x0000007c   Code   RO         7342    i.arm_rfft_f32      transformfunctions.o
    0x08001e9e   0x08001e9e   0x00000002   PAD
    0x08001ea0   0x08001ea0   0x00000094   Code   RO         7347    i.arm_rfft_init_f32  transformfunctions.o
    0x08001f34   0x08001f34   0x00000024   Code   RO         4264    i.arm_scale_f32     basicmathfunctions.o
    0x08001f58   0x08001f58   0x000000b4   Code   RO         5246    i.arm_sin_f32       fastmathfunctions.o
    0x0800200c   0x0800200c   0x0000013e   Code   RO         7352    i.arm_split_rfft_f32  transformfunctions.o
    0x0800214a   0x0800214a   0x000000da   Code   RO         7355    i.arm_split_rifft_f32  transformfunctions.o
    0x08002224   0x08002224   0x0000002a   Code   RO         4006    i.delay_ms          systick.o
    0x0800224e   0x0800224e   0x00000002   PAD
    0x08002250   0x08002250   0x00000050   Code   RO         4007    i.delay_nms         systick.o
    0x080022a0   0x080022a0   0x000000d0   Code   RO         4104    i.dsp_test          dsp_test.o
    0x08002370   0x08002370   0x00000024   Code   RO         4071    i.fputc             print.o
    0x08002394   0x08002394   0x00000014   Code   RO         3976    i.get_mem_infor     bitband.o
    0x080023a8   0x080023a8   0x0000001c   Code   RO         3977    i.get_uid           bitband.o
    0x080023c4   0x080023c4   0x000000ac   Code   RO         1866    i.gpio_init         gd32f10x_gpio.o
    0x08002470   0x08002470   0x00000068   Code   RO         3934    i.led_init          led.o
    0x080024d8   0x080024d8   0x00000024   Code   RO         3935    i.led_off           led.o
    0x080024fc   0x080024fc   0x00000024   Code   RO         3936    i.led_on            led.o
    0x08002520   0x08002520   0x000000b8   Code   RO          174    i.main              main.o
    0x080025d8   0x080025d8   0x00000018   Code   RO         2184    i.nvic_vector_table_set  gd32f10x_misc.o
    0x080025f0   0x080025f0   0x00000080   Code   RO         4072    i.print_config      print.o
    0x08002670   0x08002670   0x00000124   Code   RO         2340    i.rcu_clock_freq_get  gd32f10x_rcu.o
    0x08002794   0x08002794   0x00000020   Code   RO         2357    i.rcu_periph_clock_enable  gd32f10x_rcu.o
    0x080027b4   0x080027b4   0x000000bc   Code   RO          258    i.system_clock_96m_hxtal  system_gd32f10x.o
    0x08002870   0x08002870   0x00000008   Code   RO          259    i.system_clock_config  system_gd32f10x.o
    0x08002878   0x08002878   0x00000028   Code   RO         2187    i.systick_clksource_set  gd32f10x_misc.o
    0x080028a0   0x080028a0   0x00000024   Code   RO         4012    i.systick_set       systick.o
    0x080028c4   0x080028c4   0x00000090   Code   RO         3599    i.usart_baudrate_set  gd32f10x_usart.o
    0x08002954   0x08002954   0x00000008   Code   RO         3601    i.usart_data_transmit  gd32f10x_usart.o
    0x0800295c   0x0800295c   0x0000000a   Code   RO         3606    i.usart_enable      gd32f10x_usart.o
    0x08002966   0x08002966   0x0000001e   Code   RO         3608    i.usart_flag_get    gd32f10x_usart.o
    0x08002984   0x08002984   0x00000010   Code   RO         3612    i.usart_hardware_flow_cts_config  gd32f10x_usart.o
    0x08002994   0x08002994   0x00000010   Code   RO         3613    i.usart_hardware_flow_rts_config  gd32f10x_usart.o
    0x080029a4   0x080029a4   0x00000010   Code   RO         3627    i.usart_parity_config  gd32f10x_usart.o
    0x080029b4   0x080029b4   0x00000010   Code   RO         3629    i.usart_receive_config  gd32f10x_usart.o
    0x080029c4   0x080029c4   0x00000010   Code   RO         3635    i.usart_stop_bit_set  gd32f10x_usart.o
    0x080029d4   0x080029d4   0x00000010   Code   RO         3639    i.usart_transmit_config  gd32f10x_usart.o
    0x080029e4   0x080029e4   0x00000010   Code   RO         3640    i.usart_word_length_set  gd32f10x_usart.o
    0x080029f4   0x080029f4   0x00000004   PAD
    0x080029f8   0x080029f8   0x000e0b34   Data   RO         4709    .constdata          commontables.o
    0x080e352c   0x080e352c   0x00000020   Data   RO         8379    Region$$Table       anon$$obj.o


    Execution Region RW_IRAM1 (Exec base: 0x20000000, Load base: 0x080e354c, Size: 0x00000a68, Max: 0x00018000, ABSOLUTE)

    Exec Addr    Load Addr    Size         Type   Attr      Idx    E Section Name        Object

    0x20000000   0x080e354c   0x00000004   Data   RW          176    .data               main.o
    0x20000004   0x080e3550   0x00000008   Data   RW         4013    .data               systick.o
    0x2000000c   0x080e3558   0x00000004   Data   RW         4106    .data               dsp_test.o
    0x20000010   0x080e355c   0x00000004   Data   RW         8342    .data               mc_w.l(stdout.o)
    0x20000014        -       0x0000000c   Zero   RW          175    .bss                main.o
    0x20000020        -       0x00000644   Zero   RW         4105    .bss                dsp_test.o
    0x20000664   0x080e3560   0x00000004   PAD
    0x20000668        -       0x00000400   Zero   RW          294    STACK               startup_gd32f10x_xd.o


==============================================================================

Image component sizes


      Code (inc. data)   RO Data    RW Data    ZI Data      Debug   Object Name

        76          0          0          0          0      19599   basicmathfunctions.o
        48         10          0          0          0       1194   bitband.o
         0          0     920372          0          0      13459   commontables.o
       102          0          0          0          0      18999   complexmathfunctions.o
       208         44          0          4       1604       2985   dsp_test.o
       180         10          0          0          0        782   fastmathfunctions.o
       172          0          0          0          0        796   gd32f10x_gpio.o
        24          0          0          0          0      26924   gd32f10x_it.o
        64          8          0          0          0       1016   gd32f10x_misc.o
       324         32          0          0          0       1575   gd32f10x_rcu.o
       304          8          0          0          0       6107   gd32f10x_usart.o
       176         32          0          0          0       3034   led.o
       184         92          0          4         12      26391   main.o
       164         12          0          0          0       1043   print.o
        36          8        304          0       1024        772   startup_gd32f10x_xd.o
       408         24          0          0          0       2153   system_gd32f10x.o
       158         16          0          8          0       1749   systick.o
      3464         56          0          0          0      12880   transformfunctions.o

    ----------------------------------------------------------------------
      6102        352     920708         16       2644     141458   Object Totals
         0          0         32          0          0          0   (incl. Generated)
        10          0          0          0          4          0   (incl. Padding)

    ----------------------------------------------------------------------

      Code (inc. data)   RO Data    RW Data    ZI Data      Debug   Library Member Name

         0          0          0          0          0          0   entry.o
         0          0          0          0          0          0   entry10a.o
         0          0          0          0          0          0   entry11a.o
         8          4          0          0          0          0   entry2.o
         4          0          0          0          0          0   entry5.o
         0          0          0          0          0          0   entry7b.o
         0          0          0          0          0          0   entry8b.o
         8          4          0          0          0          0   entry9a.o
        30          0          0          0          0          0   handlers.o
        36          8          0          0          0         68   init.o
         0          0          0          0          0          0   iusefp.o
        30          0          0          0          0         68   llshl.o
        36          0          0          0          0         68   llsshr.o
        32          0          0          0          0         68   llushr.o
      2258         90          0          0          0        452   printfa.o
         0          0          0          4          0          0   stdout.o
        44          0          0          0          0         80   uidiv.o
        98          0          0          0          0         92   uldiv.o
        48          0          0          0          0         68   cdrcmple.o
        20          0          0          0          0         68   cfcmple.o
       334          0          0          0          0        148   dadd.o
       222          0          0          0          0        100   ddiv.o
       186          0          0          0          0        176   depilogue.o
        48          0          0          0          0         68   dfixul.o
       228          0          0          0          0         96   dmul.o
        38          0          0          0          0         68   f2d.o
       176          0          0          0          0        140   fadd.o
       124          0          0          0          0         88   fdiv.o
       110          0          0          0          0        168   fepilogue.o
        50          0          0          0          0         68   ffixi.o
        40          0          0          0          0         68   ffixui.o
        18          0          0          0          0         68   fflti.o
        10          0          0          0          0         68   ffltui.o
       100          0          0          0          0         76   fmul.o

    ----------------------------------------------------------------------
      4338        106          0          4          0       2432   Library Totals
         2          0          0          0          0          0   (incl. Padding)

    ----------------------------------------------------------------------

      Code (inc. data)   RO Data    RW Data    ZI Data      Debug   Library Name

      2584        106          0          4          0        896   mc_w.l
      1752          0          0          0          0       1536   mf_w.l

    ----------------------------------------------------------------------
      4338        106          0          4          0       2432   Library Totals

    ----------------------------------------------------------------------

==============================================================================


      Code (inc. data)   RO Data    RW Data    ZI Data      Debug   

     10440        458     920708         20       2644     140194   Grand Totals
     10440        458     920708         20       2644     140194   ELF Image Totals
     10440        458     920708         20          0          0   ROM Totals

==============================================================================

    Total RO  Size (Code + RO Data)               931148 ( 909.32kB)
    Total RW  Size (RW Data + ZI Data)              2664 (   2.60kB)
    Total ROM Size (Code + RO Data + RW Data)     931168 ( 909.34kB)

==============================================================================

