Component: ARM Compiler 5.06 update 6 (build 750) Tool: armlink [4d35ed]

==============================================================================

Section Cross References

    main.o(i.main) refers to systick.o(i.systick_set) for systick_set
    main.o(i.main) refers to led.o(i.led_init) for led_init
    main.o(i.main) refers to print.o(i.print_config) for print_config
    main.o(i.main) refers to bitband.o(i.get_mem_infor) for get_mem_infor
    main.o(i.main) refers to printfa.o(i.__0printf) for __2printf
    main.o(i.main) refers to bitband.o(i.get_uid) for get_uid
    main.o(i.main) refers to dsp_test.o(i.dsp_test) for dsp_test
    main.o(i.main) refers to led.o(i.led_on) for led_on
    main.o(i.main) refers to systick.o(i.delay_ms) for delay_ms
    main.o(i.main) refers to led.o(i.led_off) for led_off
    main.o(i.main) refers to main.o(.data) for mem_infor
    main.o(i.main) refers to main.o(.bss) for uid
    system_gd32f10x.o(i.SystemInit) refers to system_gd32f10x.o(i.system_clock_config) for system_clock_config
    system_gd32f10x.o(i.SystemInit) refers to gd32f10x_misc.o(i.nvic_vector_table_set) for nvic_vector_table_set
    system_gd32f10x.o(i.system_clock_config) refers to system_gd32f10x.o(i.system_clock_96m_hxtal) for system_clock_96m_hxtal
    startup_gd32f10x_xd.o(RESET) refers to startup_gd32f10x_xd.o(STACK) for __initial_sp
    startup_gd32f10x_xd.o(RESET) refers to startup_gd32f10x_xd.o(.text) for Reset_Handler
    startup_gd32f10x_xd.o(RESET) refers to gd32f10x_it.o(i.NMI_Handler) for NMI_Handler
==============================================================================

Removing Unused input sections from the image.

    Removing gd32f10x_it.o(.rev16_text), (4 bytes).
    Removing gd32f10x_it.o(.revsh_text), (4 bytes).
    Removing gd32f10x_it.o(.rrx_text), (6 bytes).
    Removing main.o(.rev16_text), (4 bytes).
    Removing main.o(.revsh_text), (4 bytes).
    Removing main.o(.rrx_text), (6 bytes).
    Removing system_gd32f10x.o(.rev16_text), (4 bytes).
    Removing system_gd32f10x.o(.revsh_text), (4 bytes).
    Removing system_gd32f10x.o(.rrx_text), (6 bytes).
    Removing system_gd32f10x.o(.data), (4 bytes).
    Removing startup_gd32f10x_xd.o(HEAP), (512 bytes).
    Removing gd32f10x_adc.o(.rev16_text), (4 bytes).
    Removing gd32f10x_adc.o(.revsh_text), (4 bytes).
    Removing gd32f10x_adc.o(.rrx_text), (6 bytes).
    Removing gd32f10x_adc.o(i.adc_calibration_enable), (42 bytes).
    Removing gd32f10x_adc.o(i.adc_channel_length_config), (70 bytes).
    Removing gd32f10x_adc.o(i.adc_data_alignment_config), (22 bytes).
    Removing gd32f10x_adc.o(i.adc_deinit), (88 bytes).
==============================================================================

Image Symbol Table

    Local Symbols

    Symbol Name                              Value     Ov Type        Size  Object(Section)

    ../clib/microlib/division.c              0x00000000   Number         0  uldiv.o ABSOLUTE
    ../clib/microlib/division.c              0x00000000   Number         0  uidiv.o ABSOLUTE
    ../clib/microlib/division.c              0x00000000   Number         0  ldiv.o ABSOLUTE
    ../clib/microlib/errno.c                 0x00000000   Number         0  errno.o ABSOLUTE
    ../clib/microlib/init/entry.s            0x00000000   Number         0  entry8a.o ABSOLUTE
    ../clib/microlib/init/entry.s            0x00000000   Number         0  entry8b.o ABSOLUTE
    ../clib/microlib/init/entry.s            0x00000000   Number         0  entry10b.o ABSOLUTE
    ../clib/microlib/init/entry.s            0x00000000   Number         0  entry11a.o ABSOLUTE
    ../clib/microlib/init/entry.s            0x00000000   Number         0  entry11b.o ABSOLUTE
    ../clib/microlib/init/entry.s            0x00000000   Number         0  entry2.o ABSOLUTE
    ../clib/microlib/init/entry.s            0x00000000   Number         0  entry10a.o ABSOLUTE
    ../clib/microlib/init/entry.s            0x00000000   Number         0  entry9b.o ABSOLUTE
    ../clib/microlib/init/entry.s            0x00000000   Number         0  entry9a.o ABSOLUTE
    ../clib/microlib/init/entry.s            0x00000000   Number         0  entry.o ABSOLUTE
    ../clib/microlib/init/entry.s            0x00000000   Number         0  entry7b.o ABSOLUTE
    ../clib/microlib/init/entry.s            0x00000000   Number         0  entry7a.o ABSOLUTE
    ../clib/microlib/init/entry.s            0x00000000   Number         0  entry5.o ABSOLUTE
    ../clib/microlib/longlong.c              0x00000000   Number         0  llshl.o ABSOLUTE
    ../clib/microlib/longlong.c              0x00000000   Number         0  llsshr.o ABSOLUTE
    ../clib/microlib/longlong.c              0x00000000   Number         0  llushr.o ABSOLUTE
    ../clib/microlib/printf/printf.c         0x00000000   Number         0  printf7.o ABSOLUTE
    ../clib/microlib/printf/printf.c         0x00000000   Number         0  printf6.o ABSOLUTE
    ../clib/microlib/printf/printf.c         0x00000000   Number         0  printf4.o ABSOLUTE
    ../clib/microlib/printf/printf.c         0x00000000   Number         0  printf3.o ABSOLUTE
    ../clib/microlib/printf/printf.c         0x00000000   Number         0  printf2.o ABSOLUTE
    ../clib/microlib/printf/printf.c         0x00000000   Number         0  printf1.o ABSOLUTE
    ../clib/microlib/printf/printf.c         0x00000000   Number         0  printf0.o ABSOLUTE
    ../clib/microlib/printf/printf.c         0x00000000   Number         0  printf5.o ABSOLUTE
    ../clib/microlib/printf/printf.c         0x00000000   Number         0  printfb.o ABSOLUTE
    ../clib/microlib/printf/printf.c         0x00000000   Number         0  printfa.o ABSOLUTE
    ../clib/microlib/printf/printf.c         0x00000000   Number         0  printf8.o ABSOLUTE
    ../clib/microlib/printf/stubs.s          0x00000000   Number         0  stubs.o ABSOLUTE
    ../clib/microlib/stdio/streams.c         0x00000000   Number         0  stdout.o ABSOLUTE
    ../clib/microlib/string/memcpy.c         0x00000000   Number         0  memcpyb.o ABSOLUTE
    ../clib/microlib/string/memcpy.c         0x00000000   Number         0  memcpya.o ABSOLUTE
    ../clib/microlib/string/memset.c         0x00000000   Number         0  memseta.o ABSOLUTE
    ../clib/microlib/stubs.s                 0x00000000   Number         0  iusefp.o ABSOLUTE
    ../fplib/microlib/d2f.c                  0x00000000   Number         0  d2f.o ABSOLUTE
    ../fplib/microlib/f2d.c                  0x00000000   Number         0  f2d.o ABSOLUTE
    ../fplib/microlib/fpadd.c                0x00000000   Number         0  fadd.o ABSOLUTE
    ../fplib/microlib/fpadd.c                0x00000000   Number         0  dadd.o ABSOLUTE
    ../fplib/microlib/fpdiv.c                0x00000000   Number         0  ddiv.o ABSOLUTE
    ../fplib/microlib/fpdiv.c                0x00000000   Number         0  fdiv.o ABSOLUTE
    ../fplib/microlib/fpepilogue.c           0x00000000   Number         0  fepilogue.o ABSOLUTE
    ../fplib/microlib/fpepilogue.c           0x00000000   Number         0  depilogue.o ABSOLUTE
    ../fplib/microlib/fpfix.c                0x00000000   Number         0  ffixir.o ABSOLUTE
    ../fplib/microlib/fpfix.c                0x00000000   Number         0  ffixi.o ABSOLUTE
    ../fplib/microlib/fpfix.c                0x00000000   Number         0  ffixui.o ABSOLUTE
    ../fplib/microlib/fpfix.c                0x00000000   Number         0  ffixl.o ABSOLUTE
    ../fplib/microlib/fpfix.c                0x00000000   Number         0  dfixul.o ABSOLUTE
    ../fplib/microlib/fpflt.c                0x00000000   Number         0  dfltui.o ABSOLUTE
    ../fplib/microlib/fpflt.c                0x00000000   Number         0  ffltui.o ABSOLUTE
    ../fplib/microlib/fpflt.c                0x00000000   Number         0  dflti.o ABSOLUTE
    ../fplib/microlib/fpflt.c                0x00000000   Number         0  fflti.o ABSOLUTE
    ../fplib/microlib/fpmul.c                0x00000000   Number         0  fmul.o ABSOLUTE
    ../fplib/microlib/fpmul.c                0x00000000   Number         0  dmul.o ABSOLUTE
    ../fplib/microlib/fprnd.c                0x00000000   Number         0  frnd.o ABSOLUTE
    ../fplib/microlib/fpscalb.c              0x00000000   Number         0  dscalb.o ABSOLUTE
    ../fplib/microlib/fpscalb.c              0x00000000   Number         0  fscalb.o ABSOLUTE
    ../fplib/microlib/fpsqrt.c               0x00000000   Number         0  fsqrt.o ABSOLUTE
    ../fplib/microlib/fpstat.c               0x00000000   Number         0  fpstat.o ABSOLUTE
    ../mathlib/dunder.c                      0x00000000   Number         0  dunder.o ABSOLUTE
    ../mathlib/expf.c                        0x00000000   Number         0  expf_x.o ABSOLUTE
    ../mathlib/expf.c                        0x00000000   Number         0  expf.o ABSOLUTE
    ../mathlib/fpclassifyf.c                 0x00000000   Number         0  fpclassifyf.o ABSOLUTE
    ../mathlib/funder.c                      0x00000000   Number         0  funder.o ABSOLUTE
    ../mathlib/log.c                         0x00000000   Number         0  log.o ABSOLUTE
    ../mathlib/log.c                         0x00000000   Number         0  log_x.o ABSOLUTE
    ../mathlib/logf.c                        0x00000000   Number         0  logf_x.o ABSOLUTE
    ../mathlib/logf.c                        0x00000000   Number         0  logf.o ABSOLUTE
    ../mathlib/poly.c                        0x00000000   Number         0  poly.o ABSOLUTE
    ../mathlib/powf.c                        0x00000000   Number         0  powf_x.o ABSOLUTE
    ../mathlib/powf.c                        0x00000000   Number         0  powf.o ABSOLUTE
    ../mathlib/qnan.c                        0x00000000   Number         0  qnan.o ABSOLUTE
    ../mathlib/sqrtf.c                       0x00000000   Number         0  sqrtf.o ABSOLUTE
    ../mathlib/sqrtf.c                       0x00000000   Number         0  sqrtf_x.o ABSOLUTE
    ../mathlib/tanhf.c                       0x00000000   Number         0  tanhf.o ABSOLUTE
    ../mathlib/tanhf.c                       0x00000000   Number         0  tanhf_x.o ABSOLUTE
    F:\Keil_MDK\pack\ARM\CMSIS\5.7.0\CMSIS\DSP\Source\BasicMathFunctions\BasicMathFunctions.c 0x00000000   Number         0  basicmathfunctions.o ABSOLUTE
    F:\Keil_MDK\pack\ARM\CMSIS\5.7.0\CMSIS\DSP\Source\BayesFunctions\BayesFunctions.c 0x00000000   Number         0  bayesfunctions.o ABSOLUTE
    F:\Keil_MDK\pack\ARM\CMSIS\5.7.0\CMSIS\DSP\Source\CommonTables\CommonTables.c 0x00000000   Number         0  commontables.o ABSOLUTE
    F:\Keil_MDK\pack\ARM\CMSIS\5.7.0\CMSIS\DSP\Source\ComplexMathFunctions\ComplexMathFunctions.c 0x00000000   Number         0  complexmathfunctions.o ABSOLUTE
    F:\Keil_MDK\pack\ARM\CMSIS\5.7.0\CMSIS\DSP\Source\ControllerFunctions\ControllerFunctions.c 0x00000000   Number         0  controllerfunctions.o ABSOLUTE
    F:\Keil_MDK\pack\ARM\CMSIS\5.7.0\CMSIS\DSP\Source\DistanceFunctions\DistanceFunctions.c 0x00000000   Number         0  distancefunctions.o ABSOLUTE
    F:\Keil_MDK\pack\ARM\CMSIS\5.7.0\CMSIS\DSP\Source\FastMathFunctions\FastMathFunctions.c 0x00000000   Number         0  fastmathfunctions.o ABSOLUTE
    F:\Keil_MDK\pack\ARM\CMSIS\5.7.0\CMSIS\DSP\Source\FilteringFunctions\FilteringFunctions.c 0x00000000   Number         0  filteringfunctions.o ABSOLUTE
    F:\Keil_MDK\pack\ARM\CMSIS\5.7.0\CMSIS\DSP\Source\MatrixFunctions\MatrixFunctions.c 0x00000000   Number         0  matrixfunctions.o ABSOLUTE
    F:\Keil_MDK\pack\ARM\CMSIS\5.7.0\CMSIS\DSP\Source\SVMFunctions\SVMFunctions.c 0x00000000   Number         0  svmfunctions.o ABSOLUTE
    F:\Keil_MDK\pack\ARM\CMSIS\5.7.0\CMSIS\DSP\Source\StatisticsFunctions\StatisticsFunctions.c 0x00000000   Number         0  statisticsfunctions.o ABSOLUTE
    F:\Keil_MDK\pack\ARM\CMSIS\5.7.0\CMSIS\DSP\Source\SupportFunctions\SupportFunctions.c 0x00000000   Number         0  supportfunctions.o ABSOLUTE
    F:\Keil_MDK\pack\ARM\CMSIS\5.7.0\CMSIS\DSP\Source\TransformFunctions\TransformFunctions.c 0x00000000   Number         0  transformfunctions.o ABSOLUTE
    F:\\Keil_MDK\\pack\\ARM\\CMSIS\\5.7.0\\CMSIS\\DSP\\Source\\BasicMathFunctions\\BasicMathFunctions.c 0x00000000   Number         0  basicmathfunctions.o ABSOLUTE
    F:\\Keil_MDK\\pack\\ARM\\CMSIS\\5.7.0\\CMSIS\\DSP\\Source\\BayesFunctions\\BayesFunctions.c 0x00000000   Number         0  bayesfunctions.o ABSOLUTE
    F:\\Keil_MDK\\pack\\ARM\\CMSIS\\5.7.0\\CMSIS\\DSP\\Source\\CommonTables\\CommonTables.c 0x00000000   Number         0  commontables.o ABSOLUTE
    F:\\Keil_MDK\\pack\\ARM\\CMSIS\\5.7.0\\CMSIS\\DSP\\Source\\ComplexMathFunctions\\ComplexMathFunctions.c 0x00000000   Number         0  complexmathfunctions.o ABSOLUTE
    F:\\Keil_MDK\\pack\\ARM\\CMSIS\\5.7.0\\CMSIS\\DSP\\Source\\ControllerFunctions\\ControllerFunctions.c 0x00000000   Number         0  controllerfunctions.o ABSOLUTE
    F:\\Keil_MDK\\pack\\ARM\\CMSIS\\5.7.0\\CMSIS\\DSP\\Source\\DistanceFunctions\\DistanceFunctions.c 0x00000000   Number         0  distancefunctions.o ABSOLUTE
    F:\\Keil_MDK\\pack\\ARM\\CMSIS\\5.7.0\\CMSIS\\DSP\\Source\\FastMathFunctions\\FastMathFunctions.c 0x00000000   Number         0  fastmathfunctions.o ABSOLUTE
    F:\\Keil_MDK\\pack\\ARM\\CMSIS\\5.7.0\\CMSIS\\DSP\\Source\\FilteringFunctions\\FilteringFunctions.c 0x00000000   Number         0  filteringfunctions.o ABSOLUTE
    F:\\Keil_MDK\\pack\\ARM\\CMSIS\\5.7.0\\CMSIS\\DSP\\Source\\MatrixFunctions\\MatrixFunctions.c 0x00000000   Number         0  matrixfunctions.o ABSOLUTE
    F:\\Keil_MDK\\pack\\ARM\\CMSIS\\5.7.0\\CMSIS\\DSP\\Source\\SVMFunctions\\SVMFunctions.c 0x00000000   Number         0  svmfunctions.o ABSOLUTE
    F:\\Keil_MDK\\pack\\ARM\\CMSIS\\5.7.0\\CMSIS\\DSP\\Source\\StatisticsFunctions\\StatisticsFunctions.c 0x00000000   Number         0  statisticsfunctions.o ABSOLUTE
    F:\\Keil_MDK\\pack\\ARM\\CMSIS\\5.7.0\\CMSIS\\DSP\\Source\\SupportFunctions\\SupportFunctions.c 0x00000000   Number         0  supportfunctions.o ABSOLUTE
    F:\\Keil_MDK\\pack\\ARM\\CMSIS\\5.7.0\\CMSIS\\DSP\\Source\\TransformFunctions\\TransformFunctions.c 0x00000000   Number         0  transformfunctions.o ABSOLUTE
    cdcmple.s                                0x00000000   Number         0  cdcmple.o ABSOLUTE
    cdrcmple.s                               0x00000000   Number         0  cdrcmple.o ABSOLUTE
    cfcmple.s                                0x00000000   Number         0  cfcmple.o ABSOLUTE
    cfrcmple.s                               0x00000000   Number         0  cfrcmple.o ABSOLUTE
    dc.s                                     0x00000000   Number         0  dc.o ABSOLUTE
    driver\\bitband.c                        0x00000000   Number         0  bitband.o ABSOLUTE
    driver\\dsp_test.c                       0x00000000   Number         0  dsp_test.o ABSOLUTE
    driver\\led.c                            0x00000000   Number         0  led.o ABSOLUTE
    driver\\print.c                          0x00000000   Number         0  print.o ABSOLUTE
    driver\\systick.c                        0x00000000   Number         0  systick.o ABSOLUTE
    driver\bitband.c                         0x00000000   Number         0  bitband.o ABSOLUTE
    driver\dsp_test.c                        0x00000000   Number         0  dsp_test.o ABSOLUTE
    driver\led.c                             0x00000000   Number         0  led.o ABSOLUTE
    driver\print.c                           0x00000000   Number         0  print.o ABSOLUTE
    driver\systick.c                         0x00000000   Number         0  systick.o ABSOLUTE
    handlers.s                               0x00000000   Number         0  handlers.o ABSOLUTE
    init.s                                   0x00000000   Number         0  init.o ABSOLUTE
    std\Source\gd32f10x_adc.c                0x00000000   Number         0  gd32f10x_adc.o ABSOLUTE
    std\Source\gd32f10x_bkp.c                0x00000000   Number         0  gd32f10x_bkp.o ABSOLUTE
    std\Source\gd32f10x_can.c                0x00000000   Number         0  gd32f10x_can.o ABSOLUTE
    std\Source\gd32f10x_crc.c                0x00000000   Number         0  gd32f10x_crc.o ABSOLUTE
    std\Source\gd32f10x_dac.c                0x00000000   Number         0  gd32f10x_dac.o ABSOLUTE
    std\Source\gd32f10x_dbg.c                0x00000000   Number         0  gd32f10x_dbg.o ABSOLUTE
    std\Source\gd32f10x_dma.c                0x00000000   Number         0  gd32f10x_dma.o ABSOLUTE
    std\Source\gd32f10x_enet.c               0x00000000   Number         0  gd32f10x_enet.o ABSOLUTE
    std\Source\gd32f10x_exmc.c               0x00000000   Number         0  gd32f10x_exmc.o ABSOLUTE
    std\Source\gd32f10x_exti.c               0x00000000   Number         0  gd32f10x_exti.o ABSOLUTE
    std\Source\gd32f10x_fmc.c                0x00000000   Number         0  gd32f10x_fmc.o ABSOLUTE
    std\Source\gd32f10x_fwdgt.c              0x00000000   Number         0  gd32f10x_fwdgt.o ABSOLUTE
    std\Source\gd32f10x_gpio.c               0x00000000   Number         0  gd32f10x_gpio.o ABSOLUTE
    std\Source\gd32f10x_i2c.c                0x00000000   Number         0  gd32f10x_i2c.o ABSOLUTE
    std\Source\gd32f10x_misc.c               0x00000000   Number         0  gd32f10x_misc.o ABSOLUTE
    std\Source\gd32f10x_pmu.c                0x00000000   Number         0  gd32f10x_pmu.o ABSOLUTE
    std\Source\gd32f10x_rcu.c                0x00000000   Number         0  gd32f10x_rcu.o ABSOLUTE
    std\Source\gd32f10x_rtc.c                0x00000000   Number         0  gd32f10x_rtc.o ABSOLUTE
    std\Source\gd32f10x_sdio.c               0x00000000   Number         0  gd32f10x_sdio.o ABSOLUTE
    std\Source\gd32f10x_spi.c                0x00000000   Number         0  gd32f10x_spi.o ABSOLUTE
    std\Source\gd32f10x_timer.c              0x00000000   Number         0  gd32f10x_timer.o ABSOLUTE
    std\Source\gd32f10x_usart.c              0x00000000   Number         0  gd32f10x_usart.o ABSOLUTE
    std\Source\gd32f10x_wwdgt.c              0x00000000   Number         0  gd32f10x_wwdgt.o ABSOLUTE
    std\\Source\\gd32f10x_adc.c              0x00000000   Number         0  gd32f10x_adc.o ABSOLUTE
    std\\Source\\gd32f10x_bkp.c              0x00000000   Number         0  gd32f10x_bkp.o ABSOLUTE
    std\\Source\\gd32f10x_can.c              0x00000000   Number         0  gd32f10x_can.o ABSOLUTE
    std\\Source\\gd32f10x_crc.c              0x00000000   Number         0  gd32f10x_crc.o ABSOLUTE
    std\\Source\\gd32f10x_dac.c              0x00000000   Number         0  gd32f10x_dac.o ABSOLUTE
    std\\Source\\gd32f10x_dbg.c              0x00000000   Number         0  gd32f10x_dbg.o ABSOLUTE
    std\\Source\\gd32f10x_dma.c              0x00000000   Number         0  gd32f10x_dma.o ABSOLUTE
    std\\Source\\gd32f10x_enet.c             0x00000000   Number         0  gd32f10x_enet.o ABSOLUTE
    std\\Source\\gd32f10x_exmc.c             0x00000000   Number         0  gd32f10x_exmc.o ABSOLUTE
    std\\Source\\gd32f10x_exti.c             0x00000000   Number         0  gd32f10x_exti.o ABSOLUTE
    std\\Source\\gd32f10x_fmc.c              0x00000000   Number         0  gd32f10x_fmc.o ABSOLUTE
    std\\Source\\gd32f10x_fwdgt.c            0x00000000   Number         0  gd32f10x_fwdgt.o ABSOLUTE
    std\\Source\\gd32f10x_gpio.c             0x00000000   Number         0  gd32f10x_gpio.o ABSOLUTE
    std\\Source\\gd32f10x_i2c.c              0x00000000   Number         0  gd32f10x_i2c.o ABSOLUTE
    std\\Source\\gd32f10x_misc.c             0x00000000   Number         0  gd32f10x_misc.o ABSOLUTE
    std\\Source\\gd32f10x_pmu.c              0x00000000   Number         0  gd32f10x_pmu.o ABSOLUTE
    std\\Source\\gd32f10x_rcu.c              0x00000000   Number         0  gd32f10x_rcu.o ABSOLUTE
    std\\Source\\gd32f10x_rtc.c              0x00000000   Number         0  gd32f10x_rtc.o ABSOLUTE
    std\\Source\\gd32f10x_sdio.c             0x00000000   Number         0  gd32f10x_sdio.o ABSOLUTE
    std\\Source\\gd32f10x_spi.c              0x00000000   Number         0  gd32f10x_spi.o ABSOLUTE
    std\\Source\\gd32f10x_timer.c            0x00000000   Number         0  gd32f10x_timer.o ABSOLUTE
    std\\Source\\gd32f10x_usart.c            0x00000000   Number         0  gd32f10x_usart.o ABSOLUTE
    std\\Source\\gd32f10x_wwdgt.c            0x00000000   Number         0  gd32f10x_wwdgt.o ABSOLUTE
    user\\gd32f10x_it.c                      0x00000000   Number         0  gd32f10x_it.o ABSOLUTE
    user\\main.c                             0x00000000   Number         0  main.o ABSOLUTE
    user\\system_gd32f10x.c                  0x00000000   Number         0  system_gd32f10x.o ABSOLUTE
    user\gd32f10x_it.c                       0x00000000   Number         0  gd32f10x_it.o ABSOLUTE
    user\main.c                              0x00000000   Number         0  main.o ABSOLUTE
    user\startup_gd32f10x_xd.s               0x00000000   Number         0  startup_gd32f10x_xd.o ABSOLUTE
    user\system_gd32f10x.c                   0x00000000   Number         0  system_gd32f10x.o ABSOLUTE
    RESET                                    0x08000000   Section      304  startup_gd32f10x_xd.o(RESET)
    .ARM.Collect$$$$00000000                 0x08000130   Section        0  entry.o(.ARM.Collect$$$$00000000)
    .ARM.Collect$$$$00000001                 0x08000130   Section        4  entry2.o(.ARM.Collect$$$$00000001)
    .ARM.Collect$$$$00000004                 0x08000134   Section        4  entry5.o(.ARM.Collect$$$$00000004)
    .ARM.Collect$$$$00000008                 0x08000138   Section        0  entry7b.o(.ARM.Collect$$$$00000008)
    .ARM.Collect$$$$0000000A                 0x08000138   Section        0  entry8b.o(.ARM.Collect$$$$0000000A)
    .ARM.Collect$$$$0000000B                 0x08000138   Section        8  entry9a.o(.ARM.Collect$$$$0000000B)
    .ARM.Collect$$$$0000000D                 0x08000140   Section        0  entry10a.o(.ARM.Collect$$$$0000000D)
    .ARM.Collect$$$$0000000F                 0x08000140   Section        0  entry11a.o(.ARM.Collect$$$$0000000F)
    .ARM.Collect$$$$00002712                 0x08000140   Section        4  entry2.o(.ARM.Collect$$$$00002712)
    __lit__00000000                          0x08000140   Data           4  entry2.o(.ARM.Collect$$$$00002712)
    .text                                    0x08000144   Section       36  startup_gd32f10x_xd.o(.text)
    .text                                    0x08000168   Section        0  uldiv.o(.text)
    .text                                    0x080001ca   Section        0  llshl.o(.text)
    .text                                    0x080001e8   Section        0  llsshr.o(.text)
    .text                                    0x0800020c   Section        0  memseta.o(.text)
    .text                                    0x08000230   Section        0  fadd.o(.text)
    .text                                    0x080002e0   Section        0  fmul.o(.text)
    .text                                    0x08000344   Section        0  fdiv.o(.text)
    .text                                    0x080003c0   Section        0  dadd.o(.text)
    .text                                    0x0800050e   Section        0  dmul.o(.text)
    .text                                    0x080005f2   Section        0  ddiv.o(.text)
    .text                                    0x080006d0   Section        0  fflti.o(.text)
    .text                                    0x080006e2   Section        0  ffltui.o(.text)
    .text                                    0x080006ec   Section        0  ffixi.o(.text)
    .text                                    0x0800071e   Section        0  ffixui.o(.text)
    .text                                    0x08000746   Section        0  f2d.o(.text)
    .text                                    0x0800076c   Section       20  cfcmple.o(.text)
    .text                                    0x08000780   Section        0  uidiv.o(.text)
    .text                                    0x080007ac   Section        0  llushr.o(.text)
    .text                                    0x080007cc   Section        0  fepilogue.o(.text)
    .text                                    0x080007cc   Section        0  iusefp.o(.text)
    .text                                    0x0800083a   Section        0  depilogue.o(.text)
    .text                                    0x080008f4   Section        0  dfixul.o(.text)
    .text                                    0x08000924   Section       48  cdrcmple.o(.text)
    .text                                    0x08000954   Section       36  init.o(.text)
    i.BusFault_Handler                       0x08000978   Section        0  gd32f10x_it.o(i.BusFault_Handler)
    i.DebugMon_Handler                       0x0800097c   Section        0  gd32f10x_it.o(i.DebugMon_Handler)
    i.HardFault_Handler                      0x0800097e   Section        0  gd32f10x_it.o(i.HardFault_Handler)
    i.MemManage_Handler                      0x08000982   Section        0  gd32f10x_it.o(i.MemManage_Handler)
    i.NMI_Handler                            0x08000986   Section        0  gd32f10x_it.o(i.NMI_Handler)
    i.PendSV_Handler                         0x08000988   Section        0  gd32f10x_it.o(i.PendSV_Handler)
    i.SVC_Handler                            0x0800098a   Section        0  gd32f10x_it.o(i.SVC_Handler)
    i.SystemInit                             0x0800098c   Section        0  system_gd32f10x.o(i.SystemInit)
    i.UsageFault_Handler                     0x08000a60   Section        0  gd32f10x_it.o(i.UsageFault_Handler)
    i.__0printf                              0x08000a64   Section        0  printfa.o(i.__0printf)
    i.__scatterload_copy                     0x08000a84   Section       14  handlers.o(i.__scatterload_copy)
    i.__scatterload_null                     0x08000a92   Section        2  handlers.o(i.__scatterload_null)
    i.__scatterload_zeroinit                 0x08000a94   Section       14  handlers.o(i.__scatterload_zeroinit)
    i._fp_digits                             0x08000aa4   Section        0  printfa.o(i._fp_digits)
    _fp_digits                               0x08000aa5   Thumb Code   366  printfa.o(i._fp_digits)
    i._printf_core                           0x08000c28   Section        0  printfa.o(i._printf_core)
    _printf_core                             0x08000c29   Thumb Code  1744  printfa.o(i._printf_core)
    i._printf_post_padding                   0x08001304   Section        0  printfa.o(i._printf_post_padding)
    _printf_post_padding                     0x08001305   Thumb Code    36  printfa.o(i._printf_post_padding)
    i._printf_pre_padding                    0x08001328   Section        0  printfa.o(i._printf_pre_padding)
    _printf_pre_padding                      0x08001329   Thumb Code    46  printfa.o(i._printf_pre_padding)
    i.arm_biquad_cascade_df1_f32             0x08001356   Section        0  filteringfunctions.o(i.arm_biquad_cascade_df1_f32)
    i.arm_biquad_cascade_df1_init_f32        0x0800143e   Section        0  filteringfunctions.o(i.arm_biquad_cascade_df1_init_f32)
    i.arm_sin_f32                            0x0800145c   Section        0  fastmathfunctions.o(i.arm_sin_f32)
    i.delay_ms                               0x08001510   Section        0  systick.o(i.delay_ms)
    i.delay_nms                              0x0800153c   Section        0  systick.o(i.delay_nms)
    delay_nms                                0x0800153d   Thumb Code    74  systick.o(i.delay_nms)
    i.dsp_test                               0x0800158c   Section        0  dsp_test.o(i.dsp_test)
    i.fputc                                  0x080016dc   Section        0  print.o(i.fputc)
    i.get_mem_infor                          0x08001700   Section        0  bitband.o(i.get_mem_infor)
    i.get_uid                                0x08001714   Section        0  bitband.o(i.get_uid)
    i.gpio_init                              0x08001730   Section        0  gd32f10x_gpio.o(i.gpio_init)
    i.led_init                               0x080017dc   Section        0  led.o(i.led_init)
    i.led_off                                0x08001844   Section        0  led.o(i.led_off)
    i.led_on                                 0x08001868   Section        0  led.o(i.led_on)
    i.main                                   0x0800188c   Section        0  main.o(i.main)
    i.nvic_vector_table_set                  0x08001944   Section        0  gd32f10x_misc.o(i.nvic_vector_table_set)
    i.print_config                           0x0800195c   Section        0  print.o(i.print_config)
    i.rcu_clock_freq_get                     0x080019dc   Section        0  gd32f10x_rcu.o(i.rcu_clock_freq_get)
    i.rcu_periph_clock_enable                0x08001b00   Section        0  gd32f10x_rcu.o(i.rcu_periph_clock_enable)
    i.system_clock_96m_hxtal                 0x08001b20   Section        0  system_gd32f10x.o(i.system_clock_96m_hxtal)
    system_clock_96m_hxtal                   0x08001b21   Thumb Code   180  system_gd32f10x.o(i.system_clock_96m_hxtal)
    i.system_clock_config                    0x08001bdc   Section        0  system_gd32f10x.o(i.system_clock_config)
    system_clock_config                      0x08001bdd   Thumb Code     8  system_gd32f10x.o(i.system_clock_config)
    i.systick_clksource_set                  0x08001be4   Section        0  gd32f10x_misc.o(i.systick_clksource_set)
    i.systick_set                            0x08001c0c   Section        0  systick.o(i.systick_set)
    i.usart_baudrate_set                     0x08001c30   Section        0  gd32f10x_usart.o(i.usart_baudrate_set)
    i.usart_data_transmit                    0x08001cc0   Section        0  gd32f10x_usart.o(i.usart_data_transmit)
    i.usart_enable                           0x08001cc8   Section        0  gd32f10x_usart.o(i.usart_enable)
    i.usart_flag_get                         0x08001cd2   Section        0  gd32f10x_usart.o(i.usart_flag_get)
    i.usart_hardware_flow_cts_config         0x08001cf0   Section        0  gd32f10x_usart.o(i.usart_hardware_flow_cts_config)
    i.usart_hardware_flow_rts_config         0x08001d00   Section        0  gd32f10x_usart.o(i.usart_hardware_flow_rts_config)
    i.usart_parity_config                    0x08001d10   Section        0  gd32f10x_usart.o(i.usart_parity_config)
    i.usart_receive_config                   0x08001d20   Section        0  gd32f10x_usart.o(i.usart_receive_config)
    i.usart_stop_bit_set                     0x08001d30   Section        0  gd32f10x_usart.o(i.usart_stop_bit_set)
    i.usart_transmit_config                  0x08001d40   Section        0  gd32f10x_usart.o(i.usart_transmit_config)
    i.usart_word_length_set                  0x08001d50   Section        0  gd32f10x_usart.o(i.usart_word_length_set)
    .constdata                               0x08001d60   Section    920372  commontables.o(.constdata)
    .data                                    0x20000000   Section        4  main.o(.data)
    .data                                    0x20000004   Section        8  systick.o(.data)
    .data                                    0x2000000c   Section       48  dsp_test.o(.data)
    numStages                                0x2000000c   Data           1  dsp_test.o(.data)
    pCoeffs                                  0x20000010   Data          40  dsp_test.o(.data)
    blockSize                                0x20000038   Data           4  dsp_test.o(.data)
    .data                                    0x2000003c   Section        4  stdout.o(.data)
    .bss                                     0x20000040   Section       12  main.o(.bss)
    .bss                                     0x2000004c   Section     4140  dsp_test.o(.bss)
    S                                        0x2000004c   Data          12  dsp_test.o(.bss)
    pState                                   0x20000058   Data          32  dsp_test.o(.bss)
    pSrc                                     0x20000078   Data        2048  dsp_test.o(.bss)
    pDst                                     0x20000878   Data        2048  dsp_test.o(.bss)
    STACK                                    0x20001078   Section     1024  startup_gd32f10x_xd.o(STACK)

    Global Symbols

    Symbol Name                              Value     Ov Type        Size  Object(Section)

    BuildAttributes$$THM_ISAv4$P$D$K$B$S$PE$A:L22UL41UL21$X:L11$S22US41US21$IEEE1$IW$USESV6$~STKCKD$USESV7$~SHL$OTIME$ROPI$IEEEX$EBA8$MICROLIB$REQ8$PRES8$EABIv2 0x00000000   Number         0  anon$$obj.o ABSOLUTE
    __ARM_use_no_argv                        0x00000000   Number         0  main.o ABSOLUTE
    _printf_a                                0x00000000   Number         0  stubs.o ABSOLUTE
    _printf_c                                0x00000000   Number         0  stubs.o ABSOLUTE
    _printf_charcount                        0x00000000   Number         0  stubs.o ABSOLUTE
    _printf_d                                0x00000000   Number         0  stubs.o ABSOLUTE
    _printf_e                                0x00000000   Number         0  stubs.o ABSOLUTE
    _printf_f                                0x00000000   Number         0  stubs.o ABSOLUTE
    _printf_flags                            0x00000000   Number         0  stubs.o ABSOLUTE
    _printf_fp_dec                           0x00000000   Number         0  stubs.o ABSOLUTE
    _printf_fp_hex                           0x00000000   Number         0  stubs.o ABSOLUTE
    _printf_g                                0x00000000   Number         0  stubs.o ABSOLUTE
    _printf_i                                0x00000000   Number         0  stubs.o ABSOLUTE
    _printf_int_dec                          0x00000000   Number         0  stubs.o ABSOLUTE
    _printf_l                                0x00000000   Number         0  stubs.o ABSOLUTE
    _printf_lc                               0x00000000   Number         0  stubs.o ABSOLUTE
    _printf_ll                               0x00000000   Number         0  stubs.o ABSOLUTE
    _printf_lld                              0x00000000   Number         0  stubs.o ABSOLUTE
    _printf_lli                              0x00000000   Number         0  stubs.o ABSOLUTE
    _printf_llo                              0x00000000   Number         0  stubs.o ABSOLUTE
    _printf_llu                              0x00000000   Number         0  stubs.o ABSOLUTE
    _printf_llx                              0x00000000   Number         0  stubs.o ABSOLUTE
    _printf_longlong_dec                     0x00000000   Number         0  stubs.o ABSOLUTE
    _printf_longlong_hex                     0x00000000   Number         0  stubs.o ABSOLUTE
    _printf_longlong_oct                     0x00000000   Number         0  stubs.o ABSOLUTE
    _printf_ls                               0x00000000   Number         0  stubs.o ABSOLUTE
    _printf_mbtowc                           0x00000000   Number         0  stubs.o ABSOLUTE
    _printf_n                                0x00000000   Number         0  stubs.o ABSOLUTE
    _printf_o                                0x00000000   Number         0  stubs.o ABSOLUTE
    _printf_p                                0x00000000   Number         0  stubs.o ABSOLUTE
    _printf_percent                          0x00000000   Number         0  stubs.o ABSOLUTE
    _printf_pre_padding                      0x00000000   Number         0  stubs.o ABSOLUTE
    _printf_return_value                     0x00000000   Number         0  stubs.o ABSOLUTE
    _printf_s                                0x00000000   Number         0  stubs.o ABSOLUTE
    _printf_sizespec                         0x00000000   Number         0  stubs.o ABSOLUTE
    _printf_str                              0x00000000   Number         0  stubs.o ABSOLUTE
    _printf_truncate_signed                  0x00000000   Number         0  stubs.o ABSOLUTE
    _printf_truncate_unsigned                0x00000000   Number         0  stubs.o ABSOLUTE
    _printf_u                                0x00000000   Number         0  stubs.o ABSOLUTE
    _printf_wc                               0x00000000   Number         0  stubs.o ABSOLUTE
    _printf_wctomb                           0x00000000   Number         0  stubs.o ABSOLUTE
    _printf_widthprec                        0x00000000   Number         0  stubs.o ABSOLUTE
    _printf_x                                0x00000000   Number         0  stubs.o ABSOLUTE
    __cpp_initialize__aeabi_                  - Undefined Weak Reference
    __cxa_finalize                            - Undefined Weak Reference
    __decompress                              - Undefined Weak Reference
    _clock_init                               - Undefined Weak Reference
    _microlib_exit                            - Undefined Weak Reference
    __Vectors_Size                           0x00000130   Number         0  startup_gd32f10x_xd.o ABSOLUTE
    __Vectors                                0x08000000   Data           4  startup_gd32f10x_xd.o(RESET)
    __Vectors_End                            0x08000130   Data           0  startup_gd32f10x_xd.o(RESET)
    __main                                   0x08000131   Thumb Code     0  entry.o(.ARM.Collect$$$$00000000)
    _main_stk                                0x08000131   Thumb Code     0  entry2.o(.ARM.Collect$$$$00000001)
    _main_scatterload                        0x08000135   Thumb Code     0  entry5.o(.ARM.Collect$$$$00000004)
    __main_after_scatterload                 0x08000139   Thumb Code     0  entry5.o(.ARM.Collect$$$$00000004)
    _main_clock                              0x08000139   Thumb Code     0  entry7b.o(.ARM.Collect$$$$00000008)
    _main_cpp_init                           0x08000139   Thumb Code     0  entry8b.o(.ARM.Collect$$$$0000000A)
    _main_init                               0x08000139   Thumb Code     0  entry9a.o(.ARM.Collect$$$$0000000B)
    __rt_final_cpp                           0x08000141   Thumb Code     0  entry10a.o(.ARM.Collect$$$$0000000D)
    __rt_final_exit                          0x08000141   Thumb Code     0  entry11a.o(.ARM.Collect$$$$0000000F)
    Reset_Handler                            0x08000145   Thumb Code     8  startup_gd32f10x_xd.o(.text)
    SysTick_Handler                          0x0800015d   Thumb Code     2  startup_gd32f10x_xd.o(.text)
    ADC0_1_IRQHandler                        0x0800015f   Thumb Code     0  startup_gd32f10x_xd.o(.text)
    ADC2_IRQHandler                          0x0800015f   Thumb Code     0  startup_gd32f10x_xd.o(.text)
    CAN0_EWMC_IRQHandler                     0x0800015f   Thumb Code     0  startup_gd32f10x_xd.o(.text)
    CAN0_RX1_IRQHandler                      0x0800015f   Thumb Code     0  startup_gd32f10x_xd.o(.text)
    DMA0_Channel0_IRQHandler                 0x0800015f   Thumb Code     0  startup_gd32f10x_xd.o(.text)
    DMA0_Channel1_IRQHandler                 0x0800015f   Thumb Code     0  startup_gd32f10x_xd.o(.text)
    DMA0_Channel2_IRQHandler                 0x0800015f   Thumb Code     0  startup_gd32f10x_xd.o(.text)
    DMA0_Channel3_IRQHandler                 0x0800015f   Thumb Code     0  startup_gd32f10x_xd.o(.text)
    DMA0_Channel4_IRQHandler                 0x0800015f   Thumb Code     0  startup_gd32f10x_xd.o(.text)
    DMA0_Channel5_IRQHandler                 0x0800015f   Thumb Code     0  startup_gd32f10x_xd.o(.text)
    DMA0_Channel6_IRQHandler                 0x0800015f   Thumb Code     0  startup_gd32f10x_xd.o(.text)
    DMA1_Channel0_IRQHandler                 0x0800015f   Thumb Code     0  startup_gd32f10x_xd.o(.text)
    DMA1_Channel1_IRQHandler                 0x0800015f   Thumb Code     0  startup_gd32f10x_xd.o(.text)
    DMA1_Channel2_IRQHandler                 0x0800015f   Thumb Code     0  startup_gd32f10x_xd.o(.text)
    DMA1_Channel3_4_IRQHandler               0x0800015f   Thumb Code     0  startup_gd32f10x_xd.o(.text)
    EXMC_IRQHandler                          0x0800015f   Thumb Code     0  startup_gd32f10x_xd.o(.text)
    EXTI0_IRQHandler                         0x0800015f   Thumb Code     0  startup_gd32f10x_xd.o(.text)
    EXTI10_15_IRQHandler                     0x0800015f   Thumb Code     0  startup_gd32f10x_xd.o(.text)
    EXTI1_IRQHandler                         0x0800015f   Thumb Code     0  startup_gd32f10x_xd.o(.text)
    EXTI2_IRQHandler                         0x0800015f   Thumb Code     0  startup_gd32f10x_xd.o(.text)
    EXTI3_IRQHandler                         0x0800015f   Thumb Code     0  startup_gd32f10x_xd.o(.text)
    EXTI4_IRQHandler                         0x0800015f   Thumb Code     0  startup_gd32f10x_xd.o(.text)
    EXTI5_9_IRQHandler                       0x0800015f   Thumb Code     0  startup_gd32f10x_xd.o(.text)
    FMC_IRQHandler                           0x0800015f   Thumb Code     0  startup_gd32f10x_xd.o(.text)
    I2C0_ER_IRQHandler                       0x0800015f   Thumb Code     0  startup_gd32f10x_xd.o(.text)
    I2C0_EV_IRQHandler                       0x0800015f   Thumb Code     0  startup_gd32f10x_xd.o(.text)
    I2C1_ER_IRQHandler                       0x0800015f   Thumb Code     0  startup_gd32f10x_xd.o(.text)
    I2C1_EV_IRQHandler                       0x0800015f   Thumb Code     0  startup_gd32f10x_xd.o(.text)
    LVD_IRQHandler                           0x0800015f   Thumb Code     0  startup_gd32f10x_xd.o(.text)
    RCU_IRQHandler                           0x0800015f   Thumb Code     0  startup_gd32f10x_xd.o(.text)
    RTC_Alarm_IRQHandler                     0x0800015f   Thumb Code     0  startup_gd32f10x_xd.o(.text)
    RTC_IRQHandler                           0x0800015f   Thumb Code     0  startup_gd32f10x_xd.o(.text)
    SDIO_IRQHandler                          0x0800015f   Thumb Code     0  startup_gd32f10x_xd.o(.text)
    SPI0_IRQHandler                          0x0800015f   Thumb Code     0  startup_gd32f10x_xd.o(.text)
    SPI1_IRQHandler                          0x0800015f   Thumb Code     0  startup_gd32f10x_xd.o(.text)
    SPI2_IRQHandler                          0x0800015f   Thumb Code     0  startup_gd32f10x_xd.o(.text)
    TAMPER_IRQHandler                        0x0800015f   Thumb Code     0  startup_gd32f10x_xd.o(.text)
    TIMER0_BRK_TIMER8_IRQHandler             0x0800015f   Thumb Code     0  startup_gd32f10x_xd.o(.text)
    TIMER0_Channel_IRQHandler                0x0800015f   Thumb Code     0  startup_gd32f10x_xd.o(.text)
    TIMER0_TRG_CMT_TIMER10_IRQHandler        0x0800015f   Thumb Code     0  startup_gd32f10x_xd.o(.text)
    TIMER0_UP_TIMER9_IRQHandler              0x0800015f   Thumb Code     0  startup_gd32f10x_xd.o(.text)
    TIMER1_IRQHandler                        0x0800015f   Thumb Code     0  startup_gd32f10x_xd.o(.text)
    TIMER2_IRQHandler                        0x0800015f   Thumb Code     0  startup_gd32f10x_xd.o(.text)
    TIMER3_IRQHandler                        0x0800015f   Thumb Code     0  startup_gd32f10x_xd.o(.text)
    TIMER4_IRQHandler                        0x0800015f   Thumb Code     0  startup_gd32f10x_xd.o(.text)
    TIMER5_IRQHandler                        0x0800015f   Thumb Code     0  startup_gd32f10x_xd.o(.text)
    TIMER6_IRQHandler                        0x0800015f   Thumb Code     0  startup_gd32f10x_xd.o(.text)
    TIMER7_BRK_TIMER11_IRQHandler            0x0800015f   Thumb Code     0  startup_gd32f10x_xd.o(.text)
    TIMER7_Channel_IRQHandler                0x0800015f   Thumb Code     0  startup_gd32f10x_xd.o(.text)
    TIMER7_TRG_CMT_TIMER13_IRQHandler        0x0800015f   Thumb Code     0  startup_gd32f10x_xd.o(.text)
    TIMER7_UP_TIMER12_IRQHandler             0x0800015f   Thumb Code     0  startup_gd32f10x_xd.o(.text)
    UART3_IRQHandler                         0x0800015f   Thumb Code     0  startup_gd32f10x_xd.o(.text)
    UART4_IRQHandler                         0x0800015f   Thumb Code     0  startup_gd32f10x_xd.o(.text)
    USART0_IRQHandler                        0x0800015f   Thumb Code     0  startup_gd32f10x_xd.o(.text)
    USART1_IRQHandler                        0x0800015f   Thumb Code     0  startup_gd32f10x_xd.o(.text)
    USART2_IRQHandler                        0x0800015f   Thumb Code     0  startup_gd32f10x_xd.o(.text)
    USBD_HP_CAN0_TX_IRQHandler               0x0800015f   Thumb Code     0  startup_gd32f10x_xd.o(.text)
    USBD_LP_CAN0_RX0_IRQHandler              0x0800015f   Thumb Code     0  startup_gd32f10x_xd.o(.text)
    USBD_WKUP_IRQHandler                     0x0800015f   Thumb Code     0  startup_gd32f10x_xd.o(.text)
    WWDGT_IRQHandler                         0x0800015f   Thumb Code     0  startup_gd32f10x_xd.o(.text)
    __aeabi_uldivmod                         0x08000169   Thumb Code    98  uldiv.o(.text)
    __aeabi_llsl                             0x080001cb   Thumb Code    30  llshl.o(.text)
    _ll_shift_l                              0x080001cb   Thumb Code     0  llshl.o(.text)
    __aeabi_lasr                             0x080001e9   Thumb Code    36  llsshr.o(.text)
    _ll_sshift_r                             0x080001e9   Thumb Code     0  llsshr.o(.text)
    __aeabi_memset                           0x0800020d   Thumb Code    14  memseta.o(.text)
    __aeabi_memset4                          0x0800020d   Thumb Code     0  memseta.o(.text)
    __aeabi_memset8                          0x0800020d   Thumb Code     0  memseta.o(.text)
    __aeabi_memclr                           0x0800021b   Thumb Code     4  memseta.o(.text)
    __aeabi_memclr4                          0x0800021b   Thumb Code     0  memseta.o(.text)
    __aeabi_memclr8                          0x0800021b   Thumb Code     0  memseta.o(.text)
    _memset$wrapper                          0x0800021f   Thumb Code    18  memseta.o(.text)
    __aeabi_fadd                             0x08000231   Thumb Code   164  fadd.o(.text)
    __aeabi_fsub                             0x080002d5   Thumb Code     6  fadd.o(.text)
    __aeabi_frsub                            0x080002db   Thumb Code     6  fadd.o(.text)
    __aeabi_fmul                             0x080002e1   Thumb Code   100  fmul.o(.text)
    __aeabi_fdiv                             0x08000345   Thumb Code   124  fdiv.o(.text)
    __aeabi_dadd                             0x080003c1   Thumb Code   322  dadd.o(.text)
    __aeabi_dsub                             0x08000503   Thumb Code     6  dadd.o(.text)
    __aeabi_drsub                            0x08000509   Thumb Code     6  dadd.o(.text)
    __aeabi_dmul                             0x0800050f   Thumb Code   228  dmul.o(.text)
    __aeabi_ddiv                             0x080005f3   Thumb Code   222  ddiv.o(.text)
    __aeabi_i2f                              0x080006d1   Thumb Code    18  fflti.o(.text)
    __aeabi_ui2f                             0x080006e3   Thumb Code    10  ffltui.o(.text)
    __aeabi_f2iz                             0x080006ed   Thumb Code    50  ffixi.o(.text)
    __aeabi_f2uiz                            0x0800071f   Thumb Code    40  ffixui.o(.text)
    __aeabi_f2d                              0x08000747   Thumb Code    38  f2d.o(.text)
    __aeabi_cfcmpeq                          0x0800076d   Thumb Code     0  cfcmple.o(.text)
    __aeabi_cfcmple                          0x0800076d   Thumb Code    20  cfcmple.o(.text)
    __aeabi_uidiv                            0x08000781   Thumb Code     0  uidiv.o(.text)
    __aeabi_uidivmod                         0x08000781   Thumb Code    44  uidiv.o(.text)
    __aeabi_llsr                             0x080007ad   Thumb Code    32  llushr.o(.text)
    _ll_ushift_r                             0x080007ad   Thumb Code     0  llushr.o(.text)
    __I$use$fp                               0x080007cd   Thumb Code     0  iusefp.o(.text)
    _float_round                             0x080007cd   Thumb Code    18  fepilogue.o(.text)
    _float_epilogue                          0x080007df   Thumb Code    92  fepilogue.o(.text)
    _double_round                            0x0800083b   Thumb Code    30  depilogue.o(.text)
    _double_epilogue                         0x08000859   Thumb Code   156  depilogue.o(.text)
    __aeabi_d2ulz                            0x080008f5   Thumb Code    48  dfixul.o(.text)
    __aeabi_cdrcmple                         0x08000925   Thumb Code    48  cdrcmple.o(.text)
    __scatterload                            0x08000955   Thumb Code    28  init.o(.text)
    __scatterload_rt2                        0x08000955   Thumb Code     0  init.o(.text)
    BusFault_Handler                         0x08000979   Thumb Code     4  gd32f10x_it.o(i.BusFault_Handler)
    DebugMon_Handler                         0x0800097d   Thumb Code     2  gd32f10x_it.o(i.DebugMon_Handler)
    HardFault_Handler                        0x0800097f   Thumb Code     4  gd32f10x_it.o(i.HardFault_Handler)
    MemManage_Handler                        0x08000983   Thumb Code     4  gd32f10x_it.o(i.MemManage_Handler)
    NMI_Handler                              0x08000987   Thumb Code     2  gd32f10x_it.o(i.NMI_Handler)
    PendSV_Handler                           0x08000989   Thumb Code     2  gd32f10x_it.o(i.PendSV_Handler)
    SVC_Handler                              0x0800098b   Thumb Code     2  gd32f10x_it.o(i.SVC_Handler)
    SystemInit                               0x0800098d   Thumb Code   196  system_gd32f10x.o(i.SystemInit)
    UsageFault_Handler                       0x08000a61   Thumb Code     4  gd32f10x_it.o(i.UsageFault_Handler)
    __0printf                                0x08000a65   Thumb Code    22  printfa.o(i.__0printf)
    __1printf                                0x08000a65   Thumb Code     0  printfa.o(i.__0printf)
    __2printf                                0x08000a65   Thumb Code     0  printfa.o(i.__0printf)
    __c89printf                              0x08000a65   Thumb Code     0  printfa.o(i.__0printf)
    printf                                   0x08000a65   Thumb Code     0  printfa.o(i.__0printf)
    __scatterload_copy                       0x08000a85   Thumb Code    14  handlers.o(i.__scatterload_copy)
    __scatterload_null                       0x08000a93   Thumb Code     2  handlers.o(i.__scatterload_null)
    __scatterload_zeroinit                   0x08000a95   Thumb Code    14  handlers.o(i.__scatterload_zeroinit)
    arm_biquad_cascade_df1_f32               0x08001357   Thumb Code   232  filteringfunctions.o(i.arm_biquad_cascade_df1_f32)
    arm_biquad_cascade_df1_init_f32          0x0800143f   Thumb Code    30  filteringfunctions.o(i.arm_biquad_cascade_df1_init_f32)
    arm_sin_f32                              0x0800145d   Thumb Code   170  fastmathfunctions.o(i.arm_sin_f32)
    delay_ms                                 0x08001511   Thumb Code    42  systick.o(i.delay_ms)
    dsp_test                                 0x0800158d   Thumb Code   264  dsp_test.o(i.dsp_test)
    fputc                                    0x080016dd   Thumb Code    32  print.o(i.fputc)
    get_mem_infor                            0x08001701   Thumb Code    14  bitband.o(i.get_mem_infor)
    get_uid                                  0x08001715   Thumb Code    24  bitband.o(i.get_uid)
    gpio_init                                0x08001731   Thumb Code   172  gd32f10x_gpio.o(i.gpio_init)
    led_init                                 0x080017dd   Thumb Code    92  led.o(i.led_init)
    led_off                                  0x08001845   Thumb Code    26  led.o(i.led_off)
    led_on                                   0x08001869   Thumb Code    26  led.o(i.led_on)
    main                                     0x0800188d   Thumb Code    92  main.o(i.main)
    nvic_vector_table_set                    0x08001945   Thumb Code    16  gd32f10x_misc.o(i.nvic_vector_table_set)
    print_config                             0x0800195d   Thumb Code   120  print.o(i.print_config)
    rcu_clock_freq_get                       0x080019dd   Thumb Code   264  gd32f10x_rcu.o(i.rcu_clock_freq_get)
    rcu_periph_clock_enable                  0x08001b01   Thumb Code    28  gd32f10x_rcu.o(i.rcu_periph_clock_enable)
    systick_clksource_set                    0x08001be5   Thumb Code    40  gd32f10x_misc.o(i.systick_clksource_set)
    systick_set                              0x08001c0d   Thumb Code    26  systick.o(i.systick_set)
    usart_baudrate_set                       0x08001c31   Thumb Code   136  gd32f10x_usart.o(i.usart_baudrate_set)
    usart_data_transmit                      0x08001cc1   Thumb Code     8  gd32f10x_usart.o(i.usart_data_transmit)
    usart_enable                             0x08001cc9   Thumb Code    10  gd32f10x_usart.o(i.usart_enable)
    usart_flag_get                           0x08001cd3   Thumb Code    30  gd32f10x_usart.o(i.usart_flag_get)
    usart_hardware_flow_cts_config           0x08001cf1   Thumb Code    16  gd32f10x_usart.o(i.usart_hardware_flow_cts_config)
    usart_hardware_flow_rts_config           0x08001d01   Thumb Code    16  gd32f10x_usart.o(i.usart_hardware_flow_rts_config)
    usart_parity_config                      0x08001d11   Thumb Code    16  gd32f10x_usart.o(i.usart_parity_config)
    usart_receive_config                     0x08001d21   Thumb Code    16  gd32f10x_usart.o(i.usart_receive_config)
    usart_stop_bit_set                       0x08001d31   Thumb Code    16  gd32f10x_usart.o(i.usart_stop_bit_set)
    usart_transmit_config                    0x08001d41   Thumb Code    16  gd32f10x_usart.o(i.usart_transmit_config)
    usart_word_length_set                    0x08001d51   Thumb Code    16  gd32f10x_usart.o(i.usart_word_length_set)
    armBitRevTable                           0x08001d60   Data        2048  commontables.o(.constdata)
    twiddleCoefF64_16                        0x08002560   Data         256  commontables.o(.constdata)
    twiddleCoefF64_32                        0x08002660   Data         512  commontables.o(.constdata)
    twiddleCoefF64_64                        0x08002860   Data        1024  commontables.o(.constdata)
    twiddleCoefF64_128                       0x08002c60   Data        2048  commontables.o(.constdata)
    twiddleCoefF64_256                       0x08003460   Data        4096  commontables.o(.constdata)
    twiddleCoefF64_512                       0x08004460   Data        8192  commontables.o(.constdata)
    twiddleCoefF64_1024                      0x08006460   Data       16384  commontables.o(.constdata)
    twiddleCoefF64_2048                      0x0800a460   Data       32768  commontables.o(.constdata)
    twiddleCoefF64_4096                      0x08012460   Data       65536  commontables.o(.constdata)
    twiddleCoef_16                           0x08022460   Data         128  commontables.o(.constdata)
    twiddleCoef_32                           0x080224e0   Data         256  commontables.o(.constdata)
    twiddleCoef_64                           0x080225e0   Data         512  commontables.o(.constdata)
    twiddleCoef_128                          0x080227e0   Data        1024  commontables.o(.constdata)
    twiddleCoef_256                          0x08022be0   Data        2048  commontables.o(.constdata)
    twiddleCoef_512                          0x080233e0   Data        4096  commontables.o(.constdata)
    twiddleCoef_1024                         0x080243e0   Data        8192  commontables.o(.constdata)
    twiddleCoef_2048                         0x080263e0   Data       16384  commontables.o(.constdata)
    twiddleCoef_4096                         0x0802a3e0   Data       32768  commontables.o(.constdata)
    twiddleCoef_16_q31                       0x080323e0   Data          96  commontables.o(.constdata)
    twiddleCoef_32_q31                       0x08032440   Data         192  commontables.o(.constdata)
    twiddleCoef_64_q31                       0x08032500   Data         384  commontables.o(.constdata)
    twiddleCoef_128_q31                      0x08032680   Data         768  commontables.o(.constdata)
    twiddleCoef_256_q31                      0x08032980   Data        1536  commontables.o(.constdata)
    twiddleCoef_512_q31                      0x08032f80   Data        3072  commontables.o(.constdata)
    twiddleCoef_1024_q31                     0x08033b80   Data        6144  commontables.o(.constdata)
    twiddleCoef_2048_q31                     0x08035380   Data       12288  commontables.o(.constdata)
    twiddleCoef_4096_q31                     0x08038380   Data       24576  commontables.o(.constdata)
    twiddleCoef_16_q15                       0x0803e380   Data          48  commontables.o(.constdata)
    twiddleCoef_32_q15                       0x0803e3b0   Data          96  commontables.o(.constdata)
    twiddleCoef_64_q15                       0x0803e410   Data         192  commontables.o(.constdata)
    twiddleCoef_128_q15                      0x0803e4d0   Data         384  commontables.o(.constdata)
    twiddleCoef_256_q15                      0x0803e650   Data         768  commontables.o(.constdata)
    twiddleCoef_512_q15                      0x0803e950   Data        1536  commontables.o(.constdata)
    twiddleCoef_1024_q15                     0x0803ef50   Data        3072  commontables.o(.constdata)
    twiddleCoef_2048_q15                     0x0803fb50   Data        6144  commontables.o(.constdata)
    twiddleCoef_4096_q15                     0x08041350   Data       12288  commontables.o(.constdata)
    armBitRevIndexTableF64_16                0x08044350   Data          24  commontables.o(.constdata)
    armBitRevIndexTableF64_32                0x08044368   Data          48  commontables.o(.constdata)
    armBitRevIndexTableF64_64                0x08044398   Data         112  commontables.o(.constdata)
    armBitRevIndexTableF64_128               0x08044408   Data         224  commontables.o(.constdata)
    armBitRevIndexTableF64_256               0x080444e8   Data         480  commontables.o(.constdata)
    armBitRevIndexTableF64_512               0x080446c8   Data         960  commontables.o(.constdata)
    armBitRevIndexTableF64_1024              0x08044a88   Data        1984  commontables.o(.constdata)
    armBitRevIndexTableF64_2048              0x08045248   Data        3968  commontables.o(.constdata)
    armBitRevIndexTableF64_4096              0x080461c8   Data        8064  commontables.o(.constdata)
    armBitRevIndexTable16                    0x08048148   Data          40  commontables.o(.constdata)
    armBitRevIndexTable32                    0x08048170   Data          96  commontables.o(.constdata)
    armBitRevIndexTable64                    0x080481d0   Data         112  commontables.o(.constdata)
    armBitRevIndexTable128                   0x08048240   Data         416  commontables.o(.constdata)
    armBitRevIndexTable256                   0x080483e0   Data         880  commontables.o(.constdata)
    armBitRevIndexTable512                   0x08048750   Data         896  commontables.o(.constdata)
    armBitRevIndexTable1024                  0x08048ad0   Data        3600  commontables.o(.constdata)
    armBitRevIndexTable2048                  0x080498e0   Data        7616  commontables.o(.constdata)
    armBitRevIndexTable4096                  0x0804b6a0   Data        8064  commontables.o(.constdata)
    armBitRevIndexTable_fixed_16             0x0804d620   Data          24  commontables.o(.constdata)
    armBitRevIndexTable_fixed_32             0x0804d638   Data          48  commontables.o(.constdata)
    armBitRevIndexTable_fixed_64             0x0804d668   Data         112  commontables.o(.constdata)
    armBitRevIndexTable_fixed_128            0x0804d6d8   Data         224  commontables.o(.constdata)
    armBitRevIndexTable_fixed_256            0x0804d7b8   Data         480  commontables.o(.constdata)
    armBitRevIndexTable_fixed_512            0x0804d998   Data         960  commontables.o(.constdata)
    armBitRevIndexTable_fixed_1024           0x0804dd58   Data        1984  commontables.o(.constdata)
    armBitRevIndexTable_fixed_2048           0x0804e518   Data        3968  commontables.o(.constdata)
    armBitRevIndexTable_fixed_4096           0x0804f498   Data        8064  commontables.o(.constdata)
    twiddleCoefF64_rfft_32                   0x08051418   Data         256  commontables.o(.constdata)
    twiddleCoefF64_rfft_64                   0x08051518   Data         512  commontables.o(.constdata)
    twiddleCoefF64_rfft_128                  0x08051718   Data        1024  commontables.o(.constdata)
    twiddleCoefF64_rfft_256                  0x08051b18   Data        2048  commontables.o(.constdata)
    twiddleCoefF64_rfft_512                  0x08052318   Data        4096  commontables.o(.constdata)
    twiddleCoefF64_rfft_1024                 0x08053318   Data        8192  commontables.o(.constdata)
    twiddleCoefF64_rfft_2048                 0x08055318   Data       16384  commontables.o(.constdata)
    twiddleCoefF64_rfft_4096                 0x08059318   Data       32768  commontables.o(.constdata)
    twiddleCoef_rfft_32                      0x08061318   Data         128  commontables.o(.constdata)
    twiddleCoef_rfft_64                      0x08061398   Data         256  commontables.o(.constdata)
    twiddleCoef_rfft_128                     0x08061498   Data         512  commontables.o(.constdata)
    twiddleCoef_rfft_256                     0x08061698   Data        1024  commontables.o(.constdata)
    twiddleCoef_rfft_512                     0x08061a98   Data        2048  commontables.o(.constdata)
    twiddleCoef_rfft_1024                    0x08062298   Data        4096  commontables.o(.constdata)
    twiddleCoef_rfft_2048                    0x08063298   Data        8192  commontables.o(.constdata)
    twiddleCoef_rfft_4096                    0x08065298   Data       16384  commontables.o(.constdata)
    realCoefA                                0x08069298   Data       32768  commontables.o(.constdata)
    realCoefB                                0x08071298   Data       32768  commontables.o(.constdata)
    realCoefAQ31                             0x08079298   Data       32768  commontables.o(.constdata)
    realCoefBQ31                             0x08081298   Data       32768  commontables.o(.constdata)
    realCoefAQ15                             0x08089298   Data       16384  commontables.o(.constdata)
    realCoefBQ15                             0x0808d298   Data       16384  commontables.o(.constdata)
    Weights_128                              0x08091298   Data        1024  commontables.o(.constdata)
    cos_factors_128                          0x08091698   Data         512  commontables.o(.constdata)
    Weights_512                              0x08091898   Data        4096  commontables.o(.constdata)
    cos_factors_512                          0x08092898   Data        2048  commontables.o(.constdata)
    Weights_2048                             0x08093098   Data       16384  commontables.o(.constdata)
    cos_factors_2048                         0x08097098   Data        8192  commontables.o(.constdata)
    Weights_8192                             0x08099098   Data       65536  commontables.o(.constdata)
    cos_factors_8192                         0x080a9098   Data       32768  commontables.o(.constdata)
    WeightsQ15_128                           0x080b1098   Data         512  commontables.o(.constdata)
    cos_factorsQ15_128                       0x080b1298   Data         256  commontables.o(.constdata)
    WeightsQ15_512                           0x080b1398   Data        2048  commontables.o(.constdata)
    cos_factorsQ15_512                       0x080b1b98   Data        1024  commontables.o(.constdata)
    WeightsQ15_2048                          0x080b1f98   Data        8192  commontables.o(.constdata)
    cos_factorsQ15_2048                      0x080b3f98   Data        4096  commontables.o(.constdata)
    WeightsQ15_8192                          0x080b4f98   Data       32768  commontables.o(.constdata)
    cos_factorsQ15_8192                      0x080bcf98   Data       16384  commontables.o(.constdata)
    WeightsQ31_128                           0x080c0f98   Data        1024  commontables.o(.constdata)
    cos_factorsQ31_128                       0x080c1398   Data         512  commontables.o(.constdata)
    WeightsQ31_512                           0x080c1598   Data        4096  commontables.o(.constdata)
    cos_factorsQ31_512                       0x080c2598   Data        2048  commontables.o(.constdata)
    WeightsQ31_2048                          0x080c2d98   Data       16384  commontables.o(.constdata)
    cos_factorsQ31_2048                      0x080c6d98   Data        8192  commontables.o(.constdata)
    WeightsQ31_8192                          0x080c8d98   Data       65536  commontables.o(.constdata)
    cos_factorsQ31_8192                      0x080d8d98   Data       32768  commontables.o(.constdata)
    armRecipTableQ15                         0x080e0d98   Data         128  commontables.o(.constdata)
    armRecipTableQ31                         0x080e0e18   Data         256  commontables.o(.constdata)
    sinTable_f32                             0x080e0f18   Data        2052  commontables.o(.constdata)
    sinTable_q31                             0x080e171c   Data        2052  commontables.o(.constdata)
    sinTable_q15                             0x080e1f20   Data        1026  commontables.o(.constdata)
    arm_cfft_sR_f64_len16                    0x080e2324   Data          16  commontables.o(.constdata)
    arm_cfft_sR_f64_len32                    0x080e2334   Data          16  commontables.o(.constdata)
    arm_cfft_sR_f64_len64                    0x080e2344   Data          16  commontables.o(.constdata)
    arm_cfft_sR_f64_len128                   0x080e2354   Data          16  commontables.o(.constdata)
    arm_cfft_sR_f64_len256                   0x080e2364   Data          16  commontables.o(.constdata)
    arm_cfft_sR_f64_len512                   0x080e2374   Data          16  commontables.o(.constdata)
    arm_cfft_sR_f64_len1024                  0x080e2384   Data          16  commontables.o(.constdata)
    arm_cfft_sR_f64_len2048                  0x080e2394   Data          16  commontables.o(.constdata)
    arm_cfft_sR_f64_len4096                  0x080e23a4   Data          16  commontables.o(.constdata)
    arm_cfft_sR_f32_len16                    0x080e23b4   Data          16  commontables.o(.constdata)
    arm_cfft_sR_f32_len32                    0x080e23c4   Data          16  commontables.o(.constdata)
    arm_cfft_sR_f32_len64                    0x080e23d4   Data          16  commontables.o(.constdata)
    arm_cfft_sR_f32_len128                   0x080e23e4   Data          16  commontables.o(.constdata)
    arm_cfft_sR_f32_len256                   0x080e23f4   Data          16  commontables.o(.constdata)
    arm_cfft_sR_f32_len512                   0x080e2404   Data          16  commontables.o(.constdata)
    arm_cfft_sR_f32_len1024                  0x080e2414   Data          16  commontables.o(.constdata)
    arm_cfft_sR_f32_len2048                  0x080e2424   Data          16  commontables.o(.constdata)
    arm_cfft_sR_f32_len4096                  0x080e2434   Data          16  commontables.o(.constdata)
    arm_cfft_sR_q31_len16                    0x080e2444   Data          16  commontables.o(.constdata)
    arm_cfft_sR_q31_len32                    0x080e2454   Data          16  commontables.o(.constdata)
    arm_cfft_sR_q31_len64                    0x080e2464   Data          16  commontables.o(.constdata)
    arm_cfft_sR_q31_len128                   0x080e2474   Data          16  commontables.o(.constdata)
    arm_cfft_sR_q31_len256                   0x080e2484   Data          16  commontables.o(.constdata)
    arm_cfft_sR_q31_len512                   0x080e2494   Data          16  commontables.o(.constdata)
    arm_cfft_sR_q31_len1024                  0x080e24a4   Data          16  commontables.o(.constdata)
    arm_cfft_sR_q31_len2048                  0x080e24b4   Data          16  commontables.o(.constdata)
    arm_cfft_sR_q31_len4096                  0x080e24c4   Data          16  commontables.o(.constdata)
    arm_cfft_sR_q15_len16                    0x080e24d4   Data          16  commontables.o(.constdata)
    arm_cfft_sR_q15_len32                    0x080e24e4   Data          16  commontables.o(.constdata)
    arm_cfft_sR_q15_len64                    0x080e24f4   Data          16  commontables.o(.constdata)
    arm_cfft_sR_q15_len128                   0x080e2504   Data          16  commontables.o(.constdata)
    arm_cfft_sR_q15_len256                   0x080e2514   Data          16  commontables.o(.constdata)
    arm_cfft_sR_q15_len512                   0x080e2524   Data          16  commontables.o(.constdata)
    arm_cfft_sR_q15_len1024                  0x080e2534   Data          16  commontables.o(.constdata)
    arm_cfft_sR_q15_len2048                  0x080e2544   Data          16  commontables.o(.constdata)
    arm_cfft_sR_q15_len4096                  0x080e2554   Data          16  commontables.o(.constdata)
    arm_rfft_fast_sR_f64_len32               0x080e2564   Data          24  commontables.o(.constdata)
    arm_rfft_fast_sR_f64_len64               0x080e257c   Data          24  commontables.o(.constdata)
    arm_rfft_fast_sR_f64_len128              0x080e2594   Data          24  commontables.o(.constdata)
    arm_rfft_fast_sR_f64_len256              0x080e25ac   Data          24  commontables.o(.constdata)
    arm_rfft_fast_sR_f64_len512              0x080e25c4   Data          24  commontables.o(.constdata)
    arm_rfft_fast_sR_f64_len1024             0x080e25dc   Data          24  commontables.o(.constdata)
    arm_rfft_fast_sR_f64_len2048             0x080e25f4   Data          24  commontables.o(.constdata)
    arm_rfft_fast_sR_f64_len4096             0x080e260c   Data          24  commontables.o(.constdata)
    arm_rfft_fast_sR_f32_len32               0x080e2624   Data          24  commontables.o(.constdata)
    arm_rfft_fast_sR_f32_len64               0x080e263c   Data          24  commontables.o(.constdata)
    arm_rfft_fast_sR_f32_len128              0x080e2654   Data          24  commontables.o(.constdata)
    arm_rfft_fast_sR_f32_len256              0x080e266c   Data          24  commontables.o(.constdata)
    arm_rfft_fast_sR_f32_len512              0x080e2684   Data          24  commontables.o(.constdata)
    arm_rfft_fast_sR_f32_len1024             0x080e269c   Data          24  commontables.o(.constdata)
    arm_rfft_fast_sR_f32_len2048             0x080e26b4   Data          24  commontables.o(.constdata)
    arm_rfft_fast_sR_f32_len4096             0x080e26cc   Data          24  commontables.o(.constdata)
    arm_rfft_sR_q31_len32                    0x080e26e4   Data          24  commontables.o(.constdata)
    arm_rfft_sR_q31_len64                    0x080e26fc   Data          24  commontables.o(.constdata)
    arm_rfft_sR_q31_len128                   0x080e2714   Data          24  commontables.o(.constdata)
    arm_rfft_sR_q31_len256                   0x080e272c   Data          24  commontables.o(.constdata)
    arm_rfft_sR_q31_len512                   0x080e2744   Data          24  commontables.o(.constdata)
    arm_rfft_sR_q31_len1024                  0x080e275c   Data          24  commontables.o(.constdata)
    arm_rfft_sR_q31_len2048                  0x080e2774   Data          24  commontables.o(.constdata)
    arm_rfft_sR_q31_len4096                  0x080e278c   Data          24  commontables.o(.constdata)
    arm_rfft_sR_q31_len8192                  0x080e27a4   Data          24  commontables.o(.constdata)
    arm_rfft_sR_q15_len32                    0x080e27bc   Data          24  commontables.o(.constdata)
    arm_rfft_sR_q15_len64                    0x080e27d4   Data          24  commontables.o(.constdata)
    arm_rfft_sR_q15_len128                   0x080e27ec   Data          24  commontables.o(.constdata)
    arm_rfft_sR_q15_len256                   0x080e2804   Data          24  commontables.o(.constdata)
    arm_rfft_sR_q15_len512                   0x080e281c   Data          24  commontables.o(.constdata)
    arm_rfft_sR_q15_len1024                  0x080e2834   Data          24  commontables.o(.constdata)
    arm_rfft_sR_q15_len2048                  0x080e284c   Data          24  commontables.o(.constdata)
    arm_rfft_sR_q15_len4096                  0x080e2864   Data          24  commontables.o(.constdata)
    arm_rfft_sR_q15_len8192                  0x080e287c   Data          24  commontables.o(.constdata)
    Region$$Table$$Base                      0x080e2894   Number         0  anon$$obj.o(Region$$Table)
    Region$$Table$$Limit                     0x080e28b4   Number         0  anon$$obj.o(Region$$Table)
    mem_infor                                0x20000000   Data           4  main.o(.data)
    fac_us                                   0x20000004   Data           1  systick.o(.data)
    fac_ms                                   0x20000008   Data           4  systick.o(.data)
    __stdout                                 0x2000003c   Data           4  stdout.o(.data)
    uid                                      0x20000040   Data          12  main.o(.bss)
    __initial_sp                             0x20001478   Data           0  startup_gd32f10x_xd.o(STACK)



==============================================================================

Memory Map of the image

  Image Entry point : 0x08000131

  Load Region LR_IROM1 (Base: 0x08000000, Size: 0x000e28f4, Max: 0x00300000, ABSOLUTE)

    Execution Region ER_IROM1 (Exec base: 0x08000000, Load base: 0x08000000, Size: 0x000e28b4, Max: 0x00300000, ABSOLUTE)

    Exec Addr    Load Addr    Size         Type   Attr      Idx    E Section Name        Object

    0x08000000   0x08000000   0x00000130   Data   RO          296    RESET               startup_gd32f10x_xd.o
    0x08000130   0x08000130   0x00000000   Code   RO         7982  * .ARM.Collect$$$$00000000  mc_w.l(entry.o)
    0x08000130   0x08000130   0x00000004   Code   RO         8327    .ARM.Collect$$$$00000001  mc_w.l(entry2.o)
    0x08000134   0x08000134   0x00000004   Code   RO         8330    .ARM.Collect$$$$00000004  mc_w.l(entry5.o)
    0x08000138   0x08000138   0x00000000   Code   RO         8332    .ARM.Collect$$$$00000008  mc_w.l(entry7b.o)
    0x08000138   0x08000138   0x00000000   Code   RO         8334    .ARM.Collect$$$$0000000A  mc_w.l(entry8b.o)
    0x08000138   0x08000138   0x00000008   Code   RO         8335    .ARM.Collect$$$$0000000B  mc_w.l(entry9a.o)
    0x08000140   0x08000140   0x00000000   Code   RO         8337    .ARM.Collect$$$$0000000D  mc_w.l(entry10a.o)
    0x08000140   0x08000140   0x00000000   Code   RO         8339    .ARM.Collect$$$$0000000F  mc_w.l(entry11a.o)
    0x08000140   0x08000140   0x00000004   Code   RO         8328    .ARM.Collect$$$$00002712  mc_w.l(entry2.o)
    0x08000144   0x08000144   0x00000024   Code   RO          297    .text               startup_gd32f10x_xd.o
    0x08000168   0x08000168   0x00000062   Code   RO         7985    .text               mc_w.l(uldiv.o)
    0x080001ca   0x080001ca   0x0000001e   Code   RO         7989    .text               mc_w.l(llshl.o)
    0x080001e8   0x080001e8   0x00000024   Code   RO         7991    .text               mc_w.l(llsshr.o)
    0x0800020c   0x0800020c   0x00000024   Code   RO         7995    .text               mc_w.l(memseta.o)
    0x08000230   0x08000230   0x000000b0   Code   RO         8260    .text               mf_w.l(fadd.o)
    0x080002e0   0x080002e0   0x00000064   Code   RO         8262    .text               mf_w.l(fmul.o)
    0x08000344   0x08000344   0x0000007c   Code   RO         8264    .text               mf_w.l(fdiv.o)
    0x080003c0   0x080003c0   0x0000014e   Code   RO         8266    .text               mf_w.l(dadd.o)
    0x0800050e   0x0800050e   0x000000e4   Code   RO         8268    .text               mf_w.l(dmul.o)
    0x080005f2   0x080005f2   0x000000de   Code   RO         8270    .text               mf_w.l(ddiv.o)
    0x080006d0   0x080006d0   0x00000012   Code   RO         8272    .text               mf_w.l(fflti.o)
    0x080006e2   0x080006e2   0x0000000a   Code   RO         8274    .text               mf_w.l(ffltui.o)
    0x080006ec   0x080006ec   0x00000032   Code   RO         8278    .text               mf_w.l(ffixi.o)
    0x0800071e   0x0800071e   0x00000028   Code   RO         8280    .text               mf_w.l(ffixui.o)
    0x08000746   0x08000746   0x00000026   Code   RO         8284    .text               mf_w.l(f2d.o)
    0x0800076c   0x0800076c   0x00000014   Code   RO         8290    .text               mf_w.l(cfcmple.o)
    0x08000780   0x08000780   0x0000002c   Code   RO         8342    .text               mc_w.l(uidiv.o)
    0x080007ac   0x080007ac   0x00000020   Code   RO         8344    .text               mc_w.l(llushr.o)
    0x080007cc   0x080007cc   0x00000000   Code   RO         8353    .text               mc_w.l(iusefp.o)
    0x080007cc   0x080007cc   0x0000006e   Code   RO         8354    .text               mf_w.l(fepilogue.o)
    0x0800083a   0x0800083a   0x000000ba   Code   RO         8362    .text               mf_w.l(depilogue.o)
    0x080008f4   0x080008f4   0x00000030   Code   RO         8368    .text               mf_w.l(dfixul.o)
    0x08000924   0x08000924   0x00000030   Code   RO         8372    .text               mf_w.l(cdrcmple.o)
    0x08000954   0x08000954   0x00000024   Code   RO         8376    .text               mc_w.l(init.o)
    0x08000978   0x08000978   0x00000004   Code   RO            4    i.BusFault_Handler  gd32f10x_it.o
    0x0800097c   0x0800097c   0x00000002   Code   RO            5    i.DebugMon_Handler  gd32f10x_it.o
    0x0800097e   0x0800097e   0x00000004   Code   RO            6    i.HardFault_Handler  gd32f10x_it.o
    0x08000982   0x08000982   0x00000004   Code   RO            7    i.MemManage_Handler  gd32f10x_it.o
    0x08000986   0x08000986   0x00000002   Code   RO            8    i.NMI_Handler       gd32f10x_it.o
    0x08000988   0x08000988   0x00000002   Code   RO            9    i.PendSV_Handler    gd32f10x_it.o
    0x0800098a   0x0800098a   0x00000002   Code   RO           10    i.SVC_Handler       gd32f10x_it.o
    0x0800098c   0x0800098c   0x000000d4   Code   RO          257    i.SystemInit        system_gd32f10x.o
    0x08000a60   0x08000a60   0x00000004   Code   RO           11    i.UsageFault_Handler  gd32f10x_it.o
    0x08000a64   0x08000a64   0x00000020   Code   RO         8232    i.__0printf         mc_w.l(printfa.o)
    0x08000a84   0x08000a84   0x0000000e   Code   RO         8380    i.__scatterload_copy  mc_w.l(handlers.o)
    0x08000a92   0x08000a92   0x00000002   Code   RO         8381    i.__scatterload_null  mc_w.l(handlers.o)
    0x08000a94   0x08000a94   0x0000000e   Code   RO         8382    i.__scatterload_zeroinit  mc_w.l(handlers.o)
    0x08000aa2   0x08000aa2   0x00000002   PAD
    0x08000aa4   0x08000aa4   0x00000184   Code   RO         8239    i._fp_digits        mc_w.l(printfa.o)
    0x08000c28   0x08000c28   0x000006dc   Code   RO         8240    i._printf_core      mc_w.l(printfa.o)
    0x08001304   0x08001304   0x00000024   Code   RO         8241    i._printf_post_padding  mc_w.l(printfa.o)
    0x08001328   0x08001328   0x0000002e   Code   RO         8242    i._printf_pre_padding  mc_w.l(printfa.o)
    0x08001356   0x08001356   0x000000e8   Code   RO         5356    i.arm_biquad_cascade_df1_f32  filteringfunctions.o
    0x0800143e   0x0800143e   0x0000001e   Code   RO         5359    i.arm_biquad_cascade_df1_init_f32  filteringfunctions.o
    0x0800145c   0x0800145c   0x000000b4   Code   RO         5245    i.arm_sin_f32       fastmathfunctions.o
    0x08001510   0x08001510   0x0000002a   Code   RO         4006    i.delay_ms          systick.o
    0x0800153a   0x0800153a   0x00000002   PAD
    0x0800153c   0x0800153c   0x00000050   Code   RO         4007    i.delay_nms         systick.o
    0x0800158c   0x0800158c   0x00000150   Code   RO         4104    i.dsp_test          dsp_test.o
    0x080016dc   0x080016dc   0x00000024   Code   RO         4071    i.fputc             print.o
    0x08001700   0x08001700   0x00000014   Code   RO         3976    i.get_mem_infor     bitband.o
    0x08001714   0x08001714   0x0000001c   Code   RO         3977    i.get_uid           bitband.o
    0x08001730   0x08001730   0x000000ac   Code   RO         1866    i.gpio_init         gd32f10x_gpio.o
    0x080017dc   0x080017dc   0x00000068   Code   RO         3934    i.led_init          led.o
    0x08001844   0x08001844   0x00000024   Code   RO         3935    i.led_off           led.o
    0x08001868   0x08001868   0x00000024   Code   RO         3936    i.led_on            led.o
    0x0800188c   0x0800188c   0x000000b8   Code   RO          174    i.main              main.o
    0x08001944   0x08001944   0x00000018   Code   RO         2184    i.nvic_vector_table_set  gd32f10x_misc.o
    0x0800195c   0x0800195c   0x00000080   Code   RO         4072    i.print_config      print.o
    0x080019dc   0x080019dc   0x00000124   Code   RO         2340    i.rcu_clock_freq_get  gd32f10x_rcu.o
    0x08001b00   0x08001b00   0x00000020   Code   RO         2357    i.rcu_periph_clock_enable  gd32f10x_rcu.o
    0x08001b20   0x08001b20   0x000000bc   Code   RO          258    i.system_clock_96m_hxtal  system_gd32f10x.o
    0x08001bdc   0x08001bdc   0x00000008   Code   RO          259    i.system_clock_config  system_gd32f10x.o
    0x08001be4   0x08001be4   0x00000028   Code   RO         2187    i.systick_clksource_set  gd32f10x_misc.o
    0x08001c0c   0x08001c0c   0x00000024   Code   RO         4012    i.systick_set       systick.o
    0x08001c30   0x08001c30   0x00000090   Code   RO         3599    i.usart_baudrate_set  gd32f10x_usart.o
    0x08001cc0   0x08001cc0   0x00000008   Code   RO         3601    i.usart_data_transmit  gd32f10x_usart.o
    0x08001cc8   0x08001cc8   0x0000000a   Code   RO         3606    i.usart_enable      gd32f10x_usart.o
    0x08001cd2   0x08001cd2   0x0000001e   Code   RO         3608    i.usart_flag_get    gd32f10x_usart.o
    0x08001cf0   0x08001cf0   0x00000010   Code   RO         3612    i.usart_hardware_flow_cts_config  gd32f10x_usart.o
    0x08001d00   0x08001d00   0x00000010   Code   RO         3613    i.usart_hardware_flow_rts_config  gd32f10x_usart.o
    0x08001d10   0x08001d10   0x00000010   Code   RO         3627    i.usart_parity_config  gd32f10x_usart.o
    0x08001d20   0x08001d20   0x00000010   Code   RO         3629    i.usart_receive_config  gd32f10x_usart.o
    0x08001d30   0x08001d30   0x00000010   Code   RO         3635    i.usart_stop_bit_set  gd32f10x_usart.o
    0x08001d40   0x08001d40   0x00000010   Code   RO         3639    i.usart_transmit_config  gd32f10x_usart.o
    0x08001d50   0x08001d50   0x00000010   Code   RO         3640    i.usart_word_length_set  gd32f10x_usart.o
    0x08001d60   0x08001d60   0x000e0b34   Data   RO         4708    .constdata          commontables.o
    0x080e2894   0x080e2894   0x00000020   Data   RO         8378    Region$$Table       anon$$obj.o


    Execution Region RW_IRAM1 (Exec base: 0x20000000, Load base: 0x080e28b4, Size: 0x00001478, Max: 0x00018000, ABSOLUTE)

    Exec Addr    Load Addr    Size         Type   Attr      Idx    E Section Name        Object

    0x20000000   0x080e28b4   0x00000004   Data   RW          176    .data               main.o
    0x20000004   0x080e28b8   0x00000008   Data   RW         4013    .data               systick.o
    0x2000000c   0x080e28c0   0x00000030   Data   RW         4106    .data               dsp_test.o
    0x2000003c   0x080e28f0   0x00000004   Data   RW         8341    .data               mc_w.l(stdout.o)
    0x20000040        -       0x0000000c   Zero   RW          175    .bss                main.o
    0x2000004c        -       0x0000102c   Zero   RW         4105    .bss                dsp_test.o
    0x20001078        -       0x00000400   Zero   RW          294    STACK               startup_gd32f10x_xd.o


==============================================================================

Image component sizes


      Code (inc. data)   RO Data    RW Data    ZI Data      Debug   Object Name

        48         10          0          0          0       1194   bitband.o
         0          0     920372          0          0      13459   commontables.o
       336         72          0         48       4140       2931   dsp_test.o
       180         10          0          0          0        782   fastmathfunctions.o
       262          0          0          0          0      20943   filteringfunctions.o
       172          0          0          0          0        796   gd32f10x_gpio.o
        24          0          0          0          0      26924   gd32f10x_it.o
        64          8          0          0          0       1016   gd32f10x_misc.o
       324         32          0          0          0       1575   gd32f10x_rcu.o
       304          8          0          0          0       6107   gd32f10x_usart.o
       176         32          0          0          0       3034   led.o
       184         92          0          4         12      26391   main.o
       164         12          0          0          0       1043   print.o
        36          8        304          0       1024        772   startup_gd32f10x_xd.o
       408         24          0          0          0       2153   system_gd32f10x.o
       158         16          0          8          0       1749   systick.o

    ----------------------------------------------------------------------
      2842        324     920708         60       5176     110869   Object Totals
         0          0         32          0          0          0   (incl. Generated)
         2          0          0          0          0          0   (incl. Padding)

    ----------------------------------------------------------------------

      Code (inc. data)   RO Data    RW Data    ZI Data      Debug   Library Member Name

         0          0          0          0          0          0   entry.o
         0          0          0          0          0          0   entry10a.o
         0          0          0          0          0          0   entry11a.o
         8          4          0          0          0          0   entry2.o
         4          0          0          0          0          0   entry5.o
         0          0          0          0          0          0   entry7b.o
         0          0          0          0          0          0   entry8b.o
         8          4          0          0          0          0   entry9a.o
        30          0          0          0          0          0   handlers.o
        36          8          0          0          0         68   init.o
         0          0          0          0          0          0   iusefp.o
        30          0          0          0          0         68   llshl.o
        36          0          0          0          0         68   llsshr.o
        32          0          0          0          0         68   llushr.o
        36          0          0          0          0        108   memseta.o
      2258         90          0          0          0        452   printfa.o
         0          0          0          4          0          0   stdout.o
        44          0          0          0          0         80   uidiv.o
        98          0          0          0          0         92   uldiv.o
        48          0          0          0          0         68   cdrcmple.o
        20          0          0          0          0         68   cfcmple.o
       334          0          0          0          0        148   dadd.o
       222          0          0          0          0        100   ddiv.o
       186          0          0          0          0        176   depilogue.o
        48          0          0          0          0         68   dfixul.o
       228          0          0          0          0         96   dmul.o
        38          0          0          0          0         68   f2d.o
       176          0          0          0          0        140   fadd.o
       124          0          0          0          0         88   fdiv.o
       110          0          0          0          0        168   fepilogue.o
        50          0          0          0          0         68   ffixi.o
        40          0          0          0          0         68   ffixui.o
        18          0          0          0          0         68   fflti.o
        10          0          0          0          0         68   ffltui.o
       100          0          0          0          0         76   fmul.o

    ----------------------------------------------------------------------
      4374        106          0          4          0       2540   Library Totals
         2          0          0          0          0          0   (incl. Padding)

    ----------------------------------------------------------------------

      Code (inc. data)   RO Data    RW Data    ZI Data      Debug   Library Name

      2620        106          0          4          0       1004   mc_w.l
      1752          0          0          0          0       1536   mf_w.l

    ----------------------------------------------------------------------
      4374        106          0          4          0       2540   Library Totals

    ----------------------------------------------------------------------

==============================================================================


      Code (inc. data)   RO Data    RW Data    ZI Data      Debug   

      7216        430     920708         64       5176     110233   Grand Totals
      7216        430     920708         64       5176     110233   ELF Image Totals
      7216        430     920708         64          0          0   ROM Totals

==============================================================================

    Total RO  Size (Code + RO Data)               927924 ( 906.18kB)
    Total RW  Size (RW Data + ZI Data)              5240 (   5.12kB)
    Total ROM Size (Code + RO Data + RW Data)     927988 ( 906.24kB)

==============================================================================

